{
  "_format": "hh-sol-artifact-1",
  "contractName": "Game",
  "sourceName": "contracts/Game.sol",
  "abi": [
    {
      "inputs": [
        {
          "internalType": "string[]",
          "name": "names",
          "type": "string[]"
        },
        {
          "internalType": "string[]",
          "name": "imageURIs",
          "type": "string[]"
        },
        {
          "internalType": "uint256[]",
          "name": "initialFunds",
          "type": "uint256[]"
        },
        {
          "internalType": "uint256[]",
          "name": "wagerSizes",
          "type": "uint256[]"
        },
        {
          "internalType": "string",
          "name": "opponentName",
          "type": "string"
        },
        {
          "internalType": "string",
          "name": "opponentImageURI",
          "type": "string"
        },
        {
          "internalType": "uint256",
          "name": "opponentFunds",
          "type": "uint256"
        },
        {
          "internalType": "uint256",
          "name": "opponentWagerSize",
          "type": "uint256"
        }
      ],
      "stateMutability": "nonpayable",
      "type": "constructor"
    },
    {
      "anonymous": false,
      "inputs": [
        {
          "indexed": true,
          "internalType": "address",
          "name": "owner",
          "type": "address"
        },
        {
          "indexed": true,
          "internalType": "address",
          "name": "approved",
          "type": "address"
        },
        {
          "indexed": true,
          "internalType": "uint256",
          "name": "tokenId",
          "type": "uint256"
        }
      ],
      "name": "Approval",
      "type": "event"
    },
    {
      "anonymous": false,
      "inputs": [
        {
          "indexed": true,
          "internalType": "address",
          "name": "owner",
          "type": "address"
        },
        {
          "indexed": true,
          "internalType": "address",
          "name": "operator",
          "type": "address"
        },
        {
          "indexed": false,
          "internalType": "bool",
          "name": "approved",
          "type": "bool"
        }
      ],
      "name": "ApprovalForAll",
      "type": "event"
    },
    {
      "anonymous": false,
      "inputs": [
        {
          "indexed": false,
          "internalType": "uint256",
          "name": "tokenId",
          "type": "uint256"
        },
        {
          "indexed": false,
          "internalType": "string",
          "name": "name",
          "type": "string"
        }
      ],
      "name": "CharacterMint",
      "type": "event"
    },
    {
      "anonymous": false,
      "inputs": [
        {
          "indexed": false,
          "internalType": "uint256",
          "name": "playerRoll",
          "type": "uint256"
        },
        {
          "indexed": false,
          "internalType": "uint256",
          "name": "opponentRoll",
          "type": "uint256"
        }
      ],
      "name": "DiceRoll",
      "type": "event"
    },
    {
      "anonymous": false,
      "inputs": [
        {
          "indexed": true,
          "internalType": "address",
          "name": "from",
          "type": "address"
        },
        {
          "indexed": true,
          "internalType": "address",
          "name": "to",
          "type": "address"
        },
        {
          "indexed": true,
          "internalType": "uint256",
          "name": "tokenId",
          "type": "uint256"
        }
      ],
      "name": "Transfer",
      "type": "event"
    },
    {
      "inputs": [
        {
          "internalType": "address",
          "name": "to",
          "type": "address"
        },
        {
          "internalType": "uint256",
          "name": "tokenId",
          "type": "uint256"
        }
      ],
      "name": "approve",
      "outputs": [],
      "stateMutability": "nonpayable",
      "type": "function"
    },
    {
      "inputs": [
        {
          "internalType": "address",
          "name": "owner",
          "type": "address"
        }
      ],
      "name": "balanceOf",
      "outputs": [
        {
          "internalType": "uint256",
          "name": "",
          "type": "uint256"
        }
      ],
      "stateMutability": "view",
      "type": "function"
    },
    {
      "inputs": [
        {
          "internalType": "uint256",
          "name": "",
          "type": "uint256"
        }
      ],
      "name": "characterMetadata",
      "outputs": [
        {
          "internalType": "uint256",
          "name": "index",
          "type": "uint256"
        },
        {
          "internalType": "string",
          "name": "name",
          "type": "string"
        },
        {
          "internalType": "string",
          "name": "imageURI",
          "type": "string"
        },
        {
          "internalType": "uint256",
          "name": "maxFunds",
          "type": "uint256"
        },
        {
          "internalType": "uint256",
          "name": "currentFunds",
          "type": "uint256"
        },
        {
          "internalType": "uint256",
          "name": "wagerSize",
          "type": "uint256"
        }
      ],
      "stateMutability": "view",
      "type": "function"
    },
    {
      "inputs": [
        {
          "internalType": "uint256",
          "name": "tokenId",
          "type": "uint256"
        }
      ],
      "name": "getApproved",
      "outputs": [
        {
          "internalType": "address",
          "name": "",
          "type": "address"
        }
      ],
      "stateMutability": "view",
      "type": "function"
    },
    {
      "inputs": [],
      "name": "getDefaultCharacterTraits",
      "outputs": [
        {
          "components": [
            {
              "internalType": "uint256",
              "name": "index",
              "type": "uint256"
            },
            {
              "internalType": "string",
              "name": "name",
              "type": "string"
            },
            {
              "internalType": "string",
              "name": "imageURI",
              "type": "string"
            },
            {
              "internalType": "uint256",
              "name": "maxFunds",
              "type": "uint256"
            },
            {
              "internalType": "uint256",
              "name": "currentFunds",
              "type": "uint256"
            },
            {
              "internalType": "uint256",
              "name": "wagerSize",
              "type": "uint256"
            }
          ],
          "internalType": "struct Game.CharacterTraits[]",
          "name": "",
          "type": "tuple[]"
        }
      ],
      "stateMutability": "view",
      "type": "function"
    },
    {
      "inputs": [],
      "name": "getOpponent",
      "outputs": [
        {
          "components": [
            {
              "internalType": "string",
              "name": "name",
              "type": "string"
            },
            {
              "internalType": "string",
              "name": "imageURI",
              "type": "string"
            },
            {
              "internalType": "uint256",
              "name": "maxFunds",
              "type": "uint256"
            },
            {
              "internalType": "uint256",
              "name": "currentFunds",
              "type": "uint256"
            },
            {
              "internalType": "uint256",
              "name": "wagerSize",
              "type": "uint256"
            }
          ],
          "internalType": "struct Game.Opponent",
          "name": "",
          "type": "tuple"
        }
      ],
      "stateMutability": "view",
      "type": "function"
    },
    {
      "inputs": [],
      "name": "getUserNFT",
      "outputs": [
        {
          "components": [
            {
              "internalType": "uint256",
              "name": "index",
              "type": "uint256"
            },
            {
              "internalType": "string",
              "name": "name",
              "type": "string"
            },
            {
              "internalType": "string",
              "name": "imageURI",
              "type": "string"
            },
            {
              "internalType": "uint256",
              "name": "maxFunds",
              "type": "uint256"
            },
            {
              "internalType": "uint256",
              "name": "currentFunds",
              "type": "uint256"
            },
            {
              "internalType": "uint256",
              "name": "wagerSize",
              "type": "uint256"
            }
          ],
          "internalType": "struct Game.CharacterTraits",
          "name": "",
          "type": "tuple"
        }
      ],
      "stateMutability": "view",
      "type": "function"
    },
    {
      "inputs": [
        {
          "internalType": "address",
          "name": "owner",
          "type": "address"
        },
        {
          "internalType": "address",
          "name": "operator",
          "type": "address"
        }
      ],
      "name": "isApprovedForAll",
      "outputs": [
        {
          "internalType": "bool",
          "name": "",
          "type": "bool"
        }
      ],
      "stateMutability": "view",
      "type": "function"
    },
    {
      "inputs": [
        {
          "internalType": "uint256",
          "name": "_characterIndex",
          "type": "uint256"
        }
      ],
      "name": "mintCharacterNFT",
      "outputs": [],
      "stateMutability": "nonpayable",
      "type": "function"
    },
    {
      "inputs": [],
      "name": "name",
      "outputs": [
        {
          "internalType": "string",
          "name": "",
          "type": "string"
        }
      ],
      "stateMutability": "view",
      "type": "function"
    },
    {
      "inputs": [],
      "name": "opponent",
      "outputs": [
        {
          "internalType": "string",
          "name": "name",
          "type": "string"
        },
        {
          "internalType": "string",
          "name": "imageURI",
          "type": "string"
        },
        {
          "internalType": "uint256",
          "name": "maxFunds",
          "type": "uint256"
        },
        {
          "internalType": "uint256",
          "name": "currentFunds",
          "type": "uint256"
        },
        {
          "internalType": "uint256",
          "name": "wagerSize",
          "type": "uint256"
        }
      ],
      "stateMutability": "view",
      "type": "function"
    },
    {
      "inputs": [
        {
          "internalType": "address",
          "name": "",
          "type": "address"
        }
      ],
      "name": "ownerCharacterIds",
      "outputs": [
        {
          "internalType": "uint256",
          "name": "",
          "type": "uint256"
        }
      ],
      "stateMutability": "view",
      "type": "function"
    },
    {
      "inputs": [
        {
          "internalType": "uint256",
          "name": "tokenId",
          "type": "uint256"
        }
      ],
      "name": "ownerOf",
      "outputs": [
        {
          "internalType": "address",
          "name": "",
          "type": "address"
        }
      ],
      "stateMutability": "view",
      "type": "function"
    },
    {
      "inputs": [],
      "name": "rollTheDice",
      "outputs": [],
      "stateMutability": "nonpayable",
      "type": "function"
    },
    {
      "inputs": [
        {
          "internalType": "address",
          "name": "from",
          "type": "address"
        },
        {
          "internalType": "address",
          "name": "to",
          "type": "address"
        },
        {
          "internalType": "uint256",
          "name": "tokenId",
          "type": "uint256"
        }
      ],
      "name": "safeTransferFrom",
      "outputs": [],
      "stateMutability": "nonpayable",
      "type": "function"
    },
    {
      "inputs": [
        {
          "internalType": "address",
          "name": "from",
          "type": "address"
        },
        {
          "internalType": "address",
          "name": "to",
          "type": "address"
        },
        {
          "internalType": "uint256",
          "name": "tokenId",
          "type": "uint256"
        },
        {
          "internalType": "bytes",
          "name": "_data",
          "type": "bytes"
        }
      ],
      "name": "safeTransferFrom",
      "outputs": [],
      "stateMutability": "nonpayable",
      "type": "function"
    },
    {
      "inputs": [
        {
          "internalType": "address",
          "name": "operator",
          "type": "address"
        },
        {
          "internalType": "bool",
          "name": "approved",
          "type": "bool"
        }
      ],
      "name": "setApprovalForAll",
      "outputs": [],
      "stateMutability": "nonpayable",
      "type": "function"
    },
    {
      "inputs": [
        {
          "internalType": "bytes4",
          "name": "interfaceId",
          "type": "bytes4"
        }
      ],
      "name": "supportsInterface",
      "outputs": [
        {
          "internalType": "bool",
          "name": "",
          "type": "bool"
        }
      ],
      "stateMutability": "view",
      "type": "function"
    },
    {
      "inputs": [],
      "name": "symbol",
      "outputs": [
        {
          "internalType": "string",
          "name": "",
          "type": "string"
        }
      ],
      "stateMutability": "view",
      "type": "function"
    },
    {
      "inputs": [
        {
          "internalType": "uint256",
          "name": "_tokenId",
          "type": "uint256"
        }
      ],
      "name": "tokenURI",
      "outputs": [
        {
          "internalType": "string",
          "name": "",
          "type": "string"
        }
      ],
      "stateMutability": "view",
      "type": "function"
    },
    {
      "inputs": [
        {
          "internalType": "address",
          "name": "from",
          "type": "address"
        },
        {
          "internalType": "address",
          "name": "to",
          "type": "address"
        },
        {
          "internalType": "uint256",
          "name": "tokenId",
          "type": "uint256"
        }
      ],
      "name": "transferFrom",
      "outputs": [],
      "stateMutability": "nonpayable",
      "type": "function"
    }
  ],
  "bytecode": "0x60806040523480156200001157600080fd5b50604051620057123803806200571283398181016040528101906200003791906200075f565b6040518060400160405280600881526020017f4469636547616d650000000000000000000000000000000000000000000000008152506040518060400160405280600481526020017f44494345000000000000000000000000000000000000000000000000000000008152508160009080519060200190620000bb929190620004c7565b508060019080519060200190620000d4929190620004c7565b50505060005b8851811015620002ff5760076040518060c001604052808381526020018b848151811062000131577f4e487b7100000000000000000000000000000000000000000000000000000000600052603260045260246000fd5b602002602001015181526020018a848151811062000178577f4e487b7100000000000000000000000000000000000000000000000000000000600052603260045260246000fd5b60200260200101518152602001898481518110620001bf577f4e487b7100000000000000000000000000000000000000000000000000000000600052603260045260246000fd5b6020026020010151815260200189848151811062000206577f4e487b7100000000000000000000000000000000000000000000000000000000600052603260045260246000fd5b602002602001015181526020018884815181106200024d577f4e487b7100000000000000000000000000000000000000000000000000000000600052603260045260246000fd5b60200260200101518152509080600181540180825580915050600190039060005260206000209060060201600090919091909150600082015181600001556020820151816001019080519060200190620002a9929190620004c7565b506040820151816002019080519060200190620002c8929190620004c7565b50606082015181600301556080820151816004015560a0820151816005015550508080620002f69062000ac3565b915050620000da565b506040518060a00160405280858152602001848152602001838152602001838152602001828152506008600082015181600001908051906020019062000347929190620004c7565b50602082015181600101908051906020019062000366929190620004c7565b506040820151816002015560608201518160030155608082015181600401559050506200039f6006620003e260201b62001d381760201c565b620003d46040518060600160405280602e8152602001620056e4602e9139600780549050620003f860201b62001d4e1760201c565b505050505050505062000bc9565b6001816000016000828254019250508190555050565b6200049a8282604051602401620004119291906200090a565b6040516020818303038152906040527f9710a9d0000000000000000000000000000000000000000000000000000000007bffffffffffffffffffffffffffffffffffffffffffffffffffffffff19166020820180517bffffffffffffffffffffffffffffffffffffffffffffffffffffffff83818316178352505050506200049e60201b60201c565b5050565b60008151905060006a636f6e736f6c652e6c6f679050602083016000808483855afa5050505050565b828054620004d59062000a57565b90600052602060002090601f016020900481019282620004f9576000855562000545565b82601f106200051457805160ff191683800117855562000545565b8280016001018555821562000545579182015b828111156200054457825182559160200191906001019062000527565b5b50905062000554919062000558565b5090565b5b808211156200057357600081600090555060010162000559565b5090565b60006200058e620005888462000967565b6200093e565b90508083825260208201905082856020860282011115620005ae57600080fd5b60005b85811015620005fd57815167ffffffffffffffff811115620005d257600080fd5b808601620005e189826200071b565b85526020850194506020840193505050600181019050620005b1565b5050509392505050565b60006200061e620006188462000996565b6200093e565b905080838252602082019050828560208602820111156200063e57600080fd5b60005b8581101562000672578162000657888262000748565b84526020840193506020830192505060018101905062000641565b5050509392505050565b6000620006936200068d84620009c5565b6200093e565b905082815260208101848484011115620006ac57600080fd5b620006b984828562000a21565b509392505050565b600082601f830112620006d357600080fd5b8151620006e584826020860162000577565b91505092915050565b600082601f8301126200070057600080fd5b81516200071284826020860162000607565b91505092915050565b600082601f8301126200072d57600080fd5b81516200073f8482602086016200067c565b91505092915050565b600081519050620007598162000baf565b92915050565b600080600080600080600080610100898b0312156200077d57600080fd5b600089015167ffffffffffffffff8111156200079857600080fd5b620007a68b828c01620006c1565b985050602089015167ffffffffffffffff811115620007c457600080fd5b620007d28b828c01620006c1565b975050604089015167ffffffffffffffff811115620007f057600080fd5b620007fe8b828c01620006ee565b965050606089015167ffffffffffffffff8111156200081c57600080fd5b6200082a8b828c01620006ee565b955050608089015167ffffffffffffffff8111156200084857600080fd5b620008568b828c016200071b565b94505060a089015167ffffffffffffffff8111156200087457600080fd5b620008828b828c016200071b565b93505060c0620008958b828c0162000748565b92505060e0620008a88b828c0162000748565b9150509295985092959890939650565b6000620008c582620009fb565b620008d1818562000a06565b9350620008e381856020860162000a21565b620008ee8162000b9e565b840191505092915050565b620009048162000a17565b82525050565b60006040820190508181036000830152620009268185620008b8565b9050620009376020830184620008f9565b9392505050565b60006200094a6200095d565b905062000958828262000a8d565b919050565b6000604051905090565b600067ffffffffffffffff82111562000985576200098462000b6f565b5b602082029050602081019050919050565b600067ffffffffffffffff821115620009b457620009b362000b6f565b5b602082029050602081019050919050565b600067ffffffffffffffff821115620009e357620009e262000b6f565b5b620009ee8262000b9e565b9050602081019050919050565b600081519050919050565b600082825260208201905092915050565b6000819050919050565b60005b8381101562000a4157808201518184015260208101905062000a24565b8381111562000a51576000848401525b50505050565b6000600282049050600182168062000a7057607f821691505b6020821081141562000a875762000a8662000b40565b5b50919050565b62000a988262000b9e565b810181811067ffffffffffffffff8211171562000aba5762000ab962000b6f565b5b80604052505050565b600062000ad08262000a17565b91507fffffffffffffffffffffffffffffffffffffffffffffffffffffffffffffffff82141562000b065762000b0562000b11565b5b600182019050919050565b7f4e487b7100000000000000000000000000000000000000000000000000000000600052601160045260246000fd5b7f4e487b7100000000000000000000000000000000000000000000000000000000600052602260045260246000fd5b7f4e487b7100000000000000000000000000000000000000000000000000000000600052604160045260246000fd5b6000601f19601f8301169050919050565b62000bba8162000a17565b811462000bc657600080fd5b50565b614b0b8062000bd96000396000f3fe608060405234801561001057600080fd5b50600436106101375760003560e01c806370a08231116100b8578063a22cb4651161007c578063a22cb46514610342578063b88d4fde1461035e578063c87b56dd1461037a578063e985e9c5146103aa578063edc12a28146103da578063f8b81ef71461040f57610137565b806370a08231146102aa57806378ec0e46146102da5780637d789dee146102f857806393694f671461030257806395d89b411461032457610137565b8063260fb0e2116100ff578063260fb0e2146101f257806334238d9314610222578063395800541461024057806342842e0e1461025e5780636352211e1461027a57610137565b806301ffc9a71461013c57806306fdde031461016c578063081812fc1461018a578063095ea7b3146101ba57806323b872dd146101d6575b600080fd5b61015660048036038101906101519190613140565b61042b565b6040516101639190613a89565b60405180910390f35b61017461050d565b6040516101819190613aa4565b60405180910390f35b6101a4600480360381019061019f9190613192565b61059f565b6040516101b19190613a00565b60405180910390f35b6101d460048036038101906101cf9190613104565b610624565b005b6101f060048036038101906101eb9190612ffe565b61073c565b005b61020c60048036038101906102079190612f99565b61079c565b6040516102199190613e25565b60405180910390f35b61022a6107b4565b6040516102379190613de1565b60405180910390f35b61024861098c565b6040516102559190613e03565b60405180910390f35b61027860048036038101906102739190612ffe565b610ae8565b005b610294600480360381019061028f9190613192565b610b08565b6040516102a19190613a00565b60405180910390f35b6102c460048036038101906102bf9190612f99565b610bba565b6040516102d19190613e25565b60405180910390f35b6102e2610c72565b6040516102ef9190613a67565b60405180910390f35b610300610e1d565b005b61030a6112b9565b60405161031b959493929190613ac6565b60405180910390f35b61032c6113ed565b6040516103399190613aa4565b60405180910390f35b61035c600480360381019061035791906130c8565b61147f565b005b6103786004803603810190610373919061304d565b611495565b005b610394600480360381019061038f9190613192565b6114f7565b6040516103a19190613aa4565b60405180910390f35b6103c460048036038101906103bf9190612fc2565b611712565b6040516103d19190613a89565b60405180910390f35b6103f460048036038101906103ef9190613192565b6117a6565b60405161040696959493929190613e40565b60405180910390f35b61042960048036038101906104249190613192565b6118f2565b005b60007f80ac58cd000000000000000000000000000000000000000000000000000000007bffffffffffffffffffffffffffffffffffffffffffffffffffffffff1916827bffffffffffffffffffffffffffffffffffffffffffffffffffffffff191614806104f657507f5b5e139f000000000000000000000000000000000000000000000000000000007bffffffffffffffffffffffffffffffffffffffffffffffffffffffff1916827bffffffffffffffffffffffffffffffffffffffffffffffffffffffff1916145b80610506575061050582611dea565b5b9050919050565b60606000805461051c906141cb565b80601f0160208091040260200160405190810160405280929190818152602001828054610548906141cb565b80156105955780601f1061056a57610100808354040283529160200191610595565b820191906000526020600020905b81548152906001019060200180831161057857829003601f168201915b5050505050905090565b60006105aa82611e54565b6105e9576040517f08c379a00000000000000000000000000000000000000000000000000000000081526004016105e090613d41565b60405180910390fd5b6004600083815260200190815260200160002060009054906101000a900473ffffffffffffffffffffffffffffffffffffffff169050919050565b600061062f82610b08565b90508073ffffffffffffffffffffffffffffffffffffffff168373ffffffffffffffffffffffffffffffffffffffff1614156106a0576040517f08c379a000000000000000000000000000000000000000000000000000000000815260040161069790613d81565b60405180910390fd5b8073ffffffffffffffffffffffffffffffffffffffff166106bf611ec0565b73ffffffffffffffffffffffffffffffffffffffff1614806106ee57506106ed816106e8611ec0565b611712565b5b61072d576040517f08c379a000000000000000000000000000000000000000000000000000000000815260040161072490613ca1565b60405180910390fd5b6107378383611ec8565b505050565b61074d610747611ec0565b82611f81565b61078c576040517f08c379a000000000000000000000000000000000000000000000000000000000815260040161078390613da1565b60405180910390fd5b61079783838361205f565b505050565b600e6020528060005260406000206000915090505481565b6107bc612dc0565b6000600e60003373ffffffffffffffffffffffffffffffffffffffff1673ffffffffffffffffffffffffffffffffffffffff168152602001908152602001600020549050600081141561081b57610811612dc0565b8092505050610989565b600d60008281526020019081526020016000206040518060c001604052908160008201548152602001600182018054610853906141cb565b80601f016020809104026020016040519081016040528092919081815260200182805461087f906141cb565b80156108cc5780601f106108a1576101008083540402835291602001916108cc565b820191906000526020600020905b8154815290600101906020018083116108af57829003601f168201915b505050505081526020016002820180546108e5906141cb565b80601f0160208091040260200160405190810160405280929190818152602001828054610911906141cb565b801561095e5780601f106109335761010080835404028352916020019161095e565b820191906000526020600020905b81548152906001019060200180831161094157829003601f168201915b5050505050815260200160038201548152602001600482015481526020016005820154815250509150505b90565b610994612df6565b60086040518060a00160405290816000820180546109b1906141cb565b80601f01602080910402602001604051908101604052809291908181526020018280546109dd906141cb565b8015610a2a5780601f106109ff57610100808354040283529160200191610a2a565b820191906000526020600020905b815481529060010190602001808311610a0d57829003601f168201915b50505050508152602001600182018054610a43906141cb565b80601f0160208091040260200160405190810160405280929190818152602001828054610a6f906141cb565b8015610abc5780601f10610a9157610100808354040283529160200191610abc565b820191906000526020600020905b815481529060010190602001808311610a9f57829003601f168201915b505050505081526020016002820154815260200160038201548152602001600482015481525050905090565b610b0383838360405180602001604052806000815250611495565b505050565b6000806002600084815260200190815260200160002060009054906101000a900473ffffffffffffffffffffffffffffffffffffffff169050600073ffffffffffffffffffffffffffffffffffffffff168173ffffffffffffffffffffffffffffffffffffffff161415610bb1576040517f08c379a0000000000000000000000000000000000000000000000000000000008152600401610ba890613ce1565b60405180910390fd5b80915050919050565b60008073ffffffffffffffffffffffffffffffffffffffff168273ffffffffffffffffffffffffffffffffffffffff161415610c2b576040517f08c379a0000000000000000000000000000000000000000000000000000000008152600401610c2290613cc1565b60405180910390fd5b600360008373ffffffffffffffffffffffffffffffffffffffff1673ffffffffffffffffffffffffffffffffffffffff168152602001908152602001600020549050919050565b60606007805480602002602001604051908101604052809291908181526020016000905b82821015610e1457838290600052602060002090600602016040518060c001604052908160008201548152602001600182018054610cd3906141cb565b80601f0160208091040260200160405190810160405280929190818152602001828054610cff906141cb565b8015610d4c5780601f10610d2157610100808354040283529160200191610d4c565b820191906000526020600020905b815481529060010190602001808311610d2f57829003601f168201915b50505050508152602001600282018054610d65906141cb565b80601f0160208091040260200160405190810160405280929190818152602001828054610d91906141cb565b8015610dde5780601f10610db357610100808354040283529160200191610dde565b820191906000526020600020905b815481529060010190602001808311610dc157829003601f168201915b50505050508152602001600382015481526020016004820154815260200160058201548152505081526020019060010190610c96565b50505050905090565b6000600e60003373ffffffffffffffffffffffffffffffffffffffff1673ffffffffffffffffffffffffffffffffffffffff1681526020019081526020016000205490506000600d6000838152602001908152602001600020905060008211610ebb576040517f08c379a0000000000000000000000000000000000000000000000000000000008152600401610eb290613d21565b60405180910390fd5b6000816004015411610f02576040517f08c379a0000000000000000000000000000000000000000000000000000000008152600401610ef990613c21565b60405180910390fd5b600060086003015411610f4a576040517f08c379a0000000000000000000000000000000000000000000000000000000008152600401610f4190613dc1565b60405180910390fd5b610f7a604051806080016040528060538152602001614a83605391398260040154836003015484600501546122bb565b610fad604051806060016040528060218152602001614a62602191396008600301546008600201546008600401546122bb565b6000805b808214156110ed5761104e836001018054610fcb906141cb565b80601f0160208091040260200160405190810160405280929190818152602001828054610ff7906141cb565b80156110445780601f1061101957610100808354040283529160200191611044565b820191906000526020600020905b81548152906001019060200180831161102757829003601f168201915b505050505061235d565b91506110e660086000018054611063906141cb565b80601f016020809104026020016040519081016040528092919081815260200182805461108f906141cb565b80156110dc5780601f106110b1576101008083540402835291602001916110dc565b820191906000526020600020905b8154815290600101906020018083116110bf57829003601f168201915b505050505061235d565b9050610fb1565b7fd3a83e7e27c72e08834e132d21fdc7812e127863db094421979a4f2443ef1860828260405161111e929190613edf565b60405180910390a16111656040518060400160405280600f81526020017f706c6179657220726f6c6c3a202573000000000000000000000000000000000081525083611d4e565b6111a46040518060400160405280601181526020017f6f70706f6e656e7420726f6c6c3a20257300000000000000000000000000000081525082611d4e565b808211156112345760086004015460086003015410611203576008600401548360040160008282546111d69190614000565b92505081905550600860040154600860030160008282546111f791906140e1565b9250508190555061122f565b60086003015483600401600082825461121c9190614000565b9250508190555060006008600301819055505b6112b3565b82600501548360040154106112875782600501546008600301600082825461125c9190614000565b92505081905550826005015483600401600082825461127b91906140e1565b925050819055506112b2565b8260040154600860030160008282546112a09190614000565b92505081905550600083600401819055505b5b50505050565b60088060000180546112ca906141cb565b80601f01602080910402602001604051908101604052809291908181526020018280546112f6906141cb565b80156113435780601f1061131857610100808354040283529160200191611343565b820191906000526020600020905b81548152906001019060200180831161132657829003601f168201915b505050505090806001018054611358906141cb565b80601f0160208091040260200160405190810160405280929190818152602001828054611384906141cb565b80156113d15780601f106113a6576101008083540402835291602001916113d1565b820191906000526020600020905b8154815290600101906020018083116113b457829003601f168201915b5050505050908060020154908060030154908060040154905085565b6060600180546113fc906141cb565b80601f0160208091040260200160405190810160405280929190818152602001828054611428906141cb565b80156114755780601f1061144a57610100808354040283529160200191611475565b820191906000526020600020905b81548152906001019060200180831161145857829003601f168201915b5050505050905090565b61149161148a611ec0565b83836123c0565b5050565b6114a66114a0611ec0565b83611f81565b6114e5576040517f08c379a00000000000000000000000000000000000000000000000000000000081526004016114dc90613da1565b60405180910390fd5b6114f18484848461252d565b50505050565b60606000600d60008481526020019081526020016000206040518060c001604052908160008201548152602001600182018054611533906141cb565b80601f016020809104026020016040519081016040528092919081815260200182805461155f906141cb565b80156115ac5780601f10611581576101008083540402835291602001916115ac565b820191906000526020600020905b81548152906001019060200180831161158f57829003601f168201915b505050505081526020016002820180546115c5906141cb565b80601f01602080910402602001604051908101604052809291908181526020018280546115f1906141cb565b801561163e5780601f106116135761010080835404028352916020019161163e565b820191906000526020600020905b81548152906001019060200180831161162157829003601f168201915b505050505081526020016003820154815260200160048201548152602001600582015481525050905060006116768260800151612589565b905060006116878360600151612589565b905060006116988460a00151612589565b905060006116de85602001516116ad89612589565b87604001518787876040516020016116ca969594939291906138ef565b604051602081830303815290604052612736565b90506000816040516020016116f39190613994565b6040516020818303038152906040529050809650505050505050919050565b6000600560008473ffffffffffffffffffffffffffffffffffffffff1673ffffffffffffffffffffffffffffffffffffffff16815260200190815260200160002060008373ffffffffffffffffffffffffffffffffffffffff1673ffffffffffffffffffffffffffffffffffffffff16815260200190815260200160002060009054906101000a900460ff16905092915050565b600d6020528060005260406000206000915090508060000154908060010180546117cf906141cb565b80601f01602080910402602001604051908101604052809291908181526020018280546117fb906141cb565b80156118485780601f1061181d57610100808354040283529160200191611848565b820191906000526020600020905b81548152906001019060200180831161182b57829003601f168201915b50505050509080600201805461185d906141cb565b80601f0160208091040260200160405190810160405280929190818152602001828054611889906141cb565b80156118d65780601f106118ab576101008083540402835291602001916118d6565b820191906000526020600020905b8154815290600101906020018083116118b957829003601f168201915b5050505050908060030154908060040154908060050154905086565b60006118fe60066128f4565b905061190a3382612902565b6040518060c0016040528083815260200160078481548110611955577f4e487b7100000000000000000000000000000000000000000000000000000000600052603260045260246000fd5b90600052602060002090600602016001018054611971906141cb565b80601f016020809104026020016040519081016040528092919081815260200182805461199d906141cb565b80156119ea5780601f106119bf576101008083540402835291602001916119ea565b820191906000526020600020905b8154815290600101906020018083116119cd57829003601f168201915b5050505050815260200160078481548110611a2e577f4e487b7100000000000000000000000000000000000000000000000000000000600052603260045260246000fd5b90600052602060002090600602016002018054611a4a906141cb565b80601f0160208091040260200160405190810160405280929190818152602001828054611a76906141cb565b8015611ac35780601f10611a9857610100808354040283529160200191611ac3565b820191906000526020600020905b815481529060010190602001808311611aa657829003601f168201915b5050505050815260200160078481548110611b07577f4e487b7100000000000000000000000000000000000000000000000000000000600052603260045260246000fd5b906000526020600020906006020160030154815260200160078481548110611b58577f4e487b7100000000000000000000000000000000000000000000000000000000600052603260045260246000fd5b906000526020600020906006020160040154815260200160078481548110611ba9577f4e487b7100000000000000000000000000000000000000000000000000000000600052603260045260246000fd5b906000526020600020906006020160050154815250600d6000838152602001908152602001600020600082015181600001556020820151816001019080519060200190611bf7929190612e25565b506040820151816002019080519060200190611c14929190612e25565b50606082015181600301556080820151816004015560a08201518160050155905050611c756040518060400160405280601281526020017f6d696e74696e6720746f6b656e4964202573000000000000000000000000000081525082611d4e565b80600e60003373ffffffffffffffffffffffffffffffffffffffff1673ffffffffffffffffffffffffffffffffffffffff16815260200190815260200160002081905550611cc36006611d38565b611ce66040518060600160405280602981526020016149f9602991398284612920565b7fc9dc0d748de6a54ef1529cd1523f557ed80e6d09527ebd7e014006b92c42396e81600d6000848152602001908152602001600020600101604051611d2c929190613eaf565b60405180910390a15050565b6001816000016000828254019250508190555050565b611de68282604051602401611d64929190613b27565b6040516020818303038152906040527f9710a9d0000000000000000000000000000000000000000000000000000000007bffffffffffffffffffffffffffffffffffffffffffffffffffffffff19166020820180517bffffffffffffffffffffffffffffffffffffffffffffffffffffffff83818316178352505050506129bf565b5050565b60007f01ffc9a7000000000000000000000000000000000000000000000000000000007bffffffffffffffffffffffffffffffffffffffffffffffffffffffff1916827bffffffffffffffffffffffffffffffffffffffffffffffffffffffff1916149050919050565b60008073ffffffffffffffffffffffffffffffffffffffff166002600084815260200190815260200160002060009054906101000a900473ffffffffffffffffffffffffffffffffffffffff1673ffffffffffffffffffffffffffffffffffffffff1614159050919050565b600033905090565b816004600083815260200190815260200160002060006101000a81548173ffffffffffffffffffffffffffffffffffffffff021916908373ffffffffffffffffffffffffffffffffffffffff160217905550808273ffffffffffffffffffffffffffffffffffffffff16611f3b83610b08565b73ffffffffffffffffffffffffffffffffffffffff167f8c5be1e5ebec7d5bd14f71427d1e84f3dd0314c0f7b2291e5b200ac8c7c3b92560405160405180910390a45050565b6000611f8c82611e54565b611fcb576040517f08c379a0000000000000000000000000000000000000000000000000000000008152600401611fc290613c81565b60405180910390fd5b6000611fd683610b08565b90508073ffffffffffffffffffffffffffffffffffffffff168473ffffffffffffffffffffffffffffffffffffffff16148061204557508373ffffffffffffffffffffffffffffffffffffffff1661202d8461059f565b73ffffffffffffffffffffffffffffffffffffffff16145b8061205657506120558185611712565b5b91505092915050565b8273ffffffffffffffffffffffffffffffffffffffff1661207f82610b08565b73ffffffffffffffffffffffffffffffffffffffff16146120d5576040517f08c379a00000000000000000000000000000000000000000000000000000000081526004016120cc90613d61565b60405180910390fd5b600073ffffffffffffffffffffffffffffffffffffffff168273ffffffffffffffffffffffffffffffffffffffff161415612145576040517f08c379a000000000000000000000000000000000000000000000000000000000815260040161213c90613c41565b60405180910390fd5b6121508383836129e8565b61215b600082611ec8565b6001600360008573ffffffffffffffffffffffffffffffffffffffff1673ffffffffffffffffffffffffffffffffffffffff16815260200190815260200160002060008282546121ab91906140e1565b925050819055506001600360008473ffffffffffffffffffffffffffffffffffffffff1673ffffffffffffffffffffffffffffffffffffffff16815260200190815260200160002060008282546122029190614000565b92505081905550816002600083815260200190815260200160002060006101000a81548173ffffffffffffffffffffffffffffffffffffffff021916908373ffffffffffffffffffffffffffffffffffffffff160217905550808273ffffffffffffffffffffffffffffffffffffffff168473ffffffffffffffffffffffffffffffffffffffff167fddf252ad1be2c89b69c2b068fc378daa952ba7f163c4a11628f55a4df523b3ef60405160405180910390a4505050565b612357848484846040516024016122d59493929190613b95565b6040516020818303038152906040527f08ee5666000000000000000000000000000000000000000000000000000000007bffffffffffffffffffffffffffffffffffffffffffffffffffffffff19166020820180517bffffffffffffffffffffffffffffffffffffffffffffffffffffffff83818316178352505050506129bf565b50505050565b60008061010d4244853360405160200161237a94939291906139b6565b6040516020818303038152906040528051906020012060001c61239d91906142a5565b90506002600b826123ae91906142a5565b6123b89190614000565b915050919050565b8173ffffffffffffffffffffffffffffffffffffffff168373ffffffffffffffffffffffffffffffffffffffff16141561242f576040517f08c379a000000000000000000000000000000000000000000000000000000000815260040161242690613c61565b60405180910390fd5b80600560008573ffffffffffffffffffffffffffffffffffffffff1673ffffffffffffffffffffffffffffffffffffffff16815260200190815260200160002060008473ffffffffffffffffffffffffffffffffffffffff1673ffffffffffffffffffffffffffffffffffffffff16815260200190815260200160002060006101000a81548160ff0219169083151502179055508173ffffffffffffffffffffffffffffffffffffffff168373ffffffffffffffffffffffffffffffffffffffff167f17307eab39ab6107e8899845ad3d59bd9653f200f220920489ca2b5937696c31836040516125209190613a89565b60405180910390a3505050565b61253884848461205f565b612544848484846129ed565b612583576040517f08c379a000000000000000000000000000000000000000000000000000000000815260040161257a90613be1565b60405180910390fd5b50505050565b606060008214156125d1576040518060400160405280600181526020017f30000000000000000000000000000000000000000000000000000000000000008152509050612731565b600082905060005b600082146126035780806125ec9061422e565b915050600a826125fc9190614056565b91506125d9565b60008167ffffffffffffffff811115612645577f4e487b7100000000000000000000000000000000000000000000000000000000600052604160045260246000fd5b6040519080825280601f01601f1916602001820160405280156126775781602001600182028036833780820191505090505b5090505b6000851461272a5760018261269091906140e1565b9150600a8561269f91906142a5565b60306126ab9190614000565b60f81b8183815181106126e7577f4e487b7100000000000000000000000000000000000000000000000000000000600052603260045260246000fd5b60200101907effffffffffffffffffffffffffffffffffffffffffffffffffffffffffffff1916908160001a905350600a856127239190614056565b945061267b565b8093505050505b919050565b6060600082519050600081141561275f57604051806020016040528060008152509150506128ef565b600060036002836127709190614000565b61277a9190614056565b60046127869190614087565b905060006020826127979190614000565b67ffffffffffffffff8111156127d6577f4e487b7100000000000000000000000000000000000000000000000000000000600052604160045260246000fd5b6040519080825280601f01601f1916602001820160405280156128085781602001600182028036833780820191505090505b5090506000604051806060016040528060408152602001614a22604091399050600181016020830160005b868110156128ac5760038101905062ffffff818a015116603f8160121c168401518060081b905060ff603f83600c1c1686015116810190508060081b905060ff603f8360061c1686015116810190508060081b905060ff603f831686015116810190508060e01b90508084526004840193505050612833565b5060038606600181146128c657600281146128d6576128e1565b613d3d60f01b60028303526128e1565b603d60f81b60018303525b508484525050819450505050505b919050565b600081600001549050919050565b61291c828260405180602001604052806000815250612b84565b5050565b6129ba83838360405160240161293893929190613b57565b6040516020818303038152906040527f969cdd03000000000000000000000000000000000000000000000000000000007bffffffffffffffffffffffffffffffffffffffffffffffffffffffff19166020820180517bffffffffffffffffffffffffffffffffffffffffffffffffffffffff83818316178352505050506129bf565b505050565b60008151905060006a636f6e736f6c652e6c6f679050602083016000808483855afa5050505050565b505050565b6000612a0e8473ffffffffffffffffffffffffffffffffffffffff16612bdf565b15612b77578373ffffffffffffffffffffffffffffffffffffffff1663150b7a02612a37611ec0565b8786866040518563ffffffff1660e01b8152600401612a599493929190613a1b565b602060405180830381600087803b158015612a7357600080fd5b505af1925050508015612aa457506040513d601f19601f82011682018060405250810190612aa19190613169565b60015b612b27573d8060008114612ad4576040519150601f19603f3d011682016040523d82523d6000602084013e612ad9565b606091505b50600081511415612b1f576040517f08c379a0000000000000000000000000000000000000000000000000000000008152600401612b1690613be1565b60405180910390fd5b805181602001fd5b63150b7a0260e01b7bffffffffffffffffffffffffffffffffffffffffffffffffffffffff1916817bffffffffffffffffffffffffffffffffffffffffffffffffffffffff191614915050612b7c565b600190505b949350505050565b612b8e8383612bf2565b612b9b60008484846129ed565b612bda576040517f08c379a0000000000000000000000000000000000000000000000000000000008152600401612bd190613be1565b60405180910390fd5b505050565b600080823b905060008111915050919050565b600073ffffffffffffffffffffffffffffffffffffffff168273ffffffffffffffffffffffffffffffffffffffff161415612c62576040517f08c379a0000000000000000000000000000000000000000000000000000000008152600401612c5990613d01565b60405180910390fd5b612c6b81611e54565b15612cab576040517f08c379a0000000000000000000000000000000000000000000000000000000008152600401612ca290613c01565b60405180910390fd5b612cb7600083836129e8565b6001600360008473ffffffffffffffffffffffffffffffffffffffff1673ffffffffffffffffffffffffffffffffffffffff1681526020019081526020016000206000828254612d079190614000565b92505081905550816002600083815260200190815260200160002060006101000a81548173ffffffffffffffffffffffffffffffffffffffff021916908373ffffffffffffffffffffffffffffffffffffffff160217905550808273ffffffffffffffffffffffffffffffffffffffff16600073ffffffffffffffffffffffffffffffffffffffff167fddf252ad1be2c89b69c2b068fc378daa952ba7f163c4a11628f55a4df523b3ef60405160405180910390a45050565b6040518060c001604052806000815260200160608152602001606081526020016000815260200160008152602001600081525090565b6040518060a0016040528060608152602001606081526020016000815260200160008152602001600081525090565b828054612e31906141cb565b90600052602060002090601f016020900481019282612e535760008555612e9a565b82601f10612e6c57805160ff1916838001178555612e9a565b82800160010185558215612e9a579182015b82811115612e99578251825591602001919060010190612e7e565b5b509050612ea79190612eab565b5090565b5b80821115612ec4576000816000905550600101612eac565b5090565b6000612edb612ed684613f2d565b613f08565b905082815260208101848484011115612ef357600080fd5b612efe848285614189565b509392505050565b600081359050612f158161499c565b92915050565b600081359050612f2a816149b3565b92915050565b600081359050612f3f816149ca565b92915050565b600081519050612f54816149ca565b92915050565b600082601f830112612f6b57600080fd5b8135612f7b848260208601612ec8565b91505092915050565b600081359050612f93816149e1565b92915050565b600060208284031215612fab57600080fd5b6000612fb984828501612f06565b91505092915050565b60008060408385031215612fd557600080fd5b6000612fe385828601612f06565b9250506020612ff485828601612f06565b9150509250929050565b60008060006060848603121561301357600080fd5b600061302186828701612f06565b935050602061303286828701612f06565b925050604061304386828701612f84565b9150509250925092565b6000806000806080858703121561306357600080fd5b600061307187828801612f06565b945050602061308287828801612f06565b935050604061309387828801612f84565b925050606085013567ffffffffffffffff8111156130b057600080fd5b6130bc87828801612f5a565b91505092959194509250565b600080604083850312156130db57600080fd5b60006130e985828601612f06565b92505060206130fa85828601612f1b565b9150509250929050565b6000806040838503121561311757600080fd5b600061312585828601612f06565b925050602061313685828601612f84565b9150509250929050565b60006020828403121561315257600080fd5b600061316084828501612f30565b91505092915050565b60006020828403121561317b57600080fd5b600061318984828501612f45565b91505092915050565b6000602082840312156131a457600080fd5b60006131b284828501612f84565b91505092915050565b60006131c7838361371d565b905092915050565b6131d881614115565b82525050565b6131ef6131ea82614115565b614277565b82525050565b600061320082613f83565b61320a8185613fb1565b93508360208202850161321c85613f5e565b8060005b85811015613258578484038952815161323985826131bb565b945061324483613fa4565b925060208a01995050600181019050613220565b50829750879550505050505092915050565b61327381614127565b82525050565b600061328482613f8e565b61328e8185613fc2565b935061329e818560208601614198565b6132a781614392565b840191505092915050565b60006132bd82613f99565b6132c78185613fd3565b93506132d7818560208601614198565b6132e081614392565b840191505092915050565b60006132f682613f99565b6133008185613fe4565b9350613310818560208601614198565b61331981614392565b840191505092915050565b600061332f82613f99565b6133398185613ff5565b9350613349818560208601614198565b80840191505092915050565b60008154613362816141cb565b61336c8186613fe4565b945060018216600081146133875760018114613399576133cc565b60ff19831686526020860193506133cc565b6133a285613f6e565b60005b838110156133c4578154818901526001820191506020810190506133a5565b808801955050505b50505092915050565b60006133e2600b83613ff5565b91506133ed826143b0565b600b82019050919050565b6000613405603283613fe4565b9150613410826143d9565b604082019050919050565b6000613428601c83613fe4565b915061343382614428565b602082019050919050565b600061344b603583613ff5565b915061345682614451565b603582019050919050565b600061346e601383613fe4565b9150613479826144a0565b602082019050919050565b6000613491600e83613ff5565b915061349c826144c9565b600e82019050919050565b60006134b4602483613fe4565b91506134bf826144f2565b604082019050919050565b60006134d7601983613fe4565b91506134e282614541565b602082019050919050565b60006134fa602a83613ff5565b91506135058261456a565b602a82019050919050565b600061351d602c83613fe4565b9150613528826145b9565b604082019050919050565b6000613540603883613fe4565b915061354b82614608565b604082019050919050565b6000613563602a83613fe4565b915061356e82614657565b604082019050919050565b6000613586602983613fe4565b9150613591826146a6565b604082019050919050565b60006135a9600483613ff5565b91506135b4826146f5565b600482019050919050565b60006135cc602083613fe4565b91506135d78261471e565b602082019050919050565b60006135ef601d83613fe4565b91506135fa82614747565b602082019050919050565b6000613612602c83613fe4565b915061361d82614770565b604082019050919050565b6000613635602983613fe4565b9150613640826147bf565b604082019050919050565b6000613658600a83613ff5565b91506136638261480e565b600a82019050919050565b600061367b602183613fe4565b915061368682614837565b604082019050919050565b600061369e601d83613ff5565b91506136a982614886565b601d82019050919050565b60006136c1603183613fe4565b91506136cc826148af565b604082019050919050565b60006136e4604783613ff5565b91506136ef826148fe565b604782019050919050565b6000613707601583613fe4565b915061371282614973565b602082019050919050565b600060c08301600083015161373560008601826138ba565b506020830151848203602086015261374d82826132b2565b9150506040830151848203604086015261376782826132b2565b915050606083015161377c60608601826138ba565b50608083015161378f60808601826138ba565b5060a08301516137a260a08601826138ba565b508091505092915050565b600060c0830160008301516137c560008601826138ba565b50602083015184820360208601526137dd82826132b2565b915050604083015184820360408601526137f782826132b2565b915050606083015161380c60608601826138ba565b50608083015161381f60808601826138ba565b5060a083015161383260a08601826138ba565b508091505092915050565b600060a083016000830151848203600086015261385a82826132b2565b9150506020830151848203602086015261387482826132b2565b915050604083015161388960408601826138ba565b50606083015161389c60608601826138ba565b5060808301516138af60808601826138ba565b508091505092915050565b6138c38161417f565b82525050565b6138d28161417f565b82525050565b6138e96138e48261417f565b61429b565b82525050565b60006138fa8261364b565b91506139068289613324565b9150613911826133d5565b915061391d8288613324565b9150613928826136d7565b91506139348287613324565b915061393f8261343e565b915061394b8286613324565b915061395682613484565b91506139628285613324565b915061396d826134ed565b91506139798284613324565b91506139848261359c565b9150819050979650505050505050565b600061399f82613691565b91506139ab8284613324565b915081905092915050565b60006139c282876138d8565b6020820191506139d282866138d8565b6020820191506139e28285613324565b91506139ee82846131de565b60148201915081905095945050505050565b6000602082019050613a1560008301846131cf565b92915050565b6000608082019050613a3060008301876131cf565b613a3d60208301866131cf565b613a4a60408301856138c9565b8181036060830152613a5c8184613279565b905095945050505050565b60006020820190508181036000830152613a8181846131f5565b905092915050565b6000602082019050613a9e600083018461326a565b92915050565b60006020820190508181036000830152613abe81846132eb565b905092915050565b600060a0820190508181036000830152613ae081886132eb565b90508181036020830152613af481876132eb565b9050613b0360408301866138c9565b613b1060608301856138c9565b613b1d60808301846138c9565b9695505050505050565b60006040820190508181036000830152613b4181856132eb565b9050613b5060208301846138c9565b9392505050565b60006060820190508181036000830152613b7181866132eb565b9050613b8060208301856138c9565b613b8d60408301846138c9565b949350505050565b60006080820190508181036000830152613baf81876132eb565b9050613bbe60208301866138c9565b613bcb60408301856138c9565b613bd860608301846138c9565b95945050505050565b60006020820190508181036000830152613bfa816133f8565b9050919050565b60006020820190508181036000830152613c1a8161341b565b9050919050565b60006020820190508181036000830152613c3a81613461565b9050919050565b60006020820190508181036000830152613c5a816134a7565b9050919050565b60006020820190508181036000830152613c7a816134ca565b9050919050565b60006020820190508181036000830152613c9a81613510565b9050919050565b60006020820190508181036000830152613cba81613533565b9050919050565b60006020820190508181036000830152613cda81613556565b9050919050565b60006020820190508181036000830152613cfa81613579565b9050919050565b60006020820190508181036000830152613d1a816135bf565b9050919050565b60006020820190508181036000830152613d3a816135e2565b9050919050565b60006020820190508181036000830152613d5a81613605565b9050919050565b60006020820190508181036000830152613d7a81613628565b9050919050565b60006020820190508181036000830152613d9a8161366e565b9050919050565b60006020820190508181036000830152613dba816136b4565b9050919050565b60006020820190508181036000830152613dda816136fa565b9050919050565b60006020820190508181036000830152613dfb81846137ad565b905092915050565b60006020820190508181036000830152613e1d818461383d565b905092915050565b6000602082019050613e3a60008301846138c9565b92915050565b600060c082019050613e5560008301896138c9565b8181036020830152613e6781886132eb565b90508181036040830152613e7b81876132eb565b9050613e8a60608301866138c9565b613e9760808301856138c9565b613ea460a08301846138c9565b979650505050505050565b6000604082019050613ec460008301856138c9565b8181036020830152613ed68184613355565b90509392505050565b6000604082019050613ef460008301856138c9565b613f0160208301846138c9565b9392505050565b6000613f12613f23565b9050613f1e82826141fd565b919050565b6000604051905090565b600067ffffffffffffffff821115613f4857613f47614363565b5b613f5182614392565b9050602081019050919050565b6000819050602082019050919050565b60008190508160005260206000209050919050565b600081519050919050565b600081519050919050565b600081519050919050565b6000602082019050919050565b600082825260208201905092915050565b600082825260208201905092915050565b600082825260208201905092915050565b600082825260208201905092915050565b600081905092915050565b600061400b8261417f565b91506140168361417f565b9250827fffffffffffffffffffffffffffffffffffffffffffffffffffffffffffffffff0382111561404b5761404a6142d6565b5b828201905092915050565b60006140618261417f565b915061406c8361417f565b92508261407c5761407b614305565b5b828204905092915050565b60006140928261417f565b915061409d8361417f565b9250817fffffffffffffffffffffffffffffffffffffffffffffffffffffffffffffffff04831182151516156140d6576140d56142d6565b5b828202905092915050565b60006140ec8261417f565b91506140f78361417f565b92508282101561410a576141096142d6565b5b828203905092915050565b60006141208261415f565b9050919050565b60008115159050919050565b60007fffffffff0000000000000000000000000000000000000000000000000000000082169050919050565b600073ffffffffffffffffffffffffffffffffffffffff82169050919050565b6000819050919050565b82818337600083830152505050565b60005b838110156141b657808201518184015260208101905061419b565b838111156141c5576000848401525b50505050565b600060028204905060018216806141e357607f821691505b602082108114156141f7576141f6614334565b5b50919050565b61420682614392565b810181811067ffffffffffffffff8211171561422557614224614363565b5b80604052505050565b60006142398261417f565b91507fffffffffffffffffffffffffffffffffffffffffffffffffffffffffffffffff82141561426c5761426b6142d6565b5b600182019050919050565b600061428282614289565b9050919050565b6000614294826143a3565b9050919050565b6000819050919050565b60006142b08261417f565b91506142bb8361417f565b9250826142cb576142ca614305565b5b828206905092915050565b7f4e487b7100000000000000000000000000000000000000000000000000000000600052601160045260246000fd5b7f4e487b7100000000000000000000000000000000000000000000000000000000600052601260045260246000fd5b7f4e487b7100000000000000000000000000000000000000000000000000000000600052602260045260246000fd5b7f4e487b7100000000000000000000000000000000000000000000000000000000600052604160045260246000fd5b6000601f19601f8301169050919050565b60008160601b9050919050565b7f202d2d204e465420233a20000000000000000000000000000000000000000000600082015250565b7f4552433732313a207472616e7366657220746f206e6f6e20455243373231526560008201527f63656976657220696d706c656d656e7465720000000000000000000000000000602082015250565b7f4552433732313a20746f6b656e20616c7265616479206d696e74656400000000600082015250565b7f222c202261747472696275746573223a205b207b202274726169745f7479706560008201527f223a202246756e6473222c202276616c7565223a200000000000000000000000602082015250565b7f706c6179657220686173206e6f2066756e647300000000000000000000000000600082015250565b7f2c20226d61785f76616c7565223a000000000000000000000000000000000000600082015250565b7f4552433732313a207472616e7366657220746f20746865207a65726f2061646460008201527f7265737300000000000000000000000000000000000000000000000000000000602082015250565b7f4552433732313a20617070726f766520746f2063616c6c657200000000000000600082015250565b7f7d2c207b202274726169745f74797065223a202257616765722053697a65222c60008201527f202276616c7565223a2000000000000000000000000000000000000000000000602082015250565b7f4552433732313a206f70657261746f7220717565727920666f72206e6f6e657860008201527f697374656e7420746f6b656e0000000000000000000000000000000000000000602082015250565b7f4552433732313a20617070726f76652063616c6c6572206973206e6f74206f7760008201527f6e6572206e6f7220617070726f76656420666f7220616c6c0000000000000000602082015250565b7f4552433732313a2062616c616e636520717565727920666f7220746865207a6560008201527f726f206164647265737300000000000000000000000000000000000000000000602082015250565b7f4552433732313a206f776e657220717565727920666f72206e6f6e657869737460008201527f656e7420746f6b656e0000000000000000000000000000000000000000000000602082015250565b7f7d205d7d00000000000000000000000000000000000000000000000000000000600082015250565b7f4552433732313a206d696e7420746f20746865207a65726f2061646472657373600082015250565b7f4e6f204e465420666f756e6420666f7220746869732061646472657373000000600082015250565b7f4552433732313a20617070726f76656420717565727920666f72206e6f6e657860008201527f697374656e7420746f6b656e0000000000000000000000000000000000000000602082015250565b7f4552433732313a207472616e73666572206f6620746f6b656e2074686174206960008201527f73206e6f74206f776e0000000000000000000000000000000000000000000000602082015250565b7f7b226e616d65223a202200000000000000000000000000000000000000000000600082015250565b7f4552433732313a20617070726f76616c20746f2063757272656e74206f776e6560008201527f7200000000000000000000000000000000000000000000000000000000000000602082015250565b7f646174613a6170706c69636174696f6e2f6a736f6e3b6261736536342c000000600082015250565b7f4552433732313a207472616e736665722063616c6c6572206973206e6f74206f60008201527f776e6572206e6f7220617070726f766564000000000000000000000000000000602082015250565b7f222c20226465736372697074696f6e223a20224e46542074686174206973207560008201527f73656420746f20706c61792074686520646963652067616d652e222c2022696d60208201527f616765223a202200000000000000000000000000000000000000000000000000604082015250565b7f6f70706f6e656e7420686173206e6f2066756e64730000000000000000000000600082015250565b6149a581614115565b81146149b057600080fd5b50565b6149bc81614127565b81146149c757600080fd5b50565b6149d381614133565b81146149de57600080fd5b50565b6149ea8161417f565b81146149f557600080fd5b5056fe4d696e746564206368617261637465722023257320776974682074726169747320696e6465782025734142434445464748494a4b4c4d4e4f505152535455565758595a6162636465666768696a6b6c6d6e6f707172737475767778797a303132333435363738392b2f4f70706f6e656e743a202573202f2025732c20776167657253697a65203d202573506c61796572207769746820746f6b656e49642061626f757420746f20726f6c6c2074686520646963652077697468202573202f2025732066756e647320776974682077616765722073697a65206f66202573a26469706673582212209701a5325c884444d4bf628cb5927faebefc265a54ab3c8d4623ef6e54b745de64736f6c63430008040033696e697469616c697a65642025732064656661756c74206368617261637465727320616e64206f70706f6e656e74",
  "linkReferences": {},
  "deployedLinkReferences": {}
}