{
  "_format": "hh-sol-artifact-1",
  "contractName": "Game",
  "sourceName": "contracts/Game.sol",
  "abi": [
    {
      "inputs": [
        {
          "internalType": "string[]",
          "name": "names",
          "type": "string[]"
        },
        {
          "internalType": "string[]",
          "name": "imageURIs",
          "type": "string[]"
        },
        {
          "internalType": "uint256[]",
          "name": "initialFunds",
          "type": "uint256[]"
        },
        {
          "internalType": "uint256[]",
          "name": "wagerSizes",
          "type": "uint256[]"
        },
        {
          "internalType": "string",
          "name": "opponentName",
          "type": "string"
        },
        {
          "internalType": "string",
          "name": "opponentImageURI",
          "type": "string"
        },
        {
          "internalType": "uint256",
          "name": "opponentFunds",
          "type": "uint256"
        },
        {
          "internalType": "uint256",
          "name": "opponentWagerSize",
          "type": "uint256"
        }
      ],
      "stateMutability": "nonpayable",
      "type": "constructor"
    },
    {
      "anonymous": false,
      "inputs": [
        {
          "indexed": true,
          "internalType": "address",
          "name": "owner",
          "type": "address"
        },
        {
          "indexed": true,
          "internalType": "address",
          "name": "approved",
          "type": "address"
        },
        {
          "indexed": true,
          "internalType": "uint256",
          "name": "tokenId",
          "type": "uint256"
        }
      ],
      "name": "Approval",
      "type": "event"
    },
    {
      "anonymous": false,
      "inputs": [
        {
          "indexed": true,
          "internalType": "address",
          "name": "owner",
          "type": "address"
        },
        {
          "indexed": true,
          "internalType": "address",
          "name": "operator",
          "type": "address"
        },
        {
          "indexed": false,
          "internalType": "bool",
          "name": "approved",
          "type": "bool"
        }
      ],
      "name": "ApprovalForAll",
      "type": "event"
    },
    {
      "anonymous": false,
      "inputs": [
        {
          "indexed": false,
          "internalType": "uint256",
          "name": "tokenId",
          "type": "uint256"
        },
        {
          "indexed": false,
          "internalType": "string",
          "name": "name",
          "type": "string"
        }
      ],
      "name": "CharacterMint",
      "type": "event"
    },
    {
      "anonymous": false,
      "inputs": [
        {
          "indexed": false,
          "internalType": "uint256",
          "name": "playerRoll",
          "type": "uint256"
        },
        {
          "indexed": false,
          "internalType": "uint256",
          "name": "opponentRoll",
          "type": "uint256"
        },
        {
          "indexed": false,
          "internalType": "uint256",
          "name": "newPlayerFunds",
          "type": "uint256"
        },
        {
          "indexed": false,
          "internalType": "uint256",
          "name": "newOpponentFunds",
          "type": "uint256"
        }
      ],
      "name": "DiceRoll",
      "type": "event"
    },
    {
      "anonymous": false,
      "inputs": [
        {
          "indexed": true,
          "internalType": "address",
          "name": "from",
          "type": "address"
        },
        {
          "indexed": true,
          "internalType": "address",
          "name": "to",
          "type": "address"
        },
        {
          "indexed": true,
          "internalType": "uint256",
          "name": "tokenId",
          "type": "uint256"
        }
      ],
      "name": "Transfer",
      "type": "event"
    },
    {
      "inputs": [
        {
          "internalType": "address",
          "name": "to",
          "type": "address"
        },
        {
          "internalType": "uint256",
          "name": "tokenId",
          "type": "uint256"
        }
      ],
      "name": "approve",
      "outputs": [],
      "stateMutability": "nonpayable",
      "type": "function"
    },
    {
      "inputs": [
        {
          "internalType": "address",
          "name": "owner",
          "type": "address"
        }
      ],
      "name": "balanceOf",
      "outputs": [
        {
          "internalType": "uint256",
          "name": "",
          "type": "uint256"
        }
      ],
      "stateMutability": "view",
      "type": "function"
    },
    {
      "inputs": [
        {
          "internalType": "uint256",
          "name": "",
          "type": "uint256"
        }
      ],
      "name": "characterMetadata",
      "outputs": [
        {
          "internalType": "uint256",
          "name": "index",
          "type": "uint256"
        },
        {
          "internalType": "string",
          "name": "name",
          "type": "string"
        },
        {
          "internalType": "string",
          "name": "imageURI",
          "type": "string"
        },
        {
          "internalType": "uint256",
          "name": "maxFunds",
          "type": "uint256"
        },
        {
          "internalType": "uint256",
          "name": "currentFunds",
          "type": "uint256"
        },
        {
          "internalType": "uint256",
          "name": "wagerSize",
          "type": "uint256"
        }
      ],
      "stateMutability": "view",
      "type": "function"
    },
    {
      "inputs": [
        {
          "internalType": "uint256",
          "name": "tokenId",
          "type": "uint256"
        }
      ],
      "name": "getApproved",
      "outputs": [
        {
          "internalType": "address",
          "name": "",
          "type": "address"
        }
      ],
      "stateMutability": "view",
      "type": "function"
    },
    {
      "inputs": [],
      "name": "getDefaultCharacterTraits",
      "outputs": [
        {
          "components": [
            {
              "internalType": "uint256",
              "name": "index",
              "type": "uint256"
            },
            {
              "internalType": "string",
              "name": "name",
              "type": "string"
            },
            {
              "internalType": "string",
              "name": "imageURI",
              "type": "string"
            },
            {
              "internalType": "uint256",
              "name": "maxFunds",
              "type": "uint256"
            },
            {
              "internalType": "uint256",
              "name": "currentFunds",
              "type": "uint256"
            },
            {
              "internalType": "uint256",
              "name": "wagerSize",
              "type": "uint256"
            }
          ],
          "internalType": "struct Game.CharacterTraits[]",
          "name": "",
          "type": "tuple[]"
        }
      ],
      "stateMutability": "view",
      "type": "function"
    },
    {
      "inputs": [],
      "name": "getOpponent",
      "outputs": [
        {
          "components": [
            {
              "internalType": "string",
              "name": "name",
              "type": "string"
            },
            {
              "internalType": "string",
              "name": "imageURI",
              "type": "string"
            },
            {
              "internalType": "uint256",
              "name": "maxFunds",
              "type": "uint256"
            },
            {
              "internalType": "uint256",
              "name": "currentFunds",
              "type": "uint256"
            },
            {
              "internalType": "uint256",
              "name": "wagerSize",
              "type": "uint256"
            }
          ],
          "internalType": "struct Game.Opponent",
          "name": "",
          "type": "tuple"
        }
      ],
      "stateMutability": "view",
      "type": "function"
    },
    {
      "inputs": [],
      "name": "getUserNFT",
      "outputs": [
        {
          "components": [
            {
              "internalType": "uint256",
              "name": "index",
              "type": "uint256"
            },
            {
              "internalType": "string",
              "name": "name",
              "type": "string"
            },
            {
              "internalType": "string",
              "name": "imageURI",
              "type": "string"
            },
            {
              "internalType": "uint256",
              "name": "maxFunds",
              "type": "uint256"
            },
            {
              "internalType": "uint256",
              "name": "currentFunds",
              "type": "uint256"
            },
            {
              "internalType": "uint256",
              "name": "wagerSize",
              "type": "uint256"
            }
          ],
          "internalType": "struct Game.CharacterTraits",
          "name": "",
          "type": "tuple"
        }
      ],
      "stateMutability": "view",
      "type": "function"
    },
    {
      "inputs": [
        {
          "internalType": "address",
          "name": "owner",
          "type": "address"
        },
        {
          "internalType": "address",
          "name": "operator",
          "type": "address"
        }
      ],
      "name": "isApprovedForAll",
      "outputs": [
        {
          "internalType": "bool",
          "name": "",
          "type": "bool"
        }
      ],
      "stateMutability": "view",
      "type": "function"
    },
    {
      "inputs": [
        {
          "internalType": "uint256",
          "name": "_characterIndex",
          "type": "uint256"
        }
      ],
      "name": "mintCharacterNFT",
      "outputs": [],
      "stateMutability": "nonpayable",
      "type": "function"
    },
    {
      "inputs": [],
      "name": "name",
      "outputs": [
        {
          "internalType": "string",
          "name": "",
          "type": "string"
        }
      ],
      "stateMutability": "view",
      "type": "function"
    },
    {
      "inputs": [],
      "name": "opponent",
      "outputs": [
        {
          "internalType": "string",
          "name": "name",
          "type": "string"
        },
        {
          "internalType": "string",
          "name": "imageURI",
          "type": "string"
        },
        {
          "internalType": "uint256",
          "name": "maxFunds",
          "type": "uint256"
        },
        {
          "internalType": "uint256",
          "name": "currentFunds",
          "type": "uint256"
        },
        {
          "internalType": "uint256",
          "name": "wagerSize",
          "type": "uint256"
        }
      ],
      "stateMutability": "view",
      "type": "function"
    },
    {
      "inputs": [
        {
          "internalType": "address",
          "name": "",
          "type": "address"
        }
      ],
      "name": "ownerCharacterIds",
      "outputs": [
        {
          "internalType": "uint256",
          "name": "",
          "type": "uint256"
        }
      ],
      "stateMutability": "view",
      "type": "function"
    },
    {
      "inputs": [
        {
          "internalType": "uint256",
          "name": "tokenId",
          "type": "uint256"
        }
      ],
      "name": "ownerOf",
      "outputs": [
        {
          "internalType": "address",
          "name": "",
          "type": "address"
        }
      ],
      "stateMutability": "view",
      "type": "function"
    },
    {
      "inputs": [],
      "name": "rollTheDice",
      "outputs": [],
      "stateMutability": "nonpayable",
      "type": "function"
    },
    {
      "inputs": [
        {
          "internalType": "address",
          "name": "from",
          "type": "address"
        },
        {
          "internalType": "address",
          "name": "to",
          "type": "address"
        },
        {
          "internalType": "uint256",
          "name": "tokenId",
          "type": "uint256"
        }
      ],
      "name": "safeTransferFrom",
      "outputs": [],
      "stateMutability": "nonpayable",
      "type": "function"
    },
    {
      "inputs": [
        {
          "internalType": "address",
          "name": "from",
          "type": "address"
        },
        {
          "internalType": "address",
          "name": "to",
          "type": "address"
        },
        {
          "internalType": "uint256",
          "name": "tokenId",
          "type": "uint256"
        },
        {
          "internalType": "bytes",
          "name": "_data",
          "type": "bytes"
        }
      ],
      "name": "safeTransferFrom",
      "outputs": [],
      "stateMutability": "nonpayable",
      "type": "function"
    },
    {
      "inputs": [
        {
          "internalType": "address",
          "name": "operator",
          "type": "address"
        },
        {
          "internalType": "bool",
          "name": "approved",
          "type": "bool"
        }
      ],
      "name": "setApprovalForAll",
      "outputs": [],
      "stateMutability": "nonpayable",
      "type": "function"
    },
    {
      "inputs": [
        {
          "internalType": "bytes4",
          "name": "interfaceId",
          "type": "bytes4"
        }
      ],
      "name": "supportsInterface",
      "outputs": [
        {
          "internalType": "bool",
          "name": "",
          "type": "bool"
        }
      ],
      "stateMutability": "view",
      "type": "function"
    },
    {
      "inputs": [],
      "name": "symbol",
      "outputs": [
        {
          "internalType": "string",
          "name": "",
          "type": "string"
        }
      ],
      "stateMutability": "view",
      "type": "function"
    },
    {
      "inputs": [
        {
          "internalType": "uint256",
          "name": "_tokenId",
          "type": "uint256"
        }
      ],
      "name": "tokenURI",
      "outputs": [
        {
          "internalType": "string",
          "name": "",
          "type": "string"
        }
      ],
      "stateMutability": "view",
      "type": "function"
    },
    {
      "inputs": [
        {
          "internalType": "address",
          "name": "from",
          "type": "address"
        },
        {
          "internalType": "address",
          "name": "to",
          "type": "address"
        },
        {
          "internalType": "uint256",
          "name": "tokenId",
          "type": "uint256"
        }
      ],
      "name": "transferFrom",
      "outputs": [],
      "stateMutability": "nonpayable",
      "type": "function"
    }
  ],
  "bytecode": "0x60806040523480156200001157600080fd5b506040516200573b3803806200573b83398181016040528101906200003791906200075f565b6040518060400160405280600881526020017f4469636547616d650000000000000000000000000000000000000000000000008152506040518060400160405280600481526020017f44494345000000000000000000000000000000000000000000000000000000008152508160009080519060200190620000bb929190620004c7565b508060019080519060200190620000d4929190620004c7565b50505060005b8851811015620002ff5760076040518060c001604052808381526020018b848151811062000131577f4e487b7100000000000000000000000000000000000000000000000000000000600052603260045260246000fd5b602002602001015181526020018a848151811062000178577f4e487b7100000000000000000000000000000000000000000000000000000000600052603260045260246000fd5b60200260200101518152602001898481518110620001bf577f4e487b7100000000000000000000000000000000000000000000000000000000600052603260045260246000fd5b6020026020010151815260200189848151811062000206577f4e487b7100000000000000000000000000000000000000000000000000000000600052603260045260246000fd5b602002602001015181526020018884815181106200024d577f4e487b7100000000000000000000000000000000000000000000000000000000600052603260045260246000fd5b60200260200101518152509080600181540180825580915050600190039060005260206000209060060201600090919091909150600082015181600001556020820151816001019080519060200190620002a9929190620004c7565b506040820151816002019080519060200190620002c8929190620004c7565b50606082015181600301556080820151816004015560a0820151816005015550508080620002f69062000ac3565b915050620000da565b506040518060a00160405280858152602001848152602001838152602001838152602001828152506008600082015181600001908051906020019062000347929190620004c7565b50602082015181600101908051906020019062000366929190620004c7565b506040820151816002015560608201518160030155608082015181600401559050506200039f6006620003e260201b62001d451760201c565b620003d46040518060600160405280602e81526020016200570d602e9139600780549050620003f860201b62001d5b1760201c565b505050505050505062000bc9565b6001816000016000828254019250508190555050565b6200049a8282604051602401620004119291906200090a565b6040516020818303038152906040527f9710a9d0000000000000000000000000000000000000000000000000000000007bffffffffffffffffffffffffffffffffffffffffffffffffffffffff19166020820180517bffffffffffffffffffffffffffffffffffffffffffffffffffffffff83818316178352505050506200049e60201b60201c565b5050565b60008151905060006a636f6e736f6c652e6c6f679050602083016000808483855afa5050505050565b828054620004d59062000a57565b90600052602060002090601f016020900481019282620004f9576000855562000545565b82601f106200051457805160ff191683800117855562000545565b8280016001018555821562000545579182015b828111156200054457825182559160200191906001019062000527565b5b50905062000554919062000558565b5090565b5b808211156200057357600081600090555060010162000559565b5090565b60006200058e620005888462000967565b6200093e565b90508083825260208201905082856020860282011115620005ae57600080fd5b60005b85811015620005fd57815167ffffffffffffffff811115620005d257600080fd5b808601620005e189826200071b565b85526020850194506020840193505050600181019050620005b1565b5050509392505050565b60006200061e620006188462000996565b6200093e565b905080838252602082019050828560208602820111156200063e57600080fd5b60005b8581101562000672578162000657888262000748565b84526020840193506020830192505060018101905062000641565b5050509392505050565b6000620006936200068d84620009c5565b6200093e565b905082815260208101848484011115620006ac57600080fd5b620006b984828562000a21565b509392505050565b600082601f830112620006d357600080fd5b8151620006e584826020860162000577565b91505092915050565b600082601f8301126200070057600080fd5b81516200071284826020860162000607565b91505092915050565b600082601f8301126200072d57600080fd5b81516200073f8482602086016200067c565b91505092915050565b600081519050620007598162000baf565b92915050565b600080600080600080600080610100898b0312156200077d57600080fd5b600089015167ffffffffffffffff8111156200079857600080fd5b620007a68b828c01620006c1565b985050602089015167ffffffffffffffff811115620007c457600080fd5b620007d28b828c01620006c1565b975050604089015167ffffffffffffffff811115620007f057600080fd5b620007fe8b828c01620006ee565b965050606089015167ffffffffffffffff8111156200081c57600080fd5b6200082a8b828c01620006ee565b955050608089015167ffffffffffffffff8111156200084857600080fd5b620008568b828c016200071b565b94505060a089015167ffffffffffffffff8111156200087457600080fd5b620008828b828c016200071b565b93505060c0620008958b828c0162000748565b92505060e0620008a88b828c0162000748565b9150509295985092959890939650565b6000620008c582620009fb565b620008d1818562000a06565b9350620008e381856020860162000a21565b620008ee8162000b9e565b840191505092915050565b620009048162000a17565b82525050565b60006040820190508181036000830152620009268185620008b8565b9050620009376020830184620008f9565b9392505050565b60006200094a6200095d565b905062000958828262000a8d565b919050565b6000604051905090565b600067ffffffffffffffff82111562000985576200098462000b6f565b5b602082029050602081019050919050565b600067ffffffffffffffff821115620009b457620009b362000b6f565b5b602082029050602081019050919050565b600067ffffffffffffffff821115620009e357620009e262000b6f565b5b620009ee8262000b9e565b9050602081019050919050565b600081519050919050565b600082825260208201905092915050565b6000819050919050565b60005b8381101562000a4157808201518184015260208101905062000a24565b8381111562000a51576000848401525b50505050565b6000600282049050600182168062000a7057607f821691505b6020821081141562000a875762000a8662000b40565b5b50919050565b62000a988262000b9e565b810181811067ffffffffffffffff8211171562000aba5762000ab962000b6f565b5b80604052505050565b600062000ad08262000a17565b91507fffffffffffffffffffffffffffffffffffffffffffffffffffffffffffffffff82141562000b065762000b0562000b11565b5b600182019050919050565b7f4e487b7100000000000000000000000000000000000000000000000000000000600052601160045260246000fd5b7f4e487b7100000000000000000000000000000000000000000000000000000000600052602260045260246000fd5b7f4e487b7100000000000000000000000000000000000000000000000000000000600052604160045260246000fd5b6000601f19601f8301169050919050565b62000bba8162000a17565b811462000bc657600080fd5b50565b614b348062000bd96000396000f3fe608060405234801561001057600080fd5b50600436106101375760003560e01c806370a08231116100b8578063a22cb4651161007c578063a22cb46514610342578063b88d4fde1461035e578063c87b56dd1461037a578063e985e9c5146103aa578063edc12a28146103da578063f8b81ef71461040f57610137565b806370a08231146102aa57806378ec0e46146102da5780637d789dee146102f857806393694f671461030257806395d89b411461032457610137565b8063260fb0e2116100ff578063260fb0e2146101f257806334238d9314610222578063395800541461024057806342842e0e1461025e5780636352211e1461027a57610137565b806301ffc9a71461013c57806306fdde031461016c578063081812fc1461018a578063095ea7b3146101ba57806323b872dd146101d6575b600080fd5b6101566004803603810190610151919061314d565b61042b565b6040516101639190613a96565b60405180910390f35b61017461050d565b6040516101819190613ab1565b60405180910390f35b6101a4600480360381019061019f919061319f565b61059f565b6040516101b19190613a0d565b60405180910390f35b6101d460048036038101906101cf9190613111565b610624565b005b6101f060048036038101906101eb919061300b565b61073c565b005b61020c60048036038101906102079190612fa6565b61079c565b6040516102199190613e32565b60405180910390f35b61022a6107b4565b6040516102379190613dee565b60405180910390f35b61024861098c565b6040516102559190613e10565b60405180910390f35b6102786004803603810190610273919061300b565b610ae8565b005b610294600480360381019061028f919061319f565b610b08565b6040516102a19190613a0d565b60405180910390f35b6102c460048036038101906102bf9190612fa6565b610bba565b6040516102d19190613e32565b60405180910390f35b6102e2610c72565b6040516102ef9190613a74565b60405180910390f35b610300610e1d565b005b61030a6112c6565b60405161031b959493929190613ad3565b60405180910390f35b61032c6113fa565b6040516103399190613ab1565b60405180910390f35b61035c600480360381019061035791906130d5565b61148c565b005b6103786004803603810190610373919061305a565b6114a2565b005b610394600480360381019061038f919061319f565b611504565b6040516103a19190613ab1565b60405180910390f35b6103c460048036038101906103bf9190612fcf565b61171f565b6040516103d19190613a96565b60405180910390f35b6103f460048036038101906103ef919061319f565b6117b3565b60405161040696959493929190613e4d565b60405180910390f35b6104296004803603810190610424919061319f565b6118ff565b005b60007f80ac58cd000000000000000000000000000000000000000000000000000000007bffffffffffffffffffffffffffffffffffffffffffffffffffffffff1916827bffffffffffffffffffffffffffffffffffffffffffffffffffffffff191614806104f657507f5b5e139f000000000000000000000000000000000000000000000000000000007bffffffffffffffffffffffffffffffffffffffffffffffffffffffff1916827bffffffffffffffffffffffffffffffffffffffffffffffffffffffff1916145b80610506575061050582611df7565b5b9050919050565b60606000805461051c906141f4565b80601f0160208091040260200160405190810160405280929190818152602001828054610548906141f4565b80156105955780601f1061056a57610100808354040283529160200191610595565b820191906000526020600020905b81548152906001019060200180831161057857829003601f168201915b5050505050905090565b60006105aa82611e61565b6105e9576040517f08c379a00000000000000000000000000000000000000000000000000000000081526004016105e090613d4e565b60405180910390fd5b6004600083815260200190815260200160002060009054906101000a900473ffffffffffffffffffffffffffffffffffffffff169050919050565b600061062f82610b08565b90508073ffffffffffffffffffffffffffffffffffffffff168373ffffffffffffffffffffffffffffffffffffffff1614156106a0576040517f08c379a000000000000000000000000000000000000000000000000000000000815260040161069790613d8e565b60405180910390fd5b8073ffffffffffffffffffffffffffffffffffffffff166106bf611ecd565b73ffffffffffffffffffffffffffffffffffffffff1614806106ee57506106ed816106e8611ecd565b61171f565b5b61072d576040517f08c379a000000000000000000000000000000000000000000000000000000000815260040161072490613cae565b60405180910390fd5b6107378383611ed5565b505050565b61074d610747611ecd565b82611f8e565b61078c576040517f08c379a000000000000000000000000000000000000000000000000000000000815260040161078390613dae565b60405180910390fd5b61079783838361206c565b505050565b600e6020528060005260406000206000915090505481565b6107bc612dcd565b6000600e60003373ffffffffffffffffffffffffffffffffffffffff1673ffffffffffffffffffffffffffffffffffffffff168152602001908152602001600020549050600081141561081b57610811612dcd565b8092505050610989565b600d60008281526020019081526020016000206040518060c001604052908160008201548152602001600182018054610853906141f4565b80601f016020809104026020016040519081016040528092919081815260200182805461087f906141f4565b80156108cc5780601f106108a1576101008083540402835291602001916108cc565b820191906000526020600020905b8154815290600101906020018083116108af57829003601f168201915b505050505081526020016002820180546108e5906141f4565b80601f0160208091040260200160405190810160405280929190818152602001828054610911906141f4565b801561095e5780601f106109335761010080835404028352916020019161095e565b820191906000526020600020905b81548152906001019060200180831161094157829003601f168201915b5050505050815260200160038201548152602001600482015481526020016005820154815250509150505b90565b610994612e03565b60086040518060a00160405290816000820180546109b1906141f4565b80601f01602080910402602001604051908101604052809291908181526020018280546109dd906141f4565b8015610a2a5780601f106109ff57610100808354040283529160200191610a2a565b820191906000526020600020905b815481529060010190602001808311610a0d57829003601f168201915b50505050508152602001600182018054610a43906141f4565b80601f0160208091040260200160405190810160405280929190818152602001828054610a6f906141f4565b8015610abc5780601f10610a9157610100808354040283529160200191610abc565b820191906000526020600020905b815481529060010190602001808311610a9f57829003601f168201915b505050505081526020016002820154815260200160038201548152602001600482015481525050905090565b610b03838383604051806020016040528060008152506114a2565b505050565b6000806002600084815260200190815260200160002060009054906101000a900473ffffffffffffffffffffffffffffffffffffffff169050600073ffffffffffffffffffffffffffffffffffffffff168173ffffffffffffffffffffffffffffffffffffffff161415610bb1576040517f08c379a0000000000000000000000000000000000000000000000000000000008152600401610ba890613cee565b60405180910390fd5b80915050919050565b60008073ffffffffffffffffffffffffffffffffffffffff168273ffffffffffffffffffffffffffffffffffffffff161415610c2b576040517f08c379a0000000000000000000000000000000000000000000000000000000008152600401610c2290613cce565b60405180910390fd5b600360008373ffffffffffffffffffffffffffffffffffffffff1673ffffffffffffffffffffffffffffffffffffffff168152602001908152602001600020549050919050565b60606007805480602002602001604051908101604052809291908181526020016000905b82821015610e1457838290600052602060002090600602016040518060c001604052908160008201548152602001600182018054610cd3906141f4565b80601f0160208091040260200160405190810160405280929190818152602001828054610cff906141f4565b8015610d4c5780601f10610d2157610100808354040283529160200191610d4c565b820191906000526020600020905b815481529060010190602001808311610d2f57829003601f168201915b50505050508152602001600282018054610d65906141f4565b80601f0160208091040260200160405190810160405280929190818152602001828054610d91906141f4565b8015610dde5780601f10610db357610100808354040283529160200191610dde565b820191906000526020600020905b815481529060010190602001808311610dc157829003601f168201915b50505050508152602001600382015481526020016004820154815260200160058201548152505081526020019060010190610c96565b50505050905090565b6000600e60003373ffffffffffffffffffffffffffffffffffffffff1673ffffffffffffffffffffffffffffffffffffffff1681526020019081526020016000205490506000600d6000838152602001908152602001600020905060008211610ebb576040517f08c379a0000000000000000000000000000000000000000000000000000000008152600401610eb290613d2e565b60405180910390fd5b6000816004015411610f02576040517f08c379a0000000000000000000000000000000000000000000000000000000008152600401610ef990613c2e565b60405180910390fd5b600060086003015411610f4a576040517f08c379a0000000000000000000000000000000000000000000000000000000008152600401610f4190613dce565b60405180910390fd5b610f7a604051806080016040528060538152602001614aac605391398260040154836003015484600501546122c8565b610fad604051806060016040528060218152602001614a8b602191396008600301546008600201546008600401546122c8565b6000805b808214156110ed5761104e836001018054610fcb906141f4565b80601f0160208091040260200160405190810160405280929190818152602001828054610ff7906141f4565b80156110445780601f1061101957610100808354040283529160200191611044565b820191906000526020600020905b81548152906001019060200180831161102757829003601f168201915b505050505061236a565b91506110e660086000018054611063906141f4565b80601f016020809104026020016040519081016040528092919081815260200182805461108f906141f4565b80156110dc5780601f106110b1576101008083540402835291602001916110dc565b820191906000526020600020905b8154815290600101906020018083116110bf57829003601f168201915b505050505061236a565b9050610fb1565b61112c6040518060400160405280600f81526020017f706c6179657220726f6c6c3a202573000000000000000000000000000000000081525083611d5b565b61116b6040518060400160405280601181526020017f6f70706f6e656e7420726f6c6c3a20257300000000000000000000000000000081525082611d5b565b808211156111fb57600860040154600860030154106111ca5760086004015483600401600082825461119d9190614029565b92505081905550600860040154600860030160008282546111be919061410a565b925050819055506111f6565b6008600301548360040160008282546111e39190614029565b9250508190555060006008600301819055505b61127a565b826005015483600401541061124e578260050154600860030160008282546112239190614029565b925050819055508260050154836004016000828254611242919061410a565b92505081905550611279565b8260040154600860030160008282546112679190614029565b92505081905550600083600401819055505b5b7f3cd893162d41661546f77aea41b5283e8bc86f53fefd1e869ea2ca88d1fedb36828285600401546008600301546040516112b89493929190613eec565b60405180910390a150505050565b60088060000180546112d7906141f4565b80601f0160208091040260200160405190810160405280929190818152602001828054611303906141f4565b80156113505780601f1061132557610100808354040283529160200191611350565b820191906000526020600020905b81548152906001019060200180831161133357829003601f168201915b505050505090806001018054611365906141f4565b80601f0160208091040260200160405190810160405280929190818152602001828054611391906141f4565b80156113de5780601f106113b3576101008083540402835291602001916113de565b820191906000526020600020905b8154815290600101906020018083116113c157829003601f168201915b5050505050908060020154908060030154908060040154905085565b606060018054611409906141f4565b80601f0160208091040260200160405190810160405280929190818152602001828054611435906141f4565b80156114825780601f1061145757610100808354040283529160200191611482565b820191906000526020600020905b81548152906001019060200180831161146557829003601f168201915b5050505050905090565b61149e611497611ecd565b83836123cd565b5050565b6114b36114ad611ecd565b83611f8e565b6114f2576040517f08c379a00000000000000000000000000000000000000000000000000000000081526004016114e990613dae565b60405180910390fd5b6114fe8484848461253a565b50505050565b60606000600d60008481526020019081526020016000206040518060c001604052908160008201548152602001600182018054611540906141f4565b80601f016020809104026020016040519081016040528092919081815260200182805461156c906141f4565b80156115b95780601f1061158e576101008083540402835291602001916115b9565b820191906000526020600020905b81548152906001019060200180831161159c57829003601f168201915b505050505081526020016002820180546115d2906141f4565b80601f01602080910402602001604051908101604052809291908181526020018280546115fe906141f4565b801561164b5780601f106116205761010080835404028352916020019161164b565b820191906000526020600020905b81548152906001019060200180831161162e57829003601f168201915b505050505081526020016003820154815260200160048201548152602001600582015481525050905060006116838260800151612596565b905060006116948360600151612596565b905060006116a58460a00151612596565b905060006116eb85602001516116ba89612596565b87604001518787876040516020016116d7969594939291906138fc565b604051602081830303815290604052612743565b905060008160405160200161170091906139a1565b6040516020818303038152906040529050809650505050505050919050565b6000600560008473ffffffffffffffffffffffffffffffffffffffff1673ffffffffffffffffffffffffffffffffffffffff16815260200190815260200160002060008373ffffffffffffffffffffffffffffffffffffffff1673ffffffffffffffffffffffffffffffffffffffff16815260200190815260200160002060009054906101000a900460ff16905092915050565b600d6020528060005260406000206000915090508060000154908060010180546117dc906141f4565b80601f0160208091040260200160405190810160405280929190818152602001828054611808906141f4565b80156118555780601f1061182a57610100808354040283529160200191611855565b820191906000526020600020905b81548152906001019060200180831161183857829003601f168201915b50505050509080600201805461186a906141f4565b80601f0160208091040260200160405190810160405280929190818152602001828054611896906141f4565b80156118e35780601f106118b8576101008083540402835291602001916118e3565b820191906000526020600020905b8154815290600101906020018083116118c657829003601f168201915b5050505050908060030154908060040154908060050154905086565b600061190b6006612901565b9050611917338261290f565b6040518060c0016040528083815260200160078481548110611962577f4e487b7100000000000000000000000000000000000000000000000000000000600052603260045260246000fd5b9060005260206000209060060201600101805461197e906141f4565b80601f01602080910402602001604051908101604052809291908181526020018280546119aa906141f4565b80156119f75780601f106119cc576101008083540402835291602001916119f7565b820191906000526020600020905b8154815290600101906020018083116119da57829003601f168201915b5050505050815260200160078481548110611a3b577f4e487b7100000000000000000000000000000000000000000000000000000000600052603260045260246000fd5b90600052602060002090600602016002018054611a57906141f4565b80601f0160208091040260200160405190810160405280929190818152602001828054611a83906141f4565b8015611ad05780601f10611aa557610100808354040283529160200191611ad0565b820191906000526020600020905b815481529060010190602001808311611ab357829003601f168201915b5050505050815260200160078481548110611b14577f4e487b7100000000000000000000000000000000000000000000000000000000600052603260045260246000fd5b906000526020600020906006020160030154815260200160078481548110611b65577f4e487b7100000000000000000000000000000000000000000000000000000000600052603260045260246000fd5b906000526020600020906006020160040154815260200160078481548110611bb6577f4e487b7100000000000000000000000000000000000000000000000000000000600052603260045260246000fd5b906000526020600020906006020160050154815250600d6000838152602001908152602001600020600082015181600001556020820151816001019080519060200190611c04929190612e32565b506040820151816002019080519060200190611c21929190612e32565b50606082015181600301556080820151816004015560a08201518160050155905050611c826040518060400160405280601281526020017f6d696e74696e6720746f6b656e4964202573000000000000000000000000000081525082611d5b565b80600e60003373ffffffffffffffffffffffffffffffffffffffff1673ffffffffffffffffffffffffffffffffffffffff16815260200190815260200160002081905550611cd06006611d45565b611cf3604051806060016040528060298152602001614a2260299139828461292d565b7fc9dc0d748de6a54ef1529cd1523f557ed80e6d09527ebd7e014006b92c42396e81600d6000848152602001908152602001600020600101604051611d39929190613ebc565b60405180910390a15050565b6001816000016000828254019250508190555050565b611df38282604051602401611d71929190613b34565b6040516020818303038152906040527f9710a9d0000000000000000000000000000000000000000000000000000000007bffffffffffffffffffffffffffffffffffffffffffffffffffffffff19166020820180517bffffffffffffffffffffffffffffffffffffffffffffffffffffffff83818316178352505050506129cc565b5050565b60007f01ffc9a7000000000000000000000000000000000000000000000000000000007bffffffffffffffffffffffffffffffffffffffffffffffffffffffff1916827bffffffffffffffffffffffffffffffffffffffffffffffffffffffff1916149050919050565b60008073ffffffffffffffffffffffffffffffffffffffff166002600084815260200190815260200160002060009054906101000a900473ffffffffffffffffffffffffffffffffffffffff1673ffffffffffffffffffffffffffffffffffffffff1614159050919050565b600033905090565b816004600083815260200190815260200160002060006101000a81548173ffffffffffffffffffffffffffffffffffffffff021916908373ffffffffffffffffffffffffffffffffffffffff160217905550808273ffffffffffffffffffffffffffffffffffffffff16611f4883610b08565b73ffffffffffffffffffffffffffffffffffffffff167f8c5be1e5ebec7d5bd14f71427d1e84f3dd0314c0f7b2291e5b200ac8c7c3b92560405160405180910390a45050565b6000611f9982611e61565b611fd8576040517f08c379a0000000000000000000000000000000000000000000000000000000008152600401611fcf90613c8e565b60405180910390fd5b6000611fe383610b08565b90508073ffffffffffffffffffffffffffffffffffffffff168473ffffffffffffffffffffffffffffffffffffffff16148061205257508373ffffffffffffffffffffffffffffffffffffffff1661203a8461059f565b73ffffffffffffffffffffffffffffffffffffffff16145b806120635750612062818561171f565b5b91505092915050565b8273ffffffffffffffffffffffffffffffffffffffff1661208c82610b08565b73ffffffffffffffffffffffffffffffffffffffff16146120e2576040517f08c379a00000000000000000000000000000000000000000000000000000000081526004016120d990613d6e565b60405180910390fd5b600073ffffffffffffffffffffffffffffffffffffffff168273ffffffffffffffffffffffffffffffffffffffff161415612152576040517f08c379a000000000000000000000000000000000000000000000000000000000815260040161214990613c4e565b60405180910390fd5b61215d8383836129f5565b612168600082611ed5565b6001600360008573ffffffffffffffffffffffffffffffffffffffff1673ffffffffffffffffffffffffffffffffffffffff16815260200190815260200160002060008282546121b8919061410a565b925050819055506001600360008473ffffffffffffffffffffffffffffffffffffffff1673ffffffffffffffffffffffffffffffffffffffff168152602001908152602001600020600082825461220f9190614029565b92505081905550816002600083815260200190815260200160002060006101000a81548173ffffffffffffffffffffffffffffffffffffffff021916908373ffffffffffffffffffffffffffffffffffffffff160217905550808273ffffffffffffffffffffffffffffffffffffffff168473ffffffffffffffffffffffffffffffffffffffff167fddf252ad1be2c89b69c2b068fc378daa952ba7f163c4a11628f55a4df523b3ef60405160405180910390a4505050565b612364848484846040516024016122e29493929190613ba2565b6040516020818303038152906040527f08ee5666000000000000000000000000000000000000000000000000000000007bffffffffffffffffffffffffffffffffffffffffffffffffffffffff19166020820180517bffffffffffffffffffffffffffffffffffffffffffffffffffffffff83818316178352505050506129cc565b50505050565b60008061010d4244853360405160200161238794939291906139c3565b6040516020818303038152906040528051906020012060001c6123aa91906142ce565b90506002600b826123bb91906142ce565b6123c59190614029565b915050919050565b8173ffffffffffffffffffffffffffffffffffffffff168373ffffffffffffffffffffffffffffffffffffffff16141561243c576040517f08c379a000000000000000000000000000000000000000000000000000000000815260040161243390613c6e565b60405180910390fd5b80600560008573ffffffffffffffffffffffffffffffffffffffff1673ffffffffffffffffffffffffffffffffffffffff16815260200190815260200160002060008473ffffffffffffffffffffffffffffffffffffffff1673ffffffffffffffffffffffffffffffffffffffff16815260200190815260200160002060006101000a81548160ff0219169083151502179055508173ffffffffffffffffffffffffffffffffffffffff168373ffffffffffffffffffffffffffffffffffffffff167f17307eab39ab6107e8899845ad3d59bd9653f200f220920489ca2b5937696c318360405161252d9190613a96565b60405180910390a3505050565b61254584848461206c565b612551848484846129fa565b612590576040517f08c379a000000000000000000000000000000000000000000000000000000000815260040161258790613bee565b60405180910390fd5b50505050565b606060008214156125de576040518060400160405280600181526020017f3000000000000000000000000000000000000000000000000000000000000000815250905061273e565b600082905060005b600082146126105780806125f990614257565b915050600a82612609919061407f565b91506125e6565b60008167ffffffffffffffff811115612652577f4e487b7100000000000000000000000000000000000000000000000000000000600052604160045260246000fd5b6040519080825280601f01601f1916602001820160405280156126845781602001600182028036833780820191505090505b5090505b600085146127375760018261269d919061410a565b9150600a856126ac91906142ce565b60306126b89190614029565b60f81b8183815181106126f4577f4e487b7100000000000000000000000000000000000000000000000000000000600052603260045260246000fd5b60200101907effffffffffffffffffffffffffffffffffffffffffffffffffffffffffffff1916908160001a905350600a85612730919061407f565b9450612688565b8093505050505b919050565b6060600082519050600081141561276c57604051806020016040528060008152509150506128fc565b6000600360028361277d9190614029565b612787919061407f565b600461279391906140b0565b905060006020826127a49190614029565b67ffffffffffffffff8111156127e3577f4e487b7100000000000000000000000000000000000000000000000000000000600052604160045260246000fd5b6040519080825280601f01601f1916602001820160405280156128155781602001600182028036833780820191505090505b5090506000604051806060016040528060408152602001614a4b604091399050600181016020830160005b868110156128b95760038101905062ffffff818a015116603f8160121c168401518060081b905060ff603f83600c1c1686015116810190508060081b905060ff603f8360061c1686015116810190508060081b905060ff603f831686015116810190508060e01b90508084526004840193505050612840565b5060038606600181146128d357600281146128e3576128ee565b613d3d60f01b60028303526128ee565b603d60f81b60018303525b508484525050819450505050505b919050565b600081600001549050919050565b612929828260405180602001604052806000815250612b91565b5050565b6129c783838360405160240161294593929190613b64565b6040516020818303038152906040527f969cdd03000000000000000000000000000000000000000000000000000000007bffffffffffffffffffffffffffffffffffffffffffffffffffffffff19166020820180517bffffffffffffffffffffffffffffffffffffffffffffffffffffffff83818316178352505050506129cc565b505050565b60008151905060006a636f6e736f6c652e6c6f679050602083016000808483855afa5050505050565b505050565b6000612a1b8473ffffffffffffffffffffffffffffffffffffffff16612bec565b15612b84578373ffffffffffffffffffffffffffffffffffffffff1663150b7a02612a44611ecd565b8786866040518563ffffffff1660e01b8152600401612a669493929190613a28565b602060405180830381600087803b158015612a8057600080fd5b505af1925050508015612ab157506040513d601f19601f82011682018060405250810190612aae9190613176565b60015b612b34573d8060008114612ae1576040519150601f19603f3d011682016040523d82523d6000602084013e612ae6565b606091505b50600081511415612b2c576040517f08c379a0000000000000000000000000000000000000000000000000000000008152600401612b2390613bee565b60405180910390fd5b805181602001fd5b63150b7a0260e01b7bffffffffffffffffffffffffffffffffffffffffffffffffffffffff1916817bffffffffffffffffffffffffffffffffffffffffffffffffffffffff191614915050612b89565b600190505b949350505050565b612b9b8383612bff565b612ba860008484846129fa565b612be7576040517f08c379a0000000000000000000000000000000000000000000000000000000008152600401612bde90613bee565b60405180910390fd5b505050565b600080823b905060008111915050919050565b600073ffffffffffffffffffffffffffffffffffffffff168273ffffffffffffffffffffffffffffffffffffffff161415612c6f576040517f08c379a0000000000000000000000000000000000000000000000000000000008152600401612c6690613d0e565b60405180910390fd5b612c7881611e61565b15612cb8576040517f08c379a0000000000000000000000000000000000000000000000000000000008152600401612caf90613c0e565b60405180910390fd5b612cc4600083836129f5565b6001600360008473ffffffffffffffffffffffffffffffffffffffff1673ffffffffffffffffffffffffffffffffffffffff1681526020019081526020016000206000828254612d149190614029565b92505081905550816002600083815260200190815260200160002060006101000a81548173ffffffffffffffffffffffffffffffffffffffff021916908373ffffffffffffffffffffffffffffffffffffffff160217905550808273ffffffffffffffffffffffffffffffffffffffff16600073ffffffffffffffffffffffffffffffffffffffff167fddf252ad1be2c89b69c2b068fc378daa952ba7f163c4a11628f55a4df523b3ef60405160405180910390a45050565b6040518060c001604052806000815260200160608152602001606081526020016000815260200160008152602001600081525090565b6040518060a0016040528060608152602001606081526020016000815260200160008152602001600081525090565b828054612e3e906141f4565b90600052602060002090601f016020900481019282612e605760008555612ea7565b82601f10612e7957805160ff1916838001178555612ea7565b82800160010185558215612ea7579182015b82811115612ea6578251825591602001919060010190612e8b565b5b509050612eb49190612eb8565b5090565b5b80821115612ed1576000816000905550600101612eb9565b5090565b6000612ee8612ee384613f56565b613f31565b905082815260208101848484011115612f0057600080fd5b612f0b8482856141b2565b509392505050565b600081359050612f22816149c5565b92915050565b600081359050612f37816149dc565b92915050565b600081359050612f4c816149f3565b92915050565b600081519050612f61816149f3565b92915050565b600082601f830112612f7857600080fd5b8135612f88848260208601612ed5565b91505092915050565b600081359050612fa081614a0a565b92915050565b600060208284031215612fb857600080fd5b6000612fc684828501612f13565b91505092915050565b60008060408385031215612fe257600080fd5b6000612ff085828601612f13565b925050602061300185828601612f13565b9150509250929050565b60008060006060848603121561302057600080fd5b600061302e86828701612f13565b935050602061303f86828701612f13565b925050604061305086828701612f91565b9150509250925092565b6000806000806080858703121561307057600080fd5b600061307e87828801612f13565b945050602061308f87828801612f13565b93505060406130a087828801612f91565b925050606085013567ffffffffffffffff8111156130bd57600080fd5b6130c987828801612f67565b91505092959194509250565b600080604083850312156130e857600080fd5b60006130f685828601612f13565b925050602061310785828601612f28565b9150509250929050565b6000806040838503121561312457600080fd5b600061313285828601612f13565b925050602061314385828601612f91565b9150509250929050565b60006020828403121561315f57600080fd5b600061316d84828501612f3d565b91505092915050565b60006020828403121561318857600080fd5b600061319684828501612f52565b91505092915050565b6000602082840312156131b157600080fd5b60006131bf84828501612f91565b91505092915050565b60006131d4838361372a565b905092915050565b6131e58161413e565b82525050565b6131fc6131f78261413e565b6142a0565b82525050565b600061320d82613fac565b6132178185613fda565b93508360208202850161322985613f87565b8060005b85811015613265578484038952815161324685826131c8565b945061325183613fcd565b925060208a0199505060018101905061322d565b50829750879550505050505092915050565b61328081614150565b82525050565b600061329182613fb7565b61329b8185613feb565b93506132ab8185602086016141c1565b6132b4816143bb565b840191505092915050565b60006132ca82613fc2565b6132d48185613ffc565b93506132e48185602086016141c1565b6132ed816143bb565b840191505092915050565b600061330382613fc2565b61330d818561400d565b935061331d8185602086016141c1565b613326816143bb565b840191505092915050565b600061333c82613fc2565b613346818561401e565b93506133568185602086016141c1565b80840191505092915050565b6000815461336f816141f4565b613379818661400d565b9450600182166000811461339457600181146133a6576133d9565b60ff19831686526020860193506133d9565b6133af85613f97565b60005b838110156133d1578154818901526001820191506020810190506133b2565b808801955050505b50505092915050565b60006133ef600b8361401e565b91506133fa826143d9565b600b82019050919050565b600061341260328361400d565b915061341d82614402565b604082019050919050565b6000613435601c8361400d565b915061344082614451565b602082019050919050565b600061345860358361401e565b91506134638261447a565b603582019050919050565b600061347b60138361400d565b9150613486826144c9565b602082019050919050565b600061349e600e8361401e565b91506134a9826144f2565b600e82019050919050565b60006134c160248361400d565b91506134cc8261451b565b604082019050919050565b60006134e460198361400d565b91506134ef8261456a565b602082019050919050565b6000613507602a8361401e565b915061351282614593565b602a82019050919050565b600061352a602c8361400d565b9150613535826145e2565b604082019050919050565b600061354d60388361400d565b915061355882614631565b604082019050919050565b6000613570602a8361400d565b915061357b82614680565b604082019050919050565b600061359360298361400d565b915061359e826146cf565b604082019050919050565b60006135b660048361401e565b91506135c18261471e565b600482019050919050565b60006135d960208361400d565b91506135e482614747565b602082019050919050565b60006135fc601d8361400d565b915061360782614770565b602082019050919050565b600061361f602c8361400d565b915061362a82614799565b604082019050919050565b600061364260298361400d565b915061364d826147e8565b604082019050919050565b6000613665600a8361401e565b915061367082614837565b600a82019050919050565b600061368860218361400d565b915061369382614860565b604082019050919050565b60006136ab601d8361401e565b91506136b6826148af565b601d82019050919050565b60006136ce60318361400d565b91506136d9826148d8565b604082019050919050565b60006136f160478361401e565b91506136fc82614927565b604782019050919050565b600061371460158361400d565b915061371f8261499c565b602082019050919050565b600060c08301600083015161374260008601826138c7565b506020830151848203602086015261375a82826132bf565b9150506040830151848203604086015261377482826132bf565b915050606083015161378960608601826138c7565b50608083015161379c60808601826138c7565b5060a08301516137af60a08601826138c7565b508091505092915050565b600060c0830160008301516137d260008601826138c7565b50602083015184820360208601526137ea82826132bf565b9150506040830151848203604086015261380482826132bf565b915050606083015161381960608601826138c7565b50608083015161382c60808601826138c7565b5060a083015161383f60a08601826138c7565b508091505092915050565b600060a083016000830151848203600086015261386782826132bf565b9150506020830151848203602086015261388182826132bf565b915050604083015161389660408601826138c7565b5060608301516138a960608601826138c7565b5060808301516138bc60808601826138c7565b508091505092915050565b6138d0816141a8565b82525050565b6138df816141a8565b82525050565b6138f66138f1826141a8565b6142c4565b82525050565b600061390782613658565b91506139138289613331565b915061391e826133e2565b915061392a8288613331565b9150613935826136e4565b91506139418287613331565b915061394c8261344b565b91506139588286613331565b915061396382613491565b915061396f8285613331565b915061397a826134fa565b91506139868284613331565b9150613991826135a9565b9150819050979650505050505050565b60006139ac8261369e565b91506139b88284613331565b915081905092915050565b60006139cf82876138e5565b6020820191506139df82866138e5565b6020820191506139ef8285613331565b91506139fb82846131eb565b60148201915081905095945050505050565b6000602082019050613a2260008301846131dc565b92915050565b6000608082019050613a3d60008301876131dc565b613a4a60208301866131dc565b613a5760408301856138d6565b8181036060830152613a698184613286565b905095945050505050565b60006020820190508181036000830152613a8e8184613202565b905092915050565b6000602082019050613aab6000830184613277565b92915050565b60006020820190508181036000830152613acb81846132f8565b905092915050565b600060a0820190508181036000830152613aed81886132f8565b90508181036020830152613b0181876132f8565b9050613b1060408301866138d6565b613b1d60608301856138d6565b613b2a60808301846138d6565b9695505050505050565b60006040820190508181036000830152613b4e81856132f8565b9050613b5d60208301846138d6565b9392505050565b60006060820190508181036000830152613b7e81866132f8565b9050613b8d60208301856138d6565b613b9a60408301846138d6565b949350505050565b60006080820190508181036000830152613bbc81876132f8565b9050613bcb60208301866138d6565b613bd860408301856138d6565b613be560608301846138d6565b95945050505050565b60006020820190508181036000830152613c0781613405565b9050919050565b60006020820190508181036000830152613c2781613428565b9050919050565b60006020820190508181036000830152613c478161346e565b9050919050565b60006020820190508181036000830152613c67816134b4565b9050919050565b60006020820190508181036000830152613c87816134d7565b9050919050565b60006020820190508181036000830152613ca78161351d565b9050919050565b60006020820190508181036000830152613cc781613540565b9050919050565b60006020820190508181036000830152613ce781613563565b9050919050565b60006020820190508181036000830152613d0781613586565b9050919050565b60006020820190508181036000830152613d27816135cc565b9050919050565b60006020820190508181036000830152613d47816135ef565b9050919050565b60006020820190508181036000830152613d6781613612565b9050919050565b60006020820190508181036000830152613d8781613635565b9050919050565b60006020820190508181036000830152613da78161367b565b9050919050565b60006020820190508181036000830152613dc7816136c1565b9050919050565b60006020820190508181036000830152613de781613707565b9050919050565b60006020820190508181036000830152613e0881846137ba565b905092915050565b60006020820190508181036000830152613e2a818461384a565b905092915050565b6000602082019050613e4760008301846138d6565b92915050565b600060c082019050613e6260008301896138d6565b8181036020830152613e7481886132f8565b90508181036040830152613e8881876132f8565b9050613e9760608301866138d6565b613ea460808301856138d6565b613eb160a08301846138d6565b979650505050505050565b6000604082019050613ed160008301856138d6565b8181036020830152613ee38184613362565b90509392505050565b6000608082019050613f0160008301876138d6565b613f0e60208301866138d6565b613f1b60408301856138d6565b613f2860608301846138d6565b95945050505050565b6000613f3b613f4c565b9050613f478282614226565b919050565b6000604051905090565b600067ffffffffffffffff821115613f7157613f7061438c565b5b613f7a826143bb565b9050602081019050919050565b6000819050602082019050919050565b60008190508160005260206000209050919050565b600081519050919050565b600081519050919050565b600081519050919050565b6000602082019050919050565b600082825260208201905092915050565b600082825260208201905092915050565b600082825260208201905092915050565b600082825260208201905092915050565b600081905092915050565b6000614034826141a8565b915061403f836141a8565b9250827fffffffffffffffffffffffffffffffffffffffffffffffffffffffffffffffff03821115614074576140736142ff565b5b828201905092915050565b600061408a826141a8565b9150614095836141a8565b9250826140a5576140a461432e565b5b828204905092915050565b60006140bb826141a8565b91506140c6836141a8565b9250817fffffffffffffffffffffffffffffffffffffffffffffffffffffffffffffffff04831182151516156140ff576140fe6142ff565b5b828202905092915050565b6000614115826141a8565b9150614120836141a8565b925082821015614133576141326142ff565b5b828203905092915050565b600061414982614188565b9050919050565b60008115159050919050565b60007fffffffff0000000000000000000000000000000000000000000000000000000082169050919050565b600073ffffffffffffffffffffffffffffffffffffffff82169050919050565b6000819050919050565b82818337600083830152505050565b60005b838110156141df5780820151818401526020810190506141c4565b838111156141ee576000848401525b50505050565b6000600282049050600182168061420c57607f821691505b602082108114156142205761421f61435d565b5b50919050565b61422f826143bb565b810181811067ffffffffffffffff8211171561424e5761424d61438c565b5b80604052505050565b6000614262826141a8565b91507fffffffffffffffffffffffffffffffffffffffffffffffffffffffffffffffff821415614295576142946142ff565b5b600182019050919050565b60006142ab826142b2565b9050919050565b60006142bd826143cc565b9050919050565b6000819050919050565b60006142d9826141a8565b91506142e4836141a8565b9250826142f4576142f361432e565b5b828206905092915050565b7f4e487b7100000000000000000000000000000000000000000000000000000000600052601160045260246000fd5b7f4e487b7100000000000000000000000000000000000000000000000000000000600052601260045260246000fd5b7f4e487b7100000000000000000000000000000000000000000000000000000000600052602260045260246000fd5b7f4e487b7100000000000000000000000000000000000000000000000000000000600052604160045260246000fd5b6000601f19601f8301169050919050565b60008160601b9050919050565b7f202d2d204e465420233a20000000000000000000000000000000000000000000600082015250565b7f4552433732313a207472616e7366657220746f206e6f6e20455243373231526560008201527f63656976657220696d706c656d656e7465720000000000000000000000000000602082015250565b7f4552433732313a20746f6b656e20616c7265616479206d696e74656400000000600082015250565b7f222c202261747472696275746573223a205b207b202274726169745f7479706560008201527f223a202246756e6473222c202276616c7565223a200000000000000000000000602082015250565b7f706c6179657220686173206e6f2066756e647300000000000000000000000000600082015250565b7f2c20226d61785f76616c7565223a000000000000000000000000000000000000600082015250565b7f4552433732313a207472616e7366657220746f20746865207a65726f2061646460008201527f7265737300000000000000000000000000000000000000000000000000000000602082015250565b7f4552433732313a20617070726f766520746f2063616c6c657200000000000000600082015250565b7f7d2c207b202274726169745f74797065223a202257616765722053697a65222c60008201527f202276616c7565223a2000000000000000000000000000000000000000000000602082015250565b7f4552433732313a206f70657261746f7220717565727920666f72206e6f6e657860008201527f697374656e7420746f6b656e0000000000000000000000000000000000000000602082015250565b7f4552433732313a20617070726f76652063616c6c6572206973206e6f74206f7760008201527f6e6572206e6f7220617070726f76656420666f7220616c6c0000000000000000602082015250565b7f4552433732313a2062616c616e636520717565727920666f7220746865207a6560008201527f726f206164647265737300000000000000000000000000000000000000000000602082015250565b7f4552433732313a206f776e657220717565727920666f72206e6f6e657869737460008201527f656e7420746f6b656e0000000000000000000000000000000000000000000000602082015250565b7f7d205d7d00000000000000000000000000000000000000000000000000000000600082015250565b7f4552433732313a206d696e7420746f20746865207a65726f2061646472657373600082015250565b7f4e6f204e465420666f756e6420666f7220746869732061646472657373000000600082015250565b7f4552433732313a20617070726f76656420717565727920666f72206e6f6e657860008201527f697374656e7420746f6b656e0000000000000000000000000000000000000000602082015250565b7f4552433732313a207472616e73666572206f6620746f6b656e2074686174206960008201527f73206e6f74206f776e0000000000000000000000000000000000000000000000602082015250565b7f7b226e616d65223a202200000000000000000000000000000000000000000000600082015250565b7f4552433732313a20617070726f76616c20746f2063757272656e74206f776e6560008201527f7200000000000000000000000000000000000000000000000000000000000000602082015250565b7f646174613a6170706c69636174696f6e2f6a736f6e3b6261736536342c000000600082015250565b7f4552433732313a207472616e736665722063616c6c6572206973206e6f74206f60008201527f776e6572206e6f7220617070726f766564000000000000000000000000000000602082015250565b7f222c20226465736372697074696f6e223a20224e46542074686174206973207560008201527f73656420746f20706c61792074686520646963652067616d652e222c2022696d60208201527f616765223a202200000000000000000000000000000000000000000000000000604082015250565b7f6f70706f6e656e7420686173206e6f2066756e64730000000000000000000000600082015250565b6149ce8161413e565b81146149d957600080fd5b50565b6149e581614150565b81146149f057600080fd5b50565b6149fc8161415c565b8114614a0757600080fd5b50565b614a13816141a8565b8114614a1e57600080fd5b5056fe4d696e746564206368617261637465722023257320776974682074726169747320696e6465782025734142434445464748494a4b4c4d4e4f505152535455565758595a6162636465666768696a6b6c6d6e6f707172737475767778797a303132333435363738392b2f4f70706f6e656e743a202573202f2025732c20776167657253697a65203d202573506c61796572207769746820746f6b656e49642061626f757420746f20726f6c6c2074686520646963652077697468202573202f2025732066756e647320776974682077616765722073697a65206f66202573a26469706673582212203783df0ae23e9ab991e7cb0df61a2211e61063862bf3c7f93529b8715f6bfea064736f6c63430008040033696e697469616c697a65642025732064656661756c74206368617261637465727320616e64206f70706f6e656e74",
  "linkReferences": {},
  "deployedLinkReferences": {}
}