{
    "_format": "hh-sol-artifact-1",
    "contractName": "TrulyRandomGame",
    "sourceName": "contracts/TrulyRandomGame.sol",
    "abi": [
        {
            "inputs": [
                {
                    "internalType": "string[]",
                    "name": "names",
                    "type": "string[]"
                },
                {
                    "internalType": "string[]",
                    "name": "imageURIs",
                    "type": "string[]"
                },
                {
                    "internalType": "uint256[]",
                    "name": "initialFunds",
                    "type": "uint256[]"
                },
                {
                    "internalType": "uint256[]",
                    "name": "wagerSizes",
                    "type": "uint256[]"
                },
                {
                    "internalType": "string",
                    "name": "opponentName",
                    "type": "string"
                },
                {
                    "internalType": "string",
                    "name": "opponentImageURI",
                    "type": "string"
                },
                {
                    "internalType": "uint256",
                    "name": "opponentFunds",
                    "type": "uint256"
                },
                {
                    "internalType": "uint256",
                    "name": "opponentWagerSize",
                    "type": "uint256"
                }
            ],
            "stateMutability": "nonpayable",
            "type": "constructor"
        },
        {
            "anonymous": false,
            "inputs": [
                {
                    "indexed": true,
                    "internalType": "address",
                    "name": "owner",
                    "type": "address"
                },
                {
                    "indexed": true,
                    "internalType": "address",
                    "name": "approved",
                    "type": "address"
                },
                {
                    "indexed": true,
                    "internalType": "uint256",
                    "name": "tokenId",
                    "type": "uint256"
                }
            ],
            "name": "Approval",
            "type": "event"
        },
        {
            "anonymous": false,
            "inputs": [
                {
                    "indexed": true,
                    "internalType": "address",
                    "name": "owner",
                    "type": "address"
                },
                {
                    "indexed": true,
                    "internalType": "address",
                    "name": "operator",
                    "type": "address"
                },
                {
                    "indexed": false,
                    "internalType": "bool",
                    "name": "approved",
                    "type": "bool"
                }
            ],
            "name": "ApprovalForAll",
            "type": "event"
        },
        {
            "anonymous": false,
            "inputs": [
                {
                    "indexed": false,
                    "internalType": "uint256",
                    "name": "tokenId",
                    "type": "uint256"
                },
                {
                    "indexed": false,
                    "internalType": "string",
                    "name": "name",
                    "type": "string"
                }
            ],
            "name": "CharacterMint",
            "type": "event"
        },
        {
            "anonymous": false,
            "inputs": [
                {
                    "indexed": true,
                    "internalType": "bytes32",
                    "name": "requestId",
                    "type": "bytes32"
                },
                {
                    "indexed": true,
                    "internalType": "uint256",
                    "name": "playerResult",
                    "type": "uint256"
                },
                {
                    "indexed": true,
                    "internalType": "uint256",
                    "name": "opponentResult",
                    "type": "uint256"
                }
            ],
            "name": "DiceLanded",
            "type": "event"
        },
        {
            "anonymous": false,
            "inputs": [
                {
                    "indexed": false,
                    "internalType": "uint256",
                    "name": "playerRoll",
                    "type": "uint256"
                },
                {
                    "indexed": false,
                    "internalType": "uint256",
                    "name": "opponentRoll",
                    "type": "uint256"
                },
                {
                    "indexed": false,
                    "internalType": "uint256",
                    "name": "newPlayerFunds",
                    "type": "uint256"
                },
                {
                    "indexed": false,
                    "internalType": "uint256",
                    "name": "newOpponentFunds",
                    "type": "uint256"
                }
            ],
            "name": "DiceRollResult",
            "type": "event"
        },
        {
            "anonymous": false,
            "inputs": [
                {
                    "indexed": true,
                    "internalType": "bytes32",
                    "name": "requestId",
                    "type": "bytes32"
                },
                {
                    "indexed": true,
                    "internalType": "address",
                    "name": "roller",
                    "type": "address"
                }
            ],
            "name": "DiceRolled",
            "type": "event"
        },
        {
            "anonymous": false,
            "inputs": [
                {
                    "indexed": true,
                    "internalType": "address",
                    "name": "from",
                    "type": "address"
                },
                {
                    "indexed": true,
                    "internalType": "address",
                    "name": "to",
                    "type": "address"
                },
                {
                    "indexed": true,
                    "internalType": "uint256",
                    "name": "tokenId",
                    "type": "uint256"
                }
            ],
            "name": "Transfer",
            "type": "event"
        },
        {
            "inputs": [
                {
                    "internalType": "address",
                    "name": "to",
                    "type": "address"
                },
                {
                    "internalType": "uint256",
                    "name": "tokenId",
                    "type": "uint256"
                }
            ],
            "name": "approve",
            "outputs": [],
            "stateMutability": "nonpayable",
            "type": "function"
        },
        {
            "inputs": [
                {
                    "internalType": "address",
                    "name": "owner",
                    "type": "address"
                }
            ],
            "name": "balanceOf",
            "outputs": [
                {
                    "internalType": "uint256",
                    "name": "",
                    "type": "uint256"
                }
            ],
            "stateMutability": "view",
            "type": "function"
        },
        {
            "inputs": [
                {
                    "internalType": "uint256",
                    "name": "",
                    "type": "uint256"
                }
            ],
            "name": "characterMetadata",
            "outputs": [
                {
                    "internalType": "uint256",
                    "name": "index",
                    "type": "uint256"
                },
                {
                    "internalType": "string",
                    "name": "name",
                    "type": "string"
                },
                {
                    "internalType": "string",
                    "name": "imageURI",
                    "type": "string"
                },
                {
                    "internalType": "uint256",
                    "name": "maxFunds",
                    "type": "uint256"
                },
                {
                    "internalType": "uint256",
                    "name": "currentFunds",
                    "type": "uint256"
                },
                {
                    "internalType": "uint256",
                    "name": "wagerSize",
                    "type": "uint256"
                }
            ],
            "stateMutability": "view",
            "type": "function"
        },
        {
            "inputs": [
                {
                    "internalType": "uint256",
                    "name": "tokenId",
                    "type": "uint256"
                }
            ],
            "name": "getApproved",
            "outputs": [
                {
                    "internalType": "address",
                    "name": "",
                    "type": "address"
                }
            ],
            "stateMutability": "view",
            "type": "function"
        },
        {
            "inputs": [],
            "name": "getDefaultCharacterTraits",
            "outputs": [
                {
                    "components": [
                        {
                            "internalType": "uint256",
                            "name": "index",
                            "type": "uint256"
                        },
                        {
                            "internalType": "string",
                            "name": "name",
                            "type": "string"
                        },
                        {
                            "internalType": "string",
                            "name": "imageURI",
                            "type": "string"
                        },
                        {
                            "internalType": "uint256",
                            "name": "maxFunds",
                            "type": "uint256"
                        },
                        {
                            "internalType": "uint256",
                            "name": "currentFunds",
                            "type": "uint256"
                        },
                        {
                            "internalType": "uint256",
                            "name": "wagerSize",
                            "type": "uint256"
                        }
                    ],
                    "internalType": "struct CharacterTraits[]",
                    "name": "",
                    "type": "tuple[]"
                }
            ],
            "stateMutability": "view",
            "type": "function"
        },
        {
            "inputs": [],
            "name": "getOpponent",
            "outputs": [
                {
                    "components": [
                        {
                            "internalType": "string",
                            "name": "name",
                            "type": "string"
                        },
                        {
                            "internalType": "string",
                            "name": "imageURI",
                            "type": "string"
                        },
                        {
                            "internalType": "uint256",
                            "name": "maxFunds",
                            "type": "uint256"
                        },
                        {
                            "internalType": "uint256",
                            "name": "currentFunds",
                            "type": "uint256"
                        },
                        {
                            "internalType": "uint256",
                            "name": "wagerSize",
                            "type": "uint256"
                        }
                    ],
                    "internalType": "struct Opponent",
                    "name": "",
                    "type": "tuple"
                }
            ],
            "stateMutability": "view",
            "type": "function"
        },
        {
            "inputs": [],
            "name": "getUserNFT",
            "outputs": [
                {
                    "components": [
                        {
                            "internalType": "uint256",
                            "name": "index",
                            "type": "uint256"
                        },
                        {
                            "internalType": "string",
                            "name": "name",
                            "type": "string"
                        },
                        {
                            "internalType": "string",
                            "name": "imageURI",
                            "type": "string"
                        },
                        {
                            "internalType": "uint256",
                            "name": "maxFunds",
                            "type": "uint256"
                        },
                        {
                            "internalType": "uint256",
                            "name": "currentFunds",
                            "type": "uint256"
                        },
                        {
                            "internalType": "uint256",
                            "name": "wagerSize",
                            "type": "uint256"
                        }
                    ],
                    "internalType": "struct CharacterTraits",
                    "name": "",
                    "type": "tuple"
                }
            ],
            "stateMutability": "view",
            "type": "function"
        },
        {
            "inputs": [
                {
                    "internalType": "address",
                    "name": "owner",
                    "type": "address"
                },
                {
                    "internalType": "address",
                    "name": "operator",
                    "type": "address"
                }
            ],
            "name": "isApprovedForAll",
            "outputs": [
                {
                    "internalType": "bool",
                    "name": "",
                    "type": "bool"
                }
            ],
            "stateMutability": "view",
            "type": "function"
        },
        {
            "inputs": [
                {
                    "internalType": "uint256",
                    "name": "_characterIndex",
                    "type": "uint256"
                }
            ],
            "name": "mintCharacterNFT",
            "outputs": [],
            "stateMutability": "nonpayable",
            "type": "function"
        },
        {
            "inputs": [],
            "name": "name",
            "outputs": [
                {
                    "internalType": "string",
                    "name": "",
                    "type": "string"
                }
            ],
            "stateMutability": "view",
            "type": "function"
        },
        {
            "inputs": [],
            "name": "opponent",
            "outputs": [
                {
                    "internalType": "string",
                    "name": "name",
                    "type": "string"
                },
                {
                    "internalType": "string",
                    "name": "imageURI",
                    "type": "string"
                },
                {
                    "internalType": "uint256",
                    "name": "maxFunds",
                    "type": "uint256"
                },
                {
                    "internalType": "uint256",
                    "name": "currentFunds",
                    "type": "uint256"
                },
                {
                    "internalType": "uint256",
                    "name": "wagerSize",
                    "type": "uint256"
                }
            ],
            "stateMutability": "view",
            "type": "function"
        },
        {
            "inputs": [
                {
                    "internalType": "address",
                    "name": "",
                    "type": "address"
                }
            ],
            "name": "ownerCharacterIds",
            "outputs": [
                {
                    "internalType": "uint256",
                    "name": "",
                    "type": "uint256"
                }
            ],
            "stateMutability": "view",
            "type": "function"
        },
        {
            "inputs": [
                {
                    "internalType": "uint256",
                    "name": "tokenId",
                    "type": "uint256"
                }
            ],
            "name": "ownerOf",
            "outputs": [
                {
                    "internalType": "address",
                    "name": "",
                    "type": "address"
                }
            ],
            "stateMutability": "view",
            "type": "function"
        },
        {
            "inputs": [
                {
                    "internalType": "bytes32",
                    "name": "requestId",
                    "type": "bytes32"
                },
                {
                    "internalType": "uint256",
                    "name": "randomness",
                    "type": "uint256"
                }
            ],
            "name": "rawFulfillRandomness",
            "outputs": [],
            "stateMutability": "nonpayable",
            "type": "function"
        },
        {
            "inputs": [],
            "name": "rollTheDice",
            "outputs": [],
            "stateMutability": "nonpayable",
            "type": "function"
        },
        {
            "inputs": [
                {
                    "internalType": "address",
                    "name": "from",
                    "type": "address"
                },
                {
                    "internalType": "address",
                    "name": "to",
                    "type": "address"
                },
                {
                    "internalType": "uint256",
                    "name": "tokenId",
                    "type": "uint256"
                }
            ],
            "name": "safeTransferFrom",
            "outputs": [],
            "stateMutability": "nonpayable",
            "type": "function"
        },
        {
            "inputs": [
                {
                    "internalType": "address",
                    "name": "from",
                    "type": "address"
                },
                {
                    "internalType": "address",
                    "name": "to",
                    "type": "address"
                },
                {
                    "internalType": "uint256",
                    "name": "tokenId",
                    "type": "uint256"
                },
                {
                    "internalType": "bytes",
                    "name": "_data",
                    "type": "bytes"
                }
            ],
            "name": "safeTransferFrom",
            "outputs": [],
            "stateMutability": "nonpayable",
            "type": "function"
        },
        {
            "inputs": [
                {
                    "internalType": "address",
                    "name": "operator",
                    "type": "address"
                },
                {
                    "internalType": "bool",
                    "name": "approved",
                    "type": "bool"
                }
            ],
            "name": "setApprovalForAll",
            "outputs": [],
            "stateMutability": "nonpayable",
            "type": "function"
        },
        {
            "inputs": [
                {
                    "internalType": "bytes4",
                    "name": "interfaceId",
                    "type": "bytes4"
                }
            ],
            "name": "supportsInterface",
            "outputs": [
                {
                    "internalType": "bool",
                    "name": "",
                    "type": "bool"
                }
            ],
            "stateMutability": "view",
            "type": "function"
        },
        {
            "inputs": [],
            "name": "symbol",
            "outputs": [
                {
                    "internalType": "string",
                    "name": "",
                    "type": "string"
                }
            ],
            "stateMutability": "view",
            "type": "function"
        },
        {
            "inputs": [
                {
                    "internalType": "uint256",
                    "name": "_tokenId",
                    "type": "uint256"
                }
            ],
            "name": "tokenURI",
            "outputs": [
                {
                    "internalType": "string",
                    "name": "",
                    "type": "string"
                }
            ],
            "stateMutability": "view",
            "type": "function"
        },
        {
            "inputs": [
                {
                    "internalType": "address",
                    "name": "from",
                    "type": "address"
                },
                {
                    "internalType": "address",
                    "name": "to",
                    "type": "address"
                },
                {
                    "internalType": "uint256",
                    "name": "tokenId",
                    "type": "uint256"
                }
            ],
            "name": "transferFrom",
            "outputs": [],
            "stateMutability": "nonpayable",
            "type": "function"
        }
    ],
    "bytecode": "0x60c06040523480156200001157600080fd5b5060405162005ccf38038062005ccf833981810160405281019062000037919062000832565b73b3dccb4cf7a26f6cf6b120cf5a73875b7bbc655b7301be23585060835e02b77ef475b0cc51aa1e07096040518060400160405280600881526020017f4469636547616d650000000000000000000000000000000000000000000000008152506040518060400160405280600481526020017f44494345000000000000000000000000000000000000000000000000000000008152508160009080519060200190620000e59291906200059a565b508060019080519060200190620000fe9291906200059a565b5050508173ffffffffffffffffffffffffffffffffffffffff1660a08173ffffffffffffffffffffffffffffffffffffffff1660601b815250508073ffffffffffffffffffffffffffffffffffffffff1660808173ffffffffffffffffffffffffffffffffffffffff1660601b81525050505060005b8851811015620003995760086040518060c001604052808381526020018b8481518110620001cb577f4e487b7100000000000000000000000000000000000000000000000000000000600052603260045260246000fd5b602002602001015181526020018a848151811062000212577f4e487b7100000000000000000000000000000000000000000000000000000000600052603260045260246000fd5b6020026020010151815260200189848151811062000259577f4e487b7100000000000000000000000000000000000000000000000000000000600052603260045260246000fd5b60200260200101518152602001898481518110620002a0577f4e487b7100000000000000000000000000000000000000000000000000000000600052603260045260246000fd5b60200260200101518152602001888481518110620002e7577f4e487b7100000000000000000000000000000000000000000000000000000000600052603260045260246000fd5b60200260200101518152509080600181540180825580915050600190039060005260206000209060060201600090919091909150600082015181600001556020820151816001019080519060200190620003439291906200059a565b506040820151816002019080519060200190620003629291906200059a565b50606082015181600301556080820151816004015560a0820151816005015550508080620003909062000b96565b91505062000174565b506040518060a001604052808581526020018481526020018381526020018381526020018281525060096000820151816000019080519060200190620003e19291906200059a565b506020820151816001019080519060200190620004009291906200059a565b50604082015181600201556060820151816003015560808201518160040155905050620004396007620004b560201b62001c931760201c565b7f2ed0feb3e7fd2022120aa84fab1945545a9f2ffc9076fd6156fa96eaff4c131160001b60108190555067016345785d8a0000601181905550620004a76040518060600160405280602e815260200162005ca1602e9139600880549050620004cb60201b62001ca91760201c565b505050505050505062000c9c565b6001816000016000828254019250508190555050565b6200056d8282604051602401620004e4929190620009dd565b6040516020818303038152906040527f9710a9d0000000000000000000000000000000000000000000000000000000007bffffffffffffffffffffffffffffffffffffffffffffffffffffffff19166020820180517bffffffffffffffffffffffffffffffffffffffffffffffffffffffff83818316178352505050506200057160201b60201c565b5050565b60008151905060006a636f6e736f6c652e6c6f679050602083016000808483855afa5050505050565b828054620005a89062000b2a565b90600052602060002090601f016020900481019282620005cc576000855562000618565b82601f10620005e757805160ff191683800117855562000618565b8280016001018555821562000618579182015b8281111562000617578251825591602001919060010190620005fa565b5b5090506200062791906200062b565b5090565b5b80821115620006465760008160009055506001016200062c565b5090565b6000620006616200065b8462000a3a565b62000a11565b905080838252602082019050828560208602820111156200068157600080fd5b60005b85811015620006d057815167ffffffffffffffff811115620006a557600080fd5b808601620006b48982620007ee565b8552602085019450602084019350505060018101905062000684565b5050509392505050565b6000620006f1620006eb8462000a69565b62000a11565b905080838252602082019050828560208602820111156200071157600080fd5b60005b858110156200074557816200072a88826200081b565b84526020840193506020830192505060018101905062000714565b5050509392505050565b600062000766620007608462000a98565b62000a11565b9050828152602081018484840111156200077f57600080fd5b6200078c84828562000af4565b509392505050565b600082601f830112620007a657600080fd5b8151620007b88482602086016200064a565b91505092915050565b600082601f830112620007d357600080fd5b8151620007e5848260208601620006da565b91505092915050565b600082601f8301126200080057600080fd5b8151620008128482602086016200074f565b91505092915050565b6000815190506200082c8162000c82565b92915050565b600080600080600080600080610100898b0312156200085057600080fd5b600089015167ffffffffffffffff8111156200086b57600080fd5b620008798b828c0162000794565b985050602089015167ffffffffffffffff8111156200089757600080fd5b620008a58b828c0162000794565b975050604089015167ffffffffffffffff811115620008c357600080fd5b620008d18b828c01620007c1565b965050606089015167ffffffffffffffff811115620008ef57600080fd5b620008fd8b828c01620007c1565b955050608089015167ffffffffffffffff8111156200091b57600080fd5b620009298b828c01620007ee565b94505060a089015167ffffffffffffffff8111156200094757600080fd5b620009558b828c01620007ee565b93505060c0620009688b828c016200081b565b92505060e06200097b8b828c016200081b565b9150509295985092959890939650565b6000620009988262000ace565b620009a4818562000ad9565b9350620009b681856020860162000af4565b620009c18162000c71565b840191505092915050565b620009d78162000aea565b82525050565b60006040820190508181036000830152620009f981856200098b565b905062000a0a6020830184620009cc565b9392505050565b600062000a1d62000a30565b905062000a2b828262000b60565b919050565b6000604051905090565b600067ffffffffffffffff82111562000a585762000a5762000c42565b5b602082029050602081019050919050565b600067ffffffffffffffff82111562000a875762000a8662000c42565b5b602082029050602081019050919050565b600067ffffffffffffffff82111562000ab65762000ab562000c42565b5b62000ac18262000c71565b9050602081019050919050565b600081519050919050565b600082825260208201905092915050565b6000819050919050565b60005b8381101562000b1457808201518184015260208101905062000af7565b8381111562000b24576000848401525b50505050565b6000600282049050600182168062000b4357607f821691505b6020821081141562000b5a5762000b5962000c13565b5b50919050565b62000b6b8262000c71565b810181811067ffffffffffffffff8211171562000b8d5762000b8c62000c42565b5b80604052505050565b600062000ba38262000aea565b91507fffffffffffffffffffffffffffffffffffffffffffffffffffffffffffffffff82141562000bd95762000bd862000be4565b5b600182019050919050565b7f4e487b7100000000000000000000000000000000000000000000000000000000600052601160045260246000fd5b7f4e487b7100000000000000000000000000000000000000000000000000000000600052602260045260246000fd5b7f4e487b7100000000000000000000000000000000000000000000000000000000600052604160045260246000fd5b6000601f19601f8301169050919050565b62000c8d8162000aea565b811462000c9957600080fd5b50565b60805160601c60a05160601c614fcb62000cd6600039600081816112ae0152612256015260008181610f76015261221a0152614fcb6000f3fe608060405234801561001057600080fd5b50600436106101425760003560e01c806378ec0e46116100b8578063a22cb4651161007c578063a22cb46514610369578063b88d4fde14610385578063c87b56dd146103a1578063e985e9c5146103d1578063edc12a2814610401578063f8b81ef71461043657610142565b806378ec0e46146102e55780637d789dee1461030357806393694f671461030d57806394985ddd1461032f57806395d89b411461034b57610142565b8063260fb0e21161010a578063260fb0e2146101fd57806334238d931461022d578063395800541461024b57806342842e0e146102695780636352211e1461028557806370a08231146102b557610142565b806301ffc9a71461014757806306fdde0314610177578063081812fc14610195578063095ea7b3146101c557806323b872dd146101e1575b600080fd5b610161600480360381019061015c919061350c565b610452565b60405161016e9190613ef3565b60405180910390f35b61017f610534565b60405161018c9190613f7c565b60405180910390f35b6101af60048036038101906101aa919061355e565b6105c6565b6040516101bc9190613e2c565b60405180910390f35b6101df60048036038101906101da919061346b565b61064b565b005b6101fb60048036038101906101f69190613365565b610763565b005b61021760048036038101906102129190613300565b6107c3565b60405161022491906142f1565b60405180910390f35b6102356107db565b60405161024291906142ad565b60405180910390f35b6102536109b3565b60405161026091906142cf565b60405180910390f35b610283600480360381019061027e9190613365565b610b0f565b005b61029f600480360381019061029a919061355e565b610b2f565b6040516102ac9190613e2c565b60405180910390f35b6102cf60048036038101906102ca9190613300565b610be1565b6040516102dc91906142f1565b60405180910390f35b6102ed610c99565b6040516102fa9190613ed1565b60405180910390f35b61030b610e44565b005b610315611178565b604051610326959493929190613f9e565b60405180910390f35b610349600480360381019061034491906134d0565b6112ac565b005b610353611348565b6040516103609190613f7c565b60405180910390f35b610383600480360381019061037e919061342f565b6113da565b005b61039f600480360381019061039a91906133b4565b6113f0565b005b6103bb60048036038101906103b6919061355e565b611452565b6040516103c89190613f7c565b60405180910390f35b6103eb60048036038101906103e69190613329565b61166d565b6040516103f89190613ef3565b60405180910390f35b61041b6004803603810190610416919061355e565b611701565b60405161042d9695949392919061430c565b60405180910390f35b610450600480360381019061044b919061355e565b61184d565b005b60007f80ac58cd000000000000000000000000000000000000000000000000000000007bffffffffffffffffffffffffffffffffffffffffffffffffffffffff1916827bffffffffffffffffffffffffffffffffffffffffffffffffffffffff1916148061051d57507f5b5e139f000000000000000000000000000000000000000000000000000000007bffffffffffffffffffffffffffffffffffffffffffffffffffffffff1916827bffffffffffffffffffffffffffffffffffffffffffffffffffffffff1916145b8061052d575061052c82611d45565b5b9050919050565b606060008054610543906146bd565b80601f016020809104026020016040519081016040528092919081815260200182805461056f906146bd565b80156105bc5780601f10610591576101008083540402835291602001916105bc565b820191906000526020600020905b81548152906001019060200180831161059f57829003601f168201915b5050505050905090565b60006105d182611daf565b610610576040517f08c379a0000000000000000000000000000000000000000000000000000000008152600401610607906141cd565b60405180910390fd5b6004600083815260200190815260200160002060009054906101000a900473ffffffffffffffffffffffffffffffffffffffff169050919050565b600061065682610b2f565b90508073ffffffffffffffffffffffffffffffffffffffff168373ffffffffffffffffffffffffffffffffffffffff1614156106c7576040517f08c379a00000000000000000000000000000000000000000000000000000000081526004016106be9061422d565b60405180910390fd5b8073ffffffffffffffffffffffffffffffffffffffff166106e6611e1b565b73ffffffffffffffffffffffffffffffffffffffff16148061071557506107148161070f611e1b565b61166d565b5b610754576040517f08c379a000000000000000000000000000000000000000000000000000000000815260040161074b9061412d565b60405180910390fd5b61075e8383611e23565b505050565b61077461076e611e1b565b82611edc565b6107b3576040517f08c379a00000000000000000000000000000000000000000000000000000000081526004016107aa9061426d565b60405180910390fd5b6107be838383611fba565b505050565b600f6020528060005260406000206000915090505481565b6107e36130e8565b6000600f60003373ffffffffffffffffffffffffffffffffffffffff1673ffffffffffffffffffffffffffffffffffffffff1681526020019081526020016000205490506000811415610842576108386130e8565b80925050506109b0565b600e60008281526020019081526020016000206040518060c00160405290816000820154815260200160018201805461087a906146bd565b80601f01602080910402602001604051908101604052809291908181526020018280546108a6906146bd565b80156108f35780601f106108c8576101008083540402835291602001916108f3565b820191906000526020600020905b8154815290600101906020018083116108d657829003601f168201915b5050505050815260200160028201805461090c906146bd565b80601f0160208091040260200160405190810160405280929190818152602001828054610938906146bd565b80156109855780601f1061095a57610100808354040283529160200191610985565b820191906000526020600020905b81548152906001019060200180831161096857829003601f168201915b5050505050815260200160038201548152602001600482015481526020016005820154815250509150505b90565b6109bb61311e565b60096040518060a00160405290816000820180546109d8906146bd565b80601f0160208091040260200160405190810160405280929190818152602001828054610a04906146bd565b8015610a515780601f10610a2657610100808354040283529160200191610a51565b820191906000526020600020905b815481529060010190602001808311610a3457829003601f168201915b50505050508152602001600182018054610a6a906146bd565b80601f0160208091040260200160405190810160405280929190818152602001828054610a96906146bd565b8015610ae35780601f10610ab857610100808354040283529160200191610ae3565b820191906000526020600020905b815481529060010190602001808311610ac657829003601f168201915b505050505081526020016002820154815260200160038201548152602001600482015481525050905090565b610b2a838383604051806020016040528060008152506113f0565b505050565b6000806002600084815260200190815260200160002060009054906101000a900473ffffffffffffffffffffffffffffffffffffffff169050600073ffffffffffffffffffffffffffffffffffffffff168173ffffffffffffffffffffffffffffffffffffffff161415610bd8576040517f08c379a0000000000000000000000000000000000000000000000000000000008152600401610bcf9061416d565b60405180910390fd5b80915050919050565b60008073ffffffffffffffffffffffffffffffffffffffff168273ffffffffffffffffffffffffffffffffffffffff161415610c52576040517f08c379a0000000000000000000000000000000000000000000000000000000008152600401610c499061414d565b60405180910390fd5b600360008373ffffffffffffffffffffffffffffffffffffffff1673ffffffffffffffffffffffffffffffffffffffff168152602001908152602001600020549050919050565b60606008805480602002602001604051908101604052809291908181526020016000905b82821015610e3b57838290600052602060002090600602016040518060c001604052908160008201548152602001600182018054610cfa906146bd565b80601f0160208091040260200160405190810160405280929190818152602001828054610d26906146bd565b8015610d735780601f10610d4857610100808354040283529160200191610d73565b820191906000526020600020905b815481529060010190602001808311610d5657829003601f168201915b50505050508152602001600282018054610d8c906146bd565b80601f0160208091040260200160405190810160405280929190818152602001828054610db8906146bd565b8015610e055780601f10610dda57610100808354040283529160200191610e05565b820191906000526020600020905b815481529060010190602001808311610de857829003601f168201915b50505050508152602001600382015481526020016004820154815260200160058201548152505081526020019060010190610cbd565b50505050905090565b6000600f60003373ffffffffffffffffffffffffffffffffffffffff1673ffffffffffffffffffffffffffffffffffffffff16815260200190815260200160002054905060008111610ecb576040517f08c379a0000000000000000000000000000000000000000000000000000000008152600401610ec2906141ad565b60405180910390fd5b6000600e600083815260200190815260200160002090506000816004015411610f29576040517f08c379a0000000000000000000000000000000000000000000000000000000008152600401610f20906140ad565b60405180910390fd5b600060096003015411610f71576040517f08c379a0000000000000000000000000000000000000000000000000000000008152600401610f689061428d565b60405180910390fd5b6011547f000000000000000000000000000000000000000000000000000000000000000073ffffffffffffffffffffffffffffffffffffffff166370a08231306040518263ffffffff1660e01b8152600401610fcd9190613e2c565b60206040518083038186803b158015610fe557600080fd5b505afa158015610ff9573d6000803e3d6000fd5b505050506040513d601f19601f8201168201806040525081019061101d9190613587565b101561105e576040517f08c379a00000000000000000000000000000000000000000000000000000000081526004016110559061424d565b60405180910390fd5b600061106e601054601154612216565b9050336012600083815260200190815260200160002060006101000a81548173ffffffffffffffffffffffffffffffffffffffff021916908373ffffffffffffffffffffffffffffffffffffffff1602179055506040518060400160405280602a8152602001602a815250601360003373ffffffffffffffffffffffffffffffffffffffff1673ffffffffffffffffffffffffffffffffffffffff16815260200190815260200160002060008201518160000155602082015181600101559050503373ffffffffffffffffffffffffffffffffffffffff16817f923de4fc4aece24a78a9e4ca3009c571a742f81ac2c004a229224b0fd1883bdd60405160405180910390a3505050565b6009806000018054611189906146bd565b80601f01602080910402602001604051908101604052809291908181526020018280546111b5906146bd565b80156112025780601f106111d757610100808354040283529160200191611202565b820191906000526020600020905b8154815290600101906020018083116111e557829003601f168201915b505050505090806001018054611217906146bd565b80601f0160208091040260200160405190810160405280929190818152602001828054611243906146bd565b80156112905780601f1061126557610100808354040283529160200191611290565b820191906000526020600020905b81548152906001019060200180831161127357829003601f168201915b5050505050908060020154908060030154908060040154905085565b7f000000000000000000000000000000000000000000000000000000000000000073ffffffffffffffffffffffffffffffffffffffff163373ffffffffffffffffffffffffffffffffffffffff161461133a576040517f08c379a00000000000000000000000000000000000000000000000000000000081526004016113319061420d565b60405180910390fd5b6113448282612378565b5050565b606060018054611357906146bd565b80601f0160208091040260200160405190810160405280929190818152602001828054611383906146bd565b80156113d05780601f106113a5576101008083540402835291602001916113d0565b820191906000526020600020905b8154815290600101906020018083116113b357829003601f168201915b5050505050905090565b6113ec6113e5611e1b565b8383612679565b5050565b6114016113fb611e1b565b83611edc565b611440576040517f08c379a00000000000000000000000000000000000000000000000000000000081526004016114379061426d565b60405180910390fd5b61144c848484846127e6565b50505050565b60606000600e60008481526020019081526020016000206040518060c00160405290816000820154815260200160018201805461148e906146bd565b80601f01602080910402602001604051908101604052809291908181526020018280546114ba906146bd565b80156115075780601f106114dc57610100808354040283529160200191611507565b820191906000526020600020905b8154815290600101906020018083116114ea57829003601f168201915b50505050508152602001600282018054611520906146bd565b80601f016020809104026020016040519081016040528092919081815260200182805461154c906146bd565b80156115995780601f1061156e57610100808354040283529160200191611599565b820191906000526020600020905b81548152906001019060200180831161157c57829003601f168201915b505050505081526020016003820154815260200160048201548152602001600582015481525050905060006115d18260800151612842565b905060006115e28360600151612842565b905060006115f38460a00151612842565b90506000611639856020015161160889612842565b876040015187878760405160200161162596959493929190613d65565b6040516020818303038152906040526129ef565b905060008160405160200161164e9190613e0a565b6040516020818303038152906040529050809650505050505050919050565b6000600560008473ffffffffffffffffffffffffffffffffffffffff1673ffffffffffffffffffffffffffffffffffffffff16815260200190815260200160002060008373ffffffffffffffffffffffffffffffffffffffff1673ffffffffffffffffffffffffffffffffffffffff16815260200190815260200160002060009054906101000a900460ff16905092915050565b600e60205280600052604060002060009150905080600001549080600101805461172a906146bd565b80601f0160208091040260200160405190810160405280929190818152602001828054611756906146bd565b80156117a35780601f10611778576101008083540402835291602001916117a3565b820191906000526020600020905b81548152906001019060200180831161178657829003601f168201915b5050505050908060020180546117b8906146bd565b80601f01602080910402602001604051908101604052809291908181526020018280546117e4906146bd565b80156118315780601f1061180657610100808354040283529160200191611831565b820191906000526020600020905b81548152906001019060200180831161181457829003601f168201915b5050505050908060030154908060040154908060050154905086565b60006118596007612bad565b90506118653382612bbb565b6040518060c00160405280838152602001600884815481106118b0577f4e487b7100000000000000000000000000000000000000000000000000000000600052603260045260246000fd5b906000526020600020906006020160010180546118cc906146bd565b80601f01602080910402602001604051908101604052809291908181526020018280546118f8906146bd565b80156119455780601f1061191a57610100808354040283529160200191611945565b820191906000526020600020905b81548152906001019060200180831161192857829003601f168201915b5050505050815260200160088481548110611989577f4e487b7100000000000000000000000000000000000000000000000000000000600052603260045260246000fd5b906000526020600020906006020160020180546119a5906146bd565b80601f01602080910402602001604051908101604052809291908181526020018280546119d1906146bd565b8015611a1e5780601f106119f357610100808354040283529160200191611a1e565b820191906000526020600020905b815481529060010190602001808311611a0157829003601f168201915b5050505050815260200160088481548110611a62577f4e487b7100000000000000000000000000000000000000000000000000000000600052603260045260246000fd5b906000526020600020906006020160030154815260200160088481548110611ab3577f4e487b7100000000000000000000000000000000000000000000000000000000600052603260045260246000fd5b906000526020600020906006020160040154815260200160088481548110611b04577f4e487b7100000000000000000000000000000000000000000000000000000000600052603260045260246000fd5b906000526020600020906006020160050154815250600e6000838152602001908152602001600020600082015181600001556020820151816001019080519060200190611b5292919061314d565b506040820151816002019080519060200190611b6f92919061314d565b50606082015181600301556080820151816004015560a08201518160050155905050611bd06040518060400160405280601281526020017f6d696e74696e6720746f6b656e4964202573000000000000000000000000000081525082611ca9565b80600f60003373ffffffffffffffffffffffffffffffffffffffff1673ffffffffffffffffffffffffffffffffffffffff16815260200190815260200160002081905550611c1e6007611c93565b611c41604051806060016040528060298152602001614f2d602991398284612bd9565b7fc9dc0d748de6a54ef1529cd1523f557ed80e6d09527ebd7e014006b92c42396e81600e6000848152602001908152602001600020600101604051611c8792919061437b565b60405180910390a15050565b6001816000016000828254019250508190555050565b611d418282604051602401611cbf929190613fff565b6040516020818303038152906040527f9710a9d0000000000000000000000000000000000000000000000000000000007bffffffffffffffffffffffffffffffffffffffffffffffffffffffff19166020820180517bffffffffffffffffffffffffffffffffffffffffffffffffffffffff8381831617835250505050612c78565b5050565b60007f01ffc9a7000000000000000000000000000000000000000000000000000000007bffffffffffffffffffffffffffffffffffffffffffffffffffffffff1916827bffffffffffffffffffffffffffffffffffffffffffffffffffffffff1916149050919050565b60008073ffffffffffffffffffffffffffffffffffffffff166002600084815260200190815260200160002060009054906101000a900473ffffffffffffffffffffffffffffffffffffffff1673ffffffffffffffffffffffffffffffffffffffff1614159050919050565b600033905090565b816004600083815260200190815260200160002060006101000a81548173ffffffffffffffffffffffffffffffffffffffff021916908373ffffffffffffffffffffffffffffffffffffffff160217905550808273ffffffffffffffffffffffffffffffffffffffff16611e9683610b2f565b73ffffffffffffffffffffffffffffffffffffffff167f8c5be1e5ebec7d5bd14f71427d1e84f3dd0314c0f7b2291e5b200ac8c7c3b92560405160405180910390a45050565b6000611ee782611daf565b611f26576040517f08c379a0000000000000000000000000000000000000000000000000000000008152600401611f1d9061410d565b60405180910390fd5b6000611f3183610b2f565b90508073ffffffffffffffffffffffffffffffffffffffff168473ffffffffffffffffffffffffffffffffffffffff161480611fa057508373ffffffffffffffffffffffffffffffffffffffff16611f88846105c6565b73ffffffffffffffffffffffffffffffffffffffff16145b80611fb15750611fb0818561166d565b5b91505092915050565b8273ffffffffffffffffffffffffffffffffffffffff16611fda82610b2f565b73ffffffffffffffffffffffffffffffffffffffff1614612030576040517f08c379a0000000000000000000000000000000000000000000000000000000008152600401612027906141ed565b60405180910390fd5b600073ffffffffffffffffffffffffffffffffffffffff168273ffffffffffffffffffffffffffffffffffffffff1614156120a0576040517f08c379a0000000000000000000000000000000000000000000000000000000008152600401612097906140cd565b60405180910390fd5b6120ab838383612ca1565b6120b6600082611e23565b6001600360008573ffffffffffffffffffffffffffffffffffffffff1673ffffffffffffffffffffffffffffffffffffffff168152602001908152602001600020600082825461210691906145c9565b925050819055506001600360008473ffffffffffffffffffffffffffffffffffffffff1673ffffffffffffffffffffffffffffffffffffffff168152602001908152602001600020600082825461215d91906144e8565b92505081905550816002600083815260200190815260200160002060006101000a81548173ffffffffffffffffffffffffffffffffffffffff021916908373ffffffffffffffffffffffffffffffffffffffff160217905550808273ffffffffffffffffffffffffffffffffffffffff168473ffffffffffffffffffffffffffffffffffffffff167fddf252ad1be2c89b69c2b068fc378daa952ba7f163c4a11628f55a4df523b3ef60405160405180910390a4505050565b60007f000000000000000000000000000000000000000000000000000000000000000073ffffffffffffffffffffffffffffffffffffffff16634000aea07f00000000000000000000000000000000000000000000000000000000000000008486600060405160200161228a929190613f0e565b6040516020818303038152906040526040518463ffffffff1660e01b81526004016122b793929190613e93565b602060405180830381600087803b1580156122d157600080fd5b505af11580156122e5573d6000803e3d6000fd5b505050506040513d601f19601f8201168201806040525081019061230991906134a7565b50600061232c846000306006600089815260200190815260200160002054612ca6565b90506001600660008681526020019081526020016000205461234e91906144e8565b600660008681526020019081526020016000208190555061236f8482612ce2565b91505092915050565b60006002600b83612389919061477d565b61239391906144e8565b90506000600260016006856123a8919061477d565b6123b291906144e8565b6123bc919061456f565b9050604051806040016040528083815260200182815250601360006012600088815260200190815260200160002060009054906101000a900473ffffffffffffffffffffffffffffffffffffffff1673ffffffffffffffffffffffffffffffffffffffff1673ffffffffffffffffffffffffffffffffffffffff16815260200190815260200160002060008201518160000155602082015181600101559050508082857fe4e64378a044aaf36359df3ad8a90e47edea685a91f4c18172c0984485c52d1060405160405180910390a46000600e6000600f6000601260008a815260200190815260200160002060009054906101000a900473ffffffffffffffffffffffffffffffffffffffff1673ffffffffffffffffffffffffffffffffffffffff1673ffffffffffffffffffffffffffffffffffffffff1681526020019081526020016000205481526020019081526020016000209050818311156125a457600960040154600960030154106125735760096004015481600401600082825461254691906144e8565b925050819055506009600401546009600301600082825461256791906145c9565b9250508190555061259f565b60096003015481600401600082825461258c91906144e8565b9250508190555060006009600301819055505b61262c565b8183101561262b5780600501548160040154106125ff578060050154600960030160008282546125d491906144e8565b9250508190555080600501548160040160008282546125f391906145c9565b9250508190555061262a565b80600401546009600301600082825461261891906144e8565b92505081905550600081600401819055505b5b5b7f970910e4e82b3c547ce862e449b58aba7024d864432698afbbd971a384702d388383836004015460096003015460405161266a94939291906143ab565b60405180910390a15050505050565b8173ffffffffffffffffffffffffffffffffffffffff168373ffffffffffffffffffffffffffffffffffffffff1614156126e8576040517f08c379a00000000000000000000000000000000000000000000000000000000081526004016126df906140ed565b60405180910390fd5b80600560008573ffffffffffffffffffffffffffffffffffffffff1673ffffffffffffffffffffffffffffffffffffffff16815260200190815260200160002060008473ffffffffffffffffffffffffffffffffffffffff1673ffffffffffffffffffffffffffffffffffffffff16815260200190815260200160002060006101000a81548160ff0219169083151502179055508173ffffffffffffffffffffffffffffffffffffffff168373ffffffffffffffffffffffffffffffffffffffff167f17307eab39ab6107e8899845ad3d59bd9653f200f220920489ca2b5937696c31836040516127d99190613ef3565b60405180910390a3505050565b6127f1848484611fba565b6127fd84848484612d15565b61283c576040517f08c379a00000000000000000000000000000000000000000000000000000000081526004016128339061406d565b60405180910390fd5b50505050565b6060600082141561288a576040518060400160405280600181526020017f300000000000000000000000000000000000000000000000000000000000000081525090506129ea565b600082905060005b600082146128bc5780806128a590614720565b915050600a826128b5919061453e565b9150612892565b60008167ffffffffffffffff8111156128fe577f4e487b7100000000000000000000000000000000000000000000000000000000600052604160045260246000fd5b6040519080825280601f01601f1916602001820160405280156129305781602001600182028036833780820191505090505b5090505b600085146129e35760018261294991906145c9565b9150600a85612958919061477d565b603061296491906144e8565b60f81b8183815181106129a0577f4e487b7100000000000000000000000000000000000000000000000000000000600052603260045260246000fd5b60200101907effffffffffffffffffffffffffffffffffffffffffffffffffffffffffffff1916908160001a905350600a856129dc919061453e565b9450612934565b8093505050505b919050565b60606000825190506000811415612a185760405180602001604052806000815250915050612ba8565b60006003600283612a2991906144e8565b612a33919061453e565b6004612a3f919061456f565b90506000602082612a5091906144e8565b67ffffffffffffffff811115612a8f577f4e487b7100000000000000000000000000000000000000000000000000000000600052604160045260246000fd5b6040519080825280601f01601f191660200182016040528015612ac15781602001600182028036833780820191505090505b5090506000604051806060016040528060408152602001614f56604091399050600181016020830160005b86811015612b655760038101905062ffffff818a015116603f8160121c168401518060081b905060ff603f83600c1c1686015116810190508060081b905060ff603f8360061c1686015116810190508060081b905060ff603f831686015116810190508060e01b90508084526004840193505050612aec565b506003860660018114612b7f5760028114612b8f57612b9a565b613d3d60f01b6002830352612b9a565b603d60f81b60018303525b508484525050819450505050505b919050565b600081600001549050919050565b612bd5828260405180602001604052806000815250612eac565b5050565b612c73838383604051602401612bf19392919061402f565b6040516020818303038152906040527f969cdd03000000000000000000000000000000000000000000000000000000007bffffffffffffffffffffffffffffffffffffffffffffffffffffffff19166020820180517bffffffffffffffffffffffffffffffffffffffffffffffffffffffff8381831617835250505050612c78565b505050565b60008151905060006a636f6e736f6c652e6c6f679050602083016000808483855afa5050505050565b505050565b600084848484604051602001612cbf9493929190613f37565b6040516020818303038152906040528051906020012060001c9050949350505050565b60008282604051602001612cf7929190613d39565b60405160208183030381529060405280519060200120905092915050565b6000612d368473ffffffffffffffffffffffffffffffffffffffff16612f07565b15612e9f578373ffffffffffffffffffffffffffffffffffffffff1663150b7a02612d5f611e1b565b8786866040518563ffffffff1660e01b8152600401612d819493929190613e47565b602060405180830381600087803b158015612d9b57600080fd5b505af1925050508015612dcc57506040513d601f19601f82011682018060405250810190612dc99190613535565b60015b612e4f573d8060008114612dfc576040519150601f19603f3d011682016040523d82523d6000602084013e612e01565b606091505b50600081511415612e47576040517f08c379a0000000000000000000000000000000000000000000000000000000008152600401612e3e9061406d565b60405180910390fd5b805181602001fd5b63150b7a0260e01b7bffffffffffffffffffffffffffffffffffffffffffffffffffffffff1916817bffffffffffffffffffffffffffffffffffffffffffffffffffffffff191614915050612ea4565b600190505b949350505050565b612eb68383612f1a565b612ec36000848484612d15565b612f02576040517f08c379a0000000000000000000000000000000000000000000000000000000008152600401612ef99061406d565b60405180910390fd5b505050565b600080823b905060008111915050919050565b600073ffffffffffffffffffffffffffffffffffffffff168273ffffffffffffffffffffffffffffffffffffffff161415612f8a576040517f08c379a0000000000000000000000000000000000000000000000000000000008152600401612f819061418d565b60405180910390fd5b612f9381611daf565b15612fd3576040517f08c379a0000000000000000000000000000000000000000000000000000000008152600401612fca9061408d565b60405180910390fd5b612fdf60008383612ca1565b6001600360008473ffffffffffffffffffffffffffffffffffffffff1673ffffffffffffffffffffffffffffffffffffffff168152602001908152602001600020600082825461302f91906144e8565b92505081905550816002600083815260200190815260200160002060006101000a81548173ffffffffffffffffffffffffffffffffffffffff021916908373ffffffffffffffffffffffffffffffffffffffff160217905550808273ffffffffffffffffffffffffffffffffffffffff16600073ffffffffffffffffffffffffffffffffffffffff167fddf252ad1be2c89b69c2b068fc378daa952ba7f163c4a11628f55a4df523b3ef60405160405180910390a45050565b6040518060c001604052806000815260200160608152602001606081526020016000815260200160008152602001600081525090565b6040518060a0016040528060608152602001606081526020016000815260200160008152602001600081525090565b828054613159906146bd565b90600052602060002090601f01602090048101928261317b57600085556131c2565b82601f1061319457805160ff19168380011785556131c2565b828001600101855582156131c2579182015b828111156131c15782518255916020019190600101906131a6565b5b5090506131cf91906131d3565b5090565b5b808211156131ec5760008160009055506001016131d4565b5090565b60006132036131fe84614415565b6143f0565b90508281526020810184848401111561321b57600080fd5b61322684828561467b565b509392505050565b60008135905061323d81614eb9565b92915050565b60008135905061325281614ed0565b92915050565b60008151905061326781614ed0565b92915050565b60008135905061327c81614ee7565b92915050565b60008135905061329181614efe565b92915050565b6000815190506132a681614efe565b92915050565b600082601f8301126132bd57600080fd5b81356132cd8482602086016131f0565b91505092915050565b6000813590506132e581614f15565b92915050565b6000815190506132fa81614f15565b92915050565b60006020828403121561331257600080fd5b60006133208482850161322e565b91505092915050565b6000806040838503121561333c57600080fd5b600061334a8582860161322e565b925050602061335b8582860161322e565b9150509250929050565b60008060006060848603121561337a57600080fd5b60006133888682870161322e565b93505060206133998682870161322e565b92505060406133aa868287016132d6565b9150509250925092565b600080600080608085870312156133ca57600080fd5b60006133d88782880161322e565b94505060206133e98782880161322e565b93505060406133fa878288016132d6565b925050606085013567ffffffffffffffff81111561341757600080fd5b613423878288016132ac565b91505092959194509250565b6000806040838503121561344257600080fd5b60006134508582860161322e565b925050602061346185828601613243565b9150509250929050565b6000806040838503121561347e57600080fd5b600061348c8582860161322e565b925050602061349d858286016132d6565b9150509250929050565b6000602082840312156134b957600080fd5b60006134c784828501613258565b91505092915050565b600080604083850312156134e357600080fd5b60006134f18582860161326d565b9250506020613502858286016132d6565b9150509250929050565b60006020828403121561351e57600080fd5b600061352c84828501613282565b91505092915050565b60006020828403121561354757600080fd5b600061355584828501613297565b91505092915050565b60006020828403121561357057600080fd5b600061357e848285016132d6565b91505092915050565b60006020828403121561359957600080fd5b60006135a7848285016132eb565b91505092915050565b60006135bc8383613b67565b905092915050565b6135cd816145fd565b82525050565b60006135de8261446b565b6135e88185614499565b9350836020820285016135fa85614446565b8060005b85811015613636578484038952815161361785826135b0565b94506136228361448c565b925060208a019950506001810190506135fe565b50829750879550505050505092915050565b6136518161460f565b82525050565b6136608161461b565b82525050565b6136776136728261461b565b614769565b82525050565b600061368882614476565b61369281856144aa565b93506136a281856020860161468a565b6136ab8161486a565b840191505092915050565b60006136c182614481565b6136cb81856144bb565b93506136db81856020860161468a565b6136e48161486a565b840191505092915050565b60006136fa82614481565b61370481856144cc565b935061371481856020860161468a565b61371d8161486a565b840191505092915050565b600061373382614481565b61373d81856144dd565b935061374d81856020860161468a565b80840191505092915050565b60008154613766816146bd565b61377081866144cc565b9450600182166000811461378b576001811461379d576137d0565b60ff19831686526020860193506137d0565b6137a685614456565b60005b838110156137c8578154818901526001820191506020810190506137a9565b808801955050505b50505092915050565b60006137e6604e836144dd565b91506137f18261487b565b604e82019050919050565b6000613809600b836144dd565b9150613814826148f0565b600b82019050919050565b600061382c6032836144cc565b915061383782614919565b604082019050919050565b600061384f601c836144cc565b915061385a82614968565b602082019050919050565b60006138726035836144dd565b915061387d82614991565b603582019050919050565b60006138956013836144cc565b91506138a0826149e0565b602082019050919050565b60006138b8600e836144dd565b91506138c382614a09565b600e82019050919050565b60006138db6024836144cc565b91506138e682614a32565b604082019050919050565b60006138fe6019836144cc565b915061390982614a81565b602082019050919050565b6000613921602a836144dd565b915061392c82614aaa565b602a82019050919050565b6000613944602c836144cc565b915061394f82614af9565b604082019050919050565b60006139676038836144cc565b915061397282614b48565b604082019050919050565b600061398a602a836144cc565b915061399582614b97565b604082019050919050565b60006139ad6029836144cc565b91506139b882614be6565b604082019050919050565b60006139d06004836144dd565b91506139db82614c35565b600482019050919050565b60006139f36020836144cc565b91506139fe82614c5e565b602082019050919050565b6000613a16601d836144cc565b9150613a2182614c87565b602082019050919050565b6000613a39602c836144cc565b9150613a4482614cb0565b604082019050919050565b6000613a5c6029836144cc565b9150613a6782614cff565b604082019050919050565b6000613a7f600a836144dd565b9150613a8a82614d4e565b600a82019050919050565b6000613aa2601f836144cc565b9150613aad82614d77565b602082019050919050565b6000613ac56021836144cc565b9150613ad082614da0565b604082019050919050565b6000613ae8601a836144cc565b9150613af382614def565b602082019050919050565b6000613b0b601d836144dd565b9150613b1682614e18565b601d82019050919050565b6000613b2e6031836144cc565b9150613b3982614e41565b604082019050919050565b6000613b516015836144cc565b9150613b5c82614e90565b602082019050919050565b600060c083016000830151613b7f6000860182613d04565b5060208301518482036020860152613b9782826136b6565b91505060408301518482036040860152613bb182826136b6565b9150506060830151613bc66060860182613d04565b506080830151613bd96080860182613d04565b5060a0830151613bec60a0860182613d04565b508091505092915050565b600060c083016000830151613c0f6000860182613d04565b5060208301518482036020860152613c2782826136b6565b91505060408301518482036040860152613c4182826136b6565b9150506060830151613c566060860182613d04565b506080830151613c696080860182613d04565b5060a0830151613c7c60a0860182613d04565b508091505092915050565b600060a0830160008301518482036000860152613ca482826136b6565b91505060208301518482036020860152613cbe82826136b6565b9150506040830151613cd36040860182613d04565b506060830151613ce66060860182613d04565b506080830151613cf96080860182613d04565b508091505092915050565b613d0d81614671565b82525050565b613d1c81614671565b82525050565b613d33613d2e82614671565b614773565b82525050565b6000613d458285613666565b602082019150613d558284613d22565b6020820191508190509392505050565b6000613d7082613a72565b9150613d7c8289613728565b9150613d87826137fc565b9150613d938288613728565b9150613d9e826137d9565b9150613daa8287613728565b9150613db582613865565b9150613dc18286613728565b9150613dcc826138ab565b9150613dd88285613728565b9150613de382613914565b9150613def8284613728565b9150613dfa826139c3565b9150819050979650505050505050565b6000613e1582613afe565b9150613e218284613728565b915081905092915050565b6000602082019050613e4160008301846135c4565b92915050565b6000608082019050613e5c60008301876135c4565b613e6960208301866135c4565b613e766040830185613d13565b8181036060830152613e88818461367d565b905095945050505050565b6000606082019050613ea860008301866135c4565b613eb56020830185613d13565b8181036040830152613ec7818461367d565b9050949350505050565b60006020820190508181036000830152613eeb81846135d3565b905092915050565b6000602082019050613f086000830184613648565b92915050565b6000604082019050613f236000830185613657565b613f306020830184613d13565b9392505050565b6000608082019050613f4c6000830187613657565b613f596020830186613d13565b613f6660408301856135c4565b613f736060830184613d13565b95945050505050565b60006020820190508181036000830152613f9681846136ef565b905092915050565b600060a0820190508181036000830152613fb881886136ef565b90508181036020830152613fcc81876136ef565b9050613fdb6040830186613d13565b613fe86060830185613d13565b613ff56080830184613d13565b9695505050505050565b6000604082019050818103600083015261401981856136ef565b90506140286020830184613d13565b9392505050565b6000606082019050818103600083015261404981866136ef565b90506140586020830185613d13565b6140656040830184613d13565b949350505050565b600060208201905081810360008301526140868161381f565b9050919050565b600060208201905081810360008301526140a681613842565b9050919050565b600060208201905081810360008301526140c681613888565b9050919050565b600060208201905081810360008301526140e6816138ce565b9050919050565b60006020820190508181036000830152614106816138f1565b9050919050565b6000602082019050818103600083015261412681613937565b9050919050565b600060208201905081810360008301526141468161395a565b9050919050565b600060208201905081810360008301526141668161397d565b9050919050565b60006020820190508181036000830152614186816139a0565b9050919050565b600060208201905081810360008301526141a6816139e6565b9050919050565b600060208201905081810360008301526141c681613a09565b9050919050565b600060208201905081810360008301526141e681613a2c565b9050919050565b6000602082019050818103600083015261420681613a4f565b9050919050565b6000602082019050818103600083015261422681613a95565b9050919050565b6000602082019050818103600083015261424681613ab8565b9050919050565b6000602082019050818103600083015261426681613adb565b9050919050565b6000602082019050818103600083015261428681613b21565b9050919050565b600060208201905081810360008301526142a681613b44565b9050919050565b600060208201905081810360008301526142c78184613bf7565b905092915050565b600060208201905081810360008301526142e98184613c87565b905092915050565b60006020820190506143066000830184613d13565b92915050565b600060c0820190506143216000830189613d13565b818103602083015261433381886136ef565b9050818103604083015261434781876136ef565b90506143566060830186613d13565b6143636080830185613d13565b61437060a0830184613d13565b979650505050505050565b60006040820190506143906000830185613d13565b81810360208301526143a28184613759565b90509392505050565b60006080820190506143c06000830187613d13565b6143cd6020830186613d13565b6143da6040830185613d13565b6143e76060830184613d13565b95945050505050565b60006143fa61440b565b905061440682826146ef565b919050565b6000604051905090565b600067ffffffffffffffff8211156144305761442f61483b565b5b6144398261486a565b9050602081019050919050565b6000819050602082019050919050565b60008190508160005260206000209050919050565b600081519050919050565b600081519050919050565b600081519050919050565b6000602082019050919050565b600082825260208201905092915050565b600082825260208201905092915050565b600082825260208201905092915050565b600082825260208201905092915050565b600081905092915050565b60006144f382614671565b91506144fe83614671565b9250827fffffffffffffffffffffffffffffffffffffffffffffffffffffffffffffffff03821115614533576145326147ae565b5b828201905092915050565b600061454982614671565b915061455483614671565b925082614564576145636147dd565b5b828204905092915050565b600061457a82614671565b915061458583614671565b9250817fffffffffffffffffffffffffffffffffffffffffffffffffffffffffffffffff04831182151516156145be576145bd6147ae565b5b828202905092915050565b60006145d482614671565b91506145df83614671565b9250828210156145f2576145f16147ae565b5b828203905092915050565b600061460882614651565b9050919050565b60008115159050919050565b6000819050919050565b60007fffffffff0000000000000000000000000000000000000000000000000000000082169050919050565b600073ffffffffffffffffffffffffffffffffffffffff82169050919050565b6000819050919050565b82818337600083830152505050565b60005b838110156146a857808201518184015260208101905061468d565b838111156146b7576000848401525b50505050565b600060028204905060018216806146d557607f821691505b602082108114156146e9576146e861480c565b5b50919050565b6146f88261486a565b810181811067ffffffffffffffff821117156147175761471661483b565b5b80604052505050565b600061472b82614671565b91507fffffffffffffffffffffffffffffffffffffffffffffffffffffffffffffffff82141561475e5761475d6147ae565b5b600182019050919050565b6000819050919050565b6000819050919050565b600061478882614671565b915061479383614671565b9250826147a3576147a26147dd565b5b828206905092915050565b7f4e487b7100000000000000000000000000000000000000000000000000000000600052601160045260246000fd5b7f4e487b7100000000000000000000000000000000000000000000000000000000600052601260045260246000fd5b7f4e487b7100000000000000000000000000000000000000000000000000000000600052602260045260246000fd5b7f4e487b7100000000000000000000000000000000000000000000000000000000600052604160045260246000fd5b6000601f19601f8301169050919050565b7f222c20226465736372697074696f6e223a20224e46542074686174206973207560008201527f73656420746f20706c61792074686520646963652067616d652e222c2022696d60208201527f616765223a2022697066733a2f2f000000000000000000000000000000000000604082015250565b7f202d2d204e465420233a20000000000000000000000000000000000000000000600082015250565b7f4552433732313a207472616e7366657220746f206e6f6e20455243373231526560008201527f63656976657220696d706c656d656e7465720000000000000000000000000000602082015250565b7f4552433732313a20746f6b656e20616c7265616479206d696e74656400000000600082015250565b7f222c202261747472696275746573223a205b207b202274726169745f7479706560008201527f223a202246756e6473222c202276616c7565223a200000000000000000000000602082015250565b7f706c6179657220686173206e6f2066756e647300000000000000000000000000600082015250565b7f2c20226d61785f76616c7565223a000000000000000000000000000000000000600082015250565b7f4552433732313a207472616e7366657220746f20746865207a65726f2061646460008201527f7265737300000000000000000000000000000000000000000000000000000000602082015250565b7f4552433732313a20617070726f766520746f2063616c6c657200000000000000600082015250565b7f7d2c207b202274726169745f74797065223a202257616765722053697a65222c60008201527f202276616c7565223a2000000000000000000000000000000000000000000000602082015250565b7f4552433732313a206f70657261746f7220717565727920666f72206e6f6e657860008201527f697374656e7420746f6b656e0000000000000000000000000000000000000000602082015250565b7f4552433732313a20617070726f76652063616c6c6572206973206e6f74206f7760008201527f6e6572206e6f7220617070726f76656420666f7220616c6c0000000000000000602082015250565b7f4552433732313a2062616c616e636520717565727920666f7220746865207a6560008201527f726f206164647265737300000000000000000000000000000000000000000000602082015250565b7f4552433732313a206f776e657220717565727920666f72206e6f6e657869737460008201527f656e7420746f6b656e0000000000000000000000000000000000000000000000602082015250565b7f7d205d7d00000000000000000000000000000000000000000000000000000000600082015250565b7f4552433732313a206d696e7420746f20746865207a65726f2061646472657373600082015250565b7f4e6f204e465420666f756e6420666f7220746869732061646472657373000000600082015250565b7f4552433732313a20617070726f76656420717565727920666f72206e6f6e657860008201527f697374656e7420746f6b656e0000000000000000000000000000000000000000602082015250565b7f4552433732313a207472616e73666572206f6620746f6b656e2074686174206960008201527f73206e6f74206f776e0000000000000000000000000000000000000000000000602082015250565b7f7b226e616d65223a202200000000000000000000000000000000000000000000600082015250565b7f4f6e6c7920565246436f6f7264696e61746f722063616e2066756c66696c6c00600082015250565b7f4552433732313a20617070726f76616c20746f2063757272656e74206f776e6560008201527f7200000000000000000000000000000000000000000000000000000000000000602082015250565b7f4e6f7420656e6f756768204c494e4b20746f2070617920666565000000000000600082015250565b7f646174613a6170706c69636174696f6e2f6a736f6e3b6261736536342c000000600082015250565b7f4552433732313a207472616e736665722063616c6c6572206973206e6f74206f60008201527f776e6572206e6f7220617070726f766564000000000000000000000000000000602082015250565b7f6f70706f6e656e7420686173206e6f2066756e64730000000000000000000000600082015250565b614ec2816145fd565b8114614ecd57600080fd5b50565b614ed98161460f565b8114614ee457600080fd5b50565b614ef08161461b565b8114614efb57600080fd5b50565b614f0781614625565b8114614f1257600080fd5b50565b614f1e81614671565b8114614f2957600080fd5b5056fe4d696e746564206368617261637465722023257320776974682074726169747320696e6465782025734142434445464748494a4b4c4d4e4f505152535455565758595a6162636465666768696a6b6c6d6e6f707172737475767778797a303132333435363738392b2fa2646970667358221220bdf7d6f31e82fd21d1eeba58162bfb44d65ebfb3553f1ee19295851a63eb4ab464736f6c63430008040033696e697469616c697a65642025732064656661756c74206368617261637465727320616e64206f70706f6e656e74",
    "linkReferences": {},
    "deployedLinkReferences": {}
}