{
  "_format": "hh-sol-artifact-1",
  "contractName": "TrulyRandomGame",
  "sourceName": "contracts/TrulyRandomGame.sol",
  "abi": [
    {
      "inputs": [
        {
          "internalType": "string[]",
          "name": "names",
          "type": "string[]"
        },
        {
          "internalType": "string[]",
          "name": "imageURIs",
          "type": "string[]"
        },
        {
          "internalType": "uint256[]",
          "name": "initialFunds",
          "type": "uint256[]"
        },
        {
          "internalType": "uint256[]",
          "name": "wagerSizes",
          "type": "uint256[]"
        },
        {
          "internalType": "string",
          "name": "opponentName",
          "type": "string"
        },
        {
          "internalType": "string",
          "name": "opponentImageURI",
          "type": "string"
        },
        {
          "internalType": "uint256",
          "name": "opponentFunds",
          "type": "uint256"
        },
        {
          "internalType": "uint256",
          "name": "opponentWagerSize",
          "type": "uint256"
        }
      ],
      "stateMutability": "nonpayable",
      "type": "constructor"
    },
    {
      "anonymous": false,
      "inputs": [
        {
          "indexed": true,
          "internalType": "address",
          "name": "owner",
          "type": "address"
        },
        {
          "indexed": true,
          "internalType": "address",
          "name": "approved",
          "type": "address"
        },
        {
          "indexed": true,
          "internalType": "uint256",
          "name": "tokenId",
          "type": "uint256"
        }
      ],
      "name": "Approval",
      "type": "event"
    },
    {
      "anonymous": false,
      "inputs": [
        {
          "indexed": true,
          "internalType": "address",
          "name": "owner",
          "type": "address"
        },
        {
          "indexed": true,
          "internalType": "address",
          "name": "operator",
          "type": "address"
        },
        {
          "indexed": false,
          "internalType": "bool",
          "name": "approved",
          "type": "bool"
        }
      ],
      "name": "ApprovalForAll",
      "type": "event"
    },
    {
      "anonymous": false,
      "inputs": [
        {
          "indexed": false,
          "internalType": "uint256",
          "name": "tokenId",
          "type": "uint256"
        },
        {
          "indexed": false,
          "internalType": "string",
          "name": "name",
          "type": "string"
        }
      ],
      "name": "CharacterMint",
      "type": "event"
    },
    {
      "anonymous": false,
      "inputs": [
        {
          "indexed": true,
          "internalType": "bytes32",
          "name": "requestId",
          "type": "bytes32"
        },
        {
          "indexed": true,
          "internalType": "uint256",
          "name": "playerResult",
          "type": "uint256"
        },
        {
          "indexed": true,
          "internalType": "uint256",
          "name": "opponentResult",
          "type": "uint256"
        }
      ],
      "name": "DiceLanded",
      "type": "event"
    },
    {
      "anonymous": false,
      "inputs": [
        {
          "indexed": false,
          "internalType": "uint256",
          "name": "playerRoll",
          "type": "uint256"
        },
        {
          "indexed": false,
          "internalType": "uint256",
          "name": "opponentRoll",
          "type": "uint256"
        },
        {
          "indexed": false,
          "internalType": "uint256",
          "name": "newPlayerFunds",
          "type": "uint256"
        },
        {
          "indexed": false,
          "internalType": "uint256",
          "name": "newOpponentFunds",
          "type": "uint256"
        }
      ],
      "name": "DiceRollResult",
      "type": "event"
    },
    {
      "anonymous": false,
      "inputs": [
        {
          "indexed": true,
          "internalType": "bytes32",
          "name": "requestId",
          "type": "bytes32"
        },
        {
          "indexed": true,
          "internalType": "address",
          "name": "roller",
          "type": "address"
        }
      ],
      "name": "DiceRolled",
      "type": "event"
    },
    {
      "anonymous": false,
      "inputs": [
        {
          "indexed": true,
          "internalType": "address",
          "name": "from",
          "type": "address"
        },
        {
          "indexed": true,
          "internalType": "address",
          "name": "to",
          "type": "address"
        },
        {
          "indexed": true,
          "internalType": "uint256",
          "name": "tokenId",
          "type": "uint256"
        }
      ],
      "name": "Transfer",
      "type": "event"
    },
    {
      "inputs": [
        {
          "internalType": "address",
          "name": "to",
          "type": "address"
        },
        {
          "internalType": "uint256",
          "name": "tokenId",
          "type": "uint256"
        }
      ],
      "name": "approve",
      "outputs": [],
      "stateMutability": "nonpayable",
      "type": "function"
    },
    {
      "inputs": [
        {
          "internalType": "address",
          "name": "owner",
          "type": "address"
        }
      ],
      "name": "balanceOf",
      "outputs": [
        {
          "internalType": "uint256",
          "name": "",
          "type": "uint256"
        }
      ],
      "stateMutability": "view",
      "type": "function"
    },
    {
      "inputs": [
        {
          "internalType": "uint256",
          "name": "",
          "type": "uint256"
        }
      ],
      "name": "characterMetadata",
      "outputs": [
        {
          "internalType": "uint256",
          "name": "index",
          "type": "uint256"
        },
        {
          "internalType": "string",
          "name": "name",
          "type": "string"
        },
        {
          "internalType": "string",
          "name": "imageURI",
          "type": "string"
        },
        {
          "internalType": "uint256",
          "name": "maxFunds",
          "type": "uint256"
        },
        {
          "internalType": "uint256",
          "name": "currentFunds",
          "type": "uint256"
        },
        {
          "internalType": "uint256",
          "name": "wagerSize",
          "type": "uint256"
        }
      ],
      "stateMutability": "view",
      "type": "function"
    },
    {
      "inputs": [
        {
          "internalType": "uint256",
          "name": "tokenId",
          "type": "uint256"
        }
      ],
      "name": "getApproved",
      "outputs": [
        {
          "internalType": "address",
          "name": "",
          "type": "address"
        }
      ],
      "stateMutability": "view",
      "type": "function"
    },
    {
      "inputs": [],
      "name": "getDefaultCharacterTraits",
      "outputs": [
        {
          "components": [
            {
              "internalType": "uint256",
              "name": "index",
              "type": "uint256"
            },
            {
              "internalType": "string",
              "name": "name",
              "type": "string"
            },
            {
              "internalType": "string",
              "name": "imageURI",
              "type": "string"
            },
            {
              "internalType": "uint256",
              "name": "maxFunds",
              "type": "uint256"
            },
            {
              "internalType": "uint256",
              "name": "currentFunds",
              "type": "uint256"
            },
            {
              "internalType": "uint256",
              "name": "wagerSize",
              "type": "uint256"
            }
          ],
          "internalType": "struct CharacterTraits[]",
          "name": "",
          "type": "tuple[]"
        }
      ],
      "stateMutability": "view",
      "type": "function"
    },
    {
      "inputs": [],
      "name": "getOpponent",
      "outputs": [
        {
          "components": [
            {
              "internalType": "string",
              "name": "name",
              "type": "string"
            },
            {
              "internalType": "string",
              "name": "imageURI",
              "type": "string"
            },
            {
              "internalType": "uint256",
              "name": "maxFunds",
              "type": "uint256"
            },
            {
              "internalType": "uint256",
              "name": "currentFunds",
              "type": "uint256"
            },
            {
              "internalType": "uint256",
              "name": "wagerSize",
              "type": "uint256"
            }
          ],
          "internalType": "struct Opponent",
          "name": "",
          "type": "tuple"
        }
      ],
      "stateMutability": "view",
      "type": "function"
    },
    {
      "inputs": [],
      "name": "getUserNFT",
      "outputs": [
        {
          "components": [
            {
              "internalType": "uint256",
              "name": "index",
              "type": "uint256"
            },
            {
              "internalType": "string",
              "name": "name",
              "type": "string"
            },
            {
              "internalType": "string",
              "name": "imageURI",
              "type": "string"
            },
            {
              "internalType": "uint256",
              "name": "maxFunds",
              "type": "uint256"
            },
            {
              "internalType": "uint256",
              "name": "currentFunds",
              "type": "uint256"
            },
            {
              "internalType": "uint256",
              "name": "wagerSize",
              "type": "uint256"
            }
          ],
          "internalType": "struct CharacterTraits",
          "name": "",
          "type": "tuple"
        }
      ],
      "stateMutability": "view",
      "type": "function"
    },
    {
      "inputs": [
        {
          "internalType": "address",
          "name": "owner",
          "type": "address"
        },
        {
          "internalType": "address",
          "name": "operator",
          "type": "address"
        }
      ],
      "name": "isApprovedForAll",
      "outputs": [
        {
          "internalType": "bool",
          "name": "",
          "type": "bool"
        }
      ],
      "stateMutability": "view",
      "type": "function"
    },
    {
      "inputs": [
        {
          "internalType": "uint256",
          "name": "_characterIndex",
          "type": "uint256"
        }
      ],
      "name": "mintCharacterNFT",
      "outputs": [],
      "stateMutability": "nonpayable",
      "type": "function"
    },
    {
      "inputs": [],
      "name": "name",
      "outputs": [
        {
          "internalType": "string",
          "name": "",
          "type": "string"
        }
      ],
      "stateMutability": "view",
      "type": "function"
    },
    {
      "inputs": [],
      "name": "opponent",
      "outputs": [
        {
          "internalType": "string",
          "name": "name",
          "type": "string"
        },
        {
          "internalType": "string",
          "name": "imageURI",
          "type": "string"
        },
        {
          "internalType": "uint256",
          "name": "maxFunds",
          "type": "uint256"
        },
        {
          "internalType": "uint256",
          "name": "currentFunds",
          "type": "uint256"
        },
        {
          "internalType": "uint256",
          "name": "wagerSize",
          "type": "uint256"
        }
      ],
      "stateMutability": "view",
      "type": "function"
    },
    {
      "inputs": [
        {
          "internalType": "address",
          "name": "",
          "type": "address"
        }
      ],
      "name": "ownerCharacterIds",
      "outputs": [
        {
          "internalType": "uint256",
          "name": "",
          "type": "uint256"
        }
      ],
      "stateMutability": "view",
      "type": "function"
    },
    {
      "inputs": [
        {
          "internalType": "uint256",
          "name": "tokenId",
          "type": "uint256"
        }
      ],
      "name": "ownerOf",
      "outputs": [
        {
          "internalType": "address",
          "name": "",
          "type": "address"
        }
      ],
      "stateMutability": "view",
      "type": "function"
    },
    {
      "inputs": [
        {
          "internalType": "bytes32",
          "name": "requestId",
          "type": "bytes32"
        },
        {
          "internalType": "uint256",
          "name": "randomness",
          "type": "uint256"
        }
      ],
      "name": "rawFulfillRandomness",
      "outputs": [],
      "stateMutability": "nonpayable",
      "type": "function"
    },
    {
      "inputs": [],
      "name": "rollTheDice",
      "outputs": [],
      "stateMutability": "nonpayable",
      "type": "function"
    },
    {
      "inputs": [
        {
          "internalType": "address",
          "name": "from",
          "type": "address"
        },
        {
          "internalType": "address",
          "name": "to",
          "type": "address"
        },
        {
          "internalType": "uint256",
          "name": "tokenId",
          "type": "uint256"
        }
      ],
      "name": "safeTransferFrom",
      "outputs": [],
      "stateMutability": "nonpayable",
      "type": "function"
    },
    {
      "inputs": [
        {
          "internalType": "address",
          "name": "from",
          "type": "address"
        },
        {
          "internalType": "address",
          "name": "to",
          "type": "address"
        },
        {
          "internalType": "uint256",
          "name": "tokenId",
          "type": "uint256"
        },
        {
          "internalType": "bytes",
          "name": "_data",
          "type": "bytes"
        }
      ],
      "name": "safeTransferFrom",
      "outputs": [],
      "stateMutability": "nonpayable",
      "type": "function"
    },
    {
      "inputs": [
        {
          "internalType": "address",
          "name": "operator",
          "type": "address"
        },
        {
          "internalType": "bool",
          "name": "approved",
          "type": "bool"
        }
      ],
      "name": "setApprovalForAll",
      "outputs": [],
      "stateMutability": "nonpayable",
      "type": "function"
    },
    {
      "inputs": [
        {
          "internalType": "bytes4",
          "name": "interfaceId",
          "type": "bytes4"
        }
      ],
      "name": "supportsInterface",
      "outputs": [
        {
          "internalType": "bool",
          "name": "",
          "type": "bool"
        }
      ],
      "stateMutability": "view",
      "type": "function"
    },
    {
      "inputs": [],
      "name": "symbol",
      "outputs": [
        {
          "internalType": "string",
          "name": "",
          "type": "string"
        }
      ],
      "stateMutability": "view",
      "type": "function"
    },
    {
      "inputs": [
        {
          "internalType": "uint256",
          "name": "_tokenId",
          "type": "uint256"
        }
      ],
      "name": "tokenURI",
      "outputs": [
        {
          "internalType": "string",
          "name": "",
          "type": "string"
        }
      ],
      "stateMutability": "view",
      "type": "function"
    },
    {
      "inputs": [
        {
          "internalType": "address",
          "name": "from",
          "type": "address"
        },
        {
          "internalType": "address",
          "name": "to",
          "type": "address"
        },
        {
          "internalType": "uint256",
          "name": "tokenId",
          "type": "uint256"
        }
      ],
      "name": "transferFrom",
      "outputs": [],
      "stateMutability": "nonpayable",
      "type": "function"
    }
  ],
  "bytecode": "0x60c06040523480156200001157600080fd5b5060405162005bc438038062005bc4833981810160405281019062000037919062000832565b73b3dccb4cf7a26f6cf6b120cf5a73875b7bbc655b7301be23585060835e02b77ef475b0cc51aa1e07096040518060400160405280600881526020017f4469636547616d650000000000000000000000000000000000000000000000008152506040518060400160405280600481526020017f44494345000000000000000000000000000000000000000000000000000000008152508160009080519060200190620000e59291906200059a565b508060019080519060200190620000fe9291906200059a565b5050508173ffffffffffffffffffffffffffffffffffffffff1660a08173ffffffffffffffffffffffffffffffffffffffff1660601b815250508073ffffffffffffffffffffffffffffffffffffffff1660808173ffffffffffffffffffffffffffffffffffffffff1660601b81525050505060005b8851811015620003995760086040518060c001604052808381526020018b8481518110620001cb577f4e487b7100000000000000000000000000000000000000000000000000000000600052603260045260246000fd5b602002602001015181526020018a848151811062000212577f4e487b7100000000000000000000000000000000000000000000000000000000600052603260045260246000fd5b6020026020010151815260200189848151811062000259577f4e487b7100000000000000000000000000000000000000000000000000000000600052603260045260246000fd5b60200260200101518152602001898481518110620002a0577f4e487b7100000000000000000000000000000000000000000000000000000000600052603260045260246000fd5b60200260200101518152602001888481518110620002e7577f4e487b7100000000000000000000000000000000000000000000000000000000600052603260045260246000fd5b60200260200101518152509080600181540180825580915050600190039060005260206000209060060201600090919091909150600082015181600001556020820151816001019080519060200190620003439291906200059a565b506040820151816002019080519060200190620003629291906200059a565b50606082015181600301556080820151816004015560a0820151816005015550508080620003909062000b96565b91505062000174565b506040518060a001604052808581526020018481526020018381526020018381526020018281525060096000820151816000019080519060200190620003e19291906200059a565b506020820151816001019080519060200190620004009291906200059a565b50604082015181600201556060820151816003015560808201518160040155905050620004396007620004b560201b62001c261760201c565b7f2ed0feb3e7fd2022120aa84fab1945545a9f2ffc9076fd6156fa96eaff4c131160001b60108190555067016345785d8a0000601181905550620004a76040518060600160405280602e815260200162005b96602e9139600880549050620004cb60201b62001c3c1760201c565b505050505050505062000c9c565b6001816000016000828254019250508190555050565b6200056d8282604051602401620004e4929190620009dd565b6040516020818303038152906040527f9710a9d0000000000000000000000000000000000000000000000000000000007bffffffffffffffffffffffffffffffffffffffffffffffffffffffff19166020820180517bffffffffffffffffffffffffffffffffffffffffffffffffffffffff83818316178352505050506200057160201b60201c565b5050565b60008151905060006a636f6e736f6c652e6c6f679050602083016000808483855afa5050505050565b828054620005a89062000b2a565b90600052602060002090601f016020900481019282620005cc576000855562000618565b82601f10620005e757805160ff191683800117855562000618565b8280016001018555821562000618579182015b8281111562000617578251825591602001919060010190620005fa565b5b5090506200062791906200062b565b5090565b5b80821115620006465760008160009055506001016200062c565b5090565b6000620006616200065b8462000a3a565b62000a11565b905080838252602082019050828560208602820111156200068157600080fd5b60005b85811015620006d057815167ffffffffffffffff811115620006a557600080fd5b808601620006b48982620007ee565b8552602085019450602084019350505060018101905062000684565b5050509392505050565b6000620006f1620006eb8462000a69565b62000a11565b905080838252602082019050828560208602820111156200071157600080fd5b60005b858110156200074557816200072a88826200081b565b84526020840193506020830192505060018101905062000714565b5050509392505050565b600062000766620007608462000a98565b62000a11565b9050828152602081018484840111156200077f57600080fd5b6200078c84828562000af4565b509392505050565b600082601f830112620007a657600080fd5b8151620007b88482602086016200064a565b91505092915050565b600082601f830112620007d357600080fd5b8151620007e5848260208601620006da565b91505092915050565b600082601f8301126200080057600080fd5b8151620008128482602086016200074f565b91505092915050565b6000815190506200082c8162000c82565b92915050565b600080600080600080600080610100898b0312156200085057600080fd5b600089015167ffffffffffffffff8111156200086b57600080fd5b620008798b828c0162000794565b985050602089015167ffffffffffffffff8111156200089757600080fd5b620008a58b828c0162000794565b975050604089015167ffffffffffffffff811115620008c357600080fd5b620008d18b828c01620007c1565b965050606089015167ffffffffffffffff811115620008ef57600080fd5b620008fd8b828c01620007c1565b955050608089015167ffffffffffffffff8111156200091b57600080fd5b620009298b828c01620007ee565b94505060a089015167ffffffffffffffff8111156200094757600080fd5b620009558b828c01620007ee565b93505060c0620009688b828c016200081b565b92505060e06200097b8b828c016200081b565b9150509295985092959890939650565b6000620009988262000ace565b620009a4818562000ad9565b9350620009b681856020860162000af4565b620009c18162000c71565b840191505092915050565b620009d78162000aea565b82525050565b60006040820190508181036000830152620009f981856200098b565b905062000a0a6020830184620009cc565b9392505050565b600062000a1d62000a30565b905062000a2b828262000b60565b919050565b6000604051905090565b600067ffffffffffffffff82111562000a585762000a5762000c42565b5b602082029050602081019050919050565b600067ffffffffffffffff82111562000a875762000a8662000c42565b5b602082029050602081019050919050565b600067ffffffffffffffff82111562000ab65762000ab562000c42565b5b62000ac18262000c71565b9050602081019050919050565b600081519050919050565b600082825260208201905092915050565b6000819050919050565b60005b8381101562000b1457808201518184015260208101905062000af7565b8381111562000b24576000848401525b50505050565b6000600282049050600182168062000b4357607f821691505b6020821081141562000b5a5762000b5962000c13565b5b50919050565b62000b6b8262000c71565b810181811067ffffffffffffffff8211171562000b8d5762000b8c62000c42565b5b80604052505050565b600062000ba38262000aea565b91507fffffffffffffffffffffffffffffffffffffffffffffffffffffffffffffffff82141562000bd95762000bd862000be4565b5b600182019050919050565b7f4e487b7100000000000000000000000000000000000000000000000000000000600052601160045260246000fd5b7f4e487b7100000000000000000000000000000000000000000000000000000000600052602260045260246000fd5b7f4e487b7100000000000000000000000000000000000000000000000000000000600052604160045260246000fd5b6000601f19601f8301169050919050565b62000c8d8162000aea565b811462000c9957600080fd5b50565b60805160601c60a05160601c614ec062000cd66000396000818161124101526121e9015260008181610f7601526121ad0152614ec06000f3fe608060405234801561001057600080fd5b50600436106101425760003560e01c806378ec0e46116100b8578063a22cb4651161007c578063a22cb46514610369578063b88d4fde14610385578063c87b56dd146103a1578063e985e9c5146103d1578063edc12a2814610401578063f8b81ef71461043657610142565b806378ec0e46146102e55780637d789dee1461030357806393694f671461030d57806394985ddd1461032f57806395d89b411461034b57610142565b8063260fb0e21161010a578063260fb0e2146101fd57806334238d931461022d578063395800541461024b57806342842e0e146102695780636352211e1461028557806370a08231146102b557610142565b806301ffc9a71461014757806306fdde0314610177578063081812fc14610195578063095ea7b3146101c557806323b872dd146101e1575b600080fd5b610161600480360381019061015c9190613401565b610452565b60405161016e9190613de8565b60405180910390f35b61017f610534565b60405161018c9190613e71565b60405180910390f35b6101af60048036038101906101aa9190613453565b6105c6565b6040516101bc9190613d21565b60405180910390f35b6101df60048036038101906101da9190613360565b61064b565b005b6101fb60048036038101906101f6919061325a565b610763565b005b610217600480360381019061021291906131f5565b6107c3565b60405161022491906141e6565b60405180910390f35b6102356107db565b60405161024291906141a2565b60405180910390f35b6102536109b3565b60405161026091906141c4565b60405180910390f35b610283600480360381019061027e919061325a565b610b0f565b005b61029f600480360381019061029a9190613453565b610b2f565b6040516102ac9190613d21565b60405180910390f35b6102cf60048036038101906102ca91906131f5565b610be1565b6040516102dc91906141e6565b60405180910390f35b6102ed610c99565b6040516102fa9190613dc6565b60405180910390f35b61030b610e44565b005b61031561110b565b604051610326959493929190613e93565b60405180910390f35b610349600480360381019061034491906133c5565b61123f565b005b6103536112db565b6040516103609190613e71565b60405180910390f35b610383600480360381019061037e9190613324565b61136d565b005b61039f600480360381019061039a91906132a9565b611383565b005b6103bb60048036038101906103b69190613453565b6113e5565b6040516103c89190613e71565b60405180910390f35b6103eb60048036038101906103e6919061321e565b611600565b6040516103f89190613de8565b60405180910390f35b61041b60048036038101906104169190613453565b611694565b60405161042d96959493929190614201565b60405180910390f35b610450600480360381019061044b9190613453565b6117e0565b005b60007f80ac58cd000000000000000000000000000000000000000000000000000000007bffffffffffffffffffffffffffffffffffffffffffffffffffffffff1916827bffffffffffffffffffffffffffffffffffffffffffffffffffffffff1916148061051d57507f5b5e139f000000000000000000000000000000000000000000000000000000007bffffffffffffffffffffffffffffffffffffffffffffffffffffffff1916827bffffffffffffffffffffffffffffffffffffffffffffffffffffffff1916145b8061052d575061052c82611cd8565b5b9050919050565b606060008054610543906145b2565b80601f016020809104026020016040519081016040528092919081815260200182805461056f906145b2565b80156105bc5780601f10610591576101008083540402835291602001916105bc565b820191906000526020600020905b81548152906001019060200180831161059f57829003601f168201915b5050505050905090565b60006105d182611d42565b610610576040517f08c379a0000000000000000000000000000000000000000000000000000000008152600401610607906140c2565b60405180910390fd5b6004600083815260200190815260200160002060009054906101000a900473ffffffffffffffffffffffffffffffffffffffff169050919050565b600061065682610b2f565b90508073ffffffffffffffffffffffffffffffffffffffff168373ffffffffffffffffffffffffffffffffffffffff1614156106c7576040517f08c379a00000000000000000000000000000000000000000000000000000000081526004016106be90614122565b60405180910390fd5b8073ffffffffffffffffffffffffffffffffffffffff166106e6611dae565b73ffffffffffffffffffffffffffffffffffffffff16148061071557506107148161070f611dae565b611600565b5b610754576040517f08c379a000000000000000000000000000000000000000000000000000000000815260040161074b90614022565b60405180910390fd5b61075e8383611db6565b505050565b61077461076e611dae565b82611e6f565b6107b3576040517f08c379a00000000000000000000000000000000000000000000000000000000081526004016107aa90614162565b60405180910390fd5b6107be838383611f4d565b505050565b600f6020528060005260406000206000915090505481565b6107e3612fdd565b6000600f60003373ffffffffffffffffffffffffffffffffffffffff1673ffffffffffffffffffffffffffffffffffffffff168152602001908152602001600020549050600081141561084257610838612fdd565b80925050506109b0565b600e60008281526020019081526020016000206040518060c00160405290816000820154815260200160018201805461087a906145b2565b80601f01602080910402602001604051908101604052809291908181526020018280546108a6906145b2565b80156108f35780601f106108c8576101008083540402835291602001916108f3565b820191906000526020600020905b8154815290600101906020018083116108d657829003601f168201915b5050505050815260200160028201805461090c906145b2565b80601f0160208091040260200160405190810160405280929190818152602001828054610938906145b2565b80156109855780601f1061095a57610100808354040283529160200191610985565b820191906000526020600020905b81548152906001019060200180831161096857829003601f168201915b5050505050815260200160038201548152602001600482015481526020016005820154815250509150505b90565b6109bb613013565b60096040518060a00160405290816000820180546109d8906145b2565b80601f0160208091040260200160405190810160405280929190818152602001828054610a04906145b2565b8015610a515780601f10610a2657610100808354040283529160200191610a51565b820191906000526020600020905b815481529060010190602001808311610a3457829003601f168201915b50505050508152602001600182018054610a6a906145b2565b80601f0160208091040260200160405190810160405280929190818152602001828054610a96906145b2565b8015610ae35780601f10610ab857610100808354040283529160200191610ae3565b820191906000526020600020905b815481529060010190602001808311610ac657829003601f168201915b505050505081526020016002820154815260200160038201548152602001600482015481525050905090565b610b2a83838360405180602001604052806000815250611383565b505050565b6000806002600084815260200190815260200160002060009054906101000a900473ffffffffffffffffffffffffffffffffffffffff169050600073ffffffffffffffffffffffffffffffffffffffff168173ffffffffffffffffffffffffffffffffffffffff161415610bd8576040517f08c379a0000000000000000000000000000000000000000000000000000000008152600401610bcf90614062565b60405180910390fd5b80915050919050565b60008073ffffffffffffffffffffffffffffffffffffffff168273ffffffffffffffffffffffffffffffffffffffff161415610c52576040517f08c379a0000000000000000000000000000000000000000000000000000000008152600401610c4990614042565b60405180910390fd5b600360008373ffffffffffffffffffffffffffffffffffffffff1673ffffffffffffffffffffffffffffffffffffffff168152602001908152602001600020549050919050565b60606008805480602002602001604051908101604052809291908181526020016000905b82821015610e3b57838290600052602060002090600602016040518060c001604052908160008201548152602001600182018054610cfa906145b2565b80601f0160208091040260200160405190810160405280929190818152602001828054610d26906145b2565b8015610d735780601f10610d4857610100808354040283529160200191610d73565b820191906000526020600020905b815481529060010190602001808311610d5657829003601f168201915b50505050508152602001600282018054610d8c906145b2565b80601f0160208091040260200160405190810160405280929190818152602001828054610db8906145b2565b8015610e055780601f10610dda57610100808354040283529160200191610e05565b820191906000526020600020905b815481529060010190602001808311610de857829003601f168201915b50505050508152602001600382015481526020016004820154815260200160058201548152505081526020019060010190610cbd565b50505050905090565b6000600f60003373ffffffffffffffffffffffffffffffffffffffff1673ffffffffffffffffffffffffffffffffffffffff16815260200190815260200160002054905060008111610ecb576040517f08c379a0000000000000000000000000000000000000000000000000000000008152600401610ec2906140a2565b60405180910390fd5b6000600e600083815260200190815260200160002090506000816004015411610f29576040517f08c379a0000000000000000000000000000000000000000000000000000000008152600401610f2090613fa2565b60405180910390fd5b600060096003015411610f71576040517f08c379a0000000000000000000000000000000000000000000000000000000008152600401610f6890614182565b60405180910390fd5b6011547f000000000000000000000000000000000000000000000000000000000000000073ffffffffffffffffffffffffffffffffffffffff166370a08231306040518263ffffffff1660e01b8152600401610fcd9190613d21565b60206040518083038186803b158015610fe557600080fd5b505afa158015610ff9573d6000803e3d6000fd5b505050506040513d601f19601f8201168201806040525081019061101d919061347c565b101561105e576040517f08c379a000000000000000000000000000000000000000000000000000000000815260040161105590614142565b60405180910390fd5b600061106e6010546011546121a9565b9050336012600083815260200190815260200160002060006101000a81548173ffffffffffffffffffffffffffffffffffffffff021916908373ffffffffffffffffffffffffffffffffffffffff1602179055503373ffffffffffffffffffffffffffffffffffffffff16817f923de4fc4aece24a78a9e4ca3009c571a742f81ac2c004a229224b0fd1883bdd60405160405180910390a3505050565b600980600001805461111c906145b2565b80601f0160208091040260200160405190810160405280929190818152602001828054611148906145b2565b80156111955780601f1061116a57610100808354040283529160200191611195565b820191906000526020600020905b81548152906001019060200180831161117857829003601f168201915b5050505050908060010180546111aa906145b2565b80601f01602080910402602001604051908101604052809291908181526020018280546111d6906145b2565b80156112235780601f106111f857610100808354040283529160200191611223565b820191906000526020600020905b81548152906001019060200180831161120657829003601f168201915b5050505050908060020154908060030154908060040154905085565b7f000000000000000000000000000000000000000000000000000000000000000073ffffffffffffffffffffffffffffffffffffffff163373ffffffffffffffffffffffffffffffffffffffff16146112cd576040517f08c379a00000000000000000000000000000000000000000000000000000000081526004016112c490614102565b60405180910390fd5b6112d7828261230b565b5050565b6060600180546112ea906145b2565b80601f0160208091040260200160405190810160405280929190818152602001828054611316906145b2565b80156113635780601f1061133857610100808354040283529160200191611363565b820191906000526020600020905b81548152906001019060200180831161134657829003601f168201915b5050505050905090565b61137f611378611dae565b838361256e565b5050565b61139461138e611dae565b83611e6f565b6113d3576040517f08c379a00000000000000000000000000000000000000000000000000000000081526004016113ca90614162565b60405180910390fd5b6113df848484846126db565b50505050565b60606000600e60008481526020019081526020016000206040518060c001604052908160008201548152602001600182018054611421906145b2565b80601f016020809104026020016040519081016040528092919081815260200182805461144d906145b2565b801561149a5780601f1061146f5761010080835404028352916020019161149a565b820191906000526020600020905b81548152906001019060200180831161147d57829003601f168201915b505050505081526020016002820180546114b3906145b2565b80601f01602080910402602001604051908101604052809291908181526020018280546114df906145b2565b801561152c5780601f106115015761010080835404028352916020019161152c565b820191906000526020600020905b81548152906001019060200180831161150f57829003601f168201915b505050505081526020016003820154815260200160048201548152602001600582015481525050905060006115648260800151612737565b905060006115758360600151612737565b905060006115868460a00151612737565b905060006115cc856020015161159b89612737565b87604001518787876040516020016115b896959493929190613c5a565b6040516020818303038152906040526128e4565b90506000816040516020016115e19190613cff565b6040516020818303038152906040529050809650505050505050919050565b6000600560008473ffffffffffffffffffffffffffffffffffffffff1673ffffffffffffffffffffffffffffffffffffffff16815260200190815260200160002060008373ffffffffffffffffffffffffffffffffffffffff1673ffffffffffffffffffffffffffffffffffffffff16815260200190815260200160002060009054906101000a900460ff16905092915050565b600e6020528060005260406000206000915090508060000154908060010180546116bd906145b2565b80601f01602080910402602001604051908101604052809291908181526020018280546116e9906145b2565b80156117365780601f1061170b57610100808354040283529160200191611736565b820191906000526020600020905b81548152906001019060200180831161171957829003601f168201915b50505050509080600201805461174b906145b2565b80601f0160208091040260200160405190810160405280929190818152602001828054611777906145b2565b80156117c45780601f10611799576101008083540402835291602001916117c4565b820191906000526020600020905b8154815290600101906020018083116117a757829003601f168201915b5050505050908060030154908060040154908060050154905086565b60006117ec6007612aa2565b90506117f83382612ab0565b6040518060c0016040528083815260200160088481548110611843577f4e487b7100000000000000000000000000000000000000000000000000000000600052603260045260246000fd5b9060005260206000209060060201600101805461185f906145b2565b80601f016020809104026020016040519081016040528092919081815260200182805461188b906145b2565b80156118d85780601f106118ad576101008083540402835291602001916118d8565b820191906000526020600020905b8154815290600101906020018083116118bb57829003601f168201915b505050505081526020016008848154811061191c577f4e487b7100000000000000000000000000000000000000000000000000000000600052603260045260246000fd5b90600052602060002090600602016002018054611938906145b2565b80601f0160208091040260200160405190810160405280929190818152602001828054611964906145b2565b80156119b15780601f10611986576101008083540402835291602001916119b1565b820191906000526020600020905b81548152906001019060200180831161199457829003601f168201915b50505050508152602001600884815481106119f5577f4e487b7100000000000000000000000000000000000000000000000000000000600052603260045260246000fd5b906000526020600020906006020160030154815260200160088481548110611a46577f4e487b7100000000000000000000000000000000000000000000000000000000600052603260045260246000fd5b906000526020600020906006020160040154815260200160088481548110611a97577f4e487b7100000000000000000000000000000000000000000000000000000000600052603260045260246000fd5b906000526020600020906006020160050154815250600e6000838152602001908152602001600020600082015181600001556020820151816001019080519060200190611ae5929190613042565b506040820151816002019080519060200190611b02929190613042565b50606082015181600301556080820151816004015560a08201518160050155905050611b636040518060400160405280601281526020017f6d696e74696e6720746f6b656e4964202573000000000000000000000000000081525082611c3c565b80600f60003373ffffffffffffffffffffffffffffffffffffffff1673ffffffffffffffffffffffffffffffffffffffff16815260200190815260200160002081905550611bb16007611c26565b611bd4604051806060016040528060298152602001614e22602991398284612ace565b7fc9dc0d748de6a54ef1529cd1523f557ed80e6d09527ebd7e014006b92c42396e81600e6000848152602001908152602001600020600101604051611c1a929190614270565b60405180910390a15050565b6001816000016000828254019250508190555050565b611cd48282604051602401611c52929190613ef4565b6040516020818303038152906040527f9710a9d0000000000000000000000000000000000000000000000000000000007bffffffffffffffffffffffffffffffffffffffffffffffffffffffff19166020820180517bffffffffffffffffffffffffffffffffffffffffffffffffffffffff8381831617835250505050612b6d565b5050565b60007f01ffc9a7000000000000000000000000000000000000000000000000000000007bffffffffffffffffffffffffffffffffffffffffffffffffffffffff1916827bffffffffffffffffffffffffffffffffffffffffffffffffffffffff1916149050919050565b60008073ffffffffffffffffffffffffffffffffffffffff166002600084815260200190815260200160002060009054906101000a900473ffffffffffffffffffffffffffffffffffffffff1673ffffffffffffffffffffffffffffffffffffffff1614159050919050565b600033905090565b816004600083815260200190815260200160002060006101000a81548173ffffffffffffffffffffffffffffffffffffffff021916908373ffffffffffffffffffffffffffffffffffffffff160217905550808273ffffffffffffffffffffffffffffffffffffffff16611e2983610b2f565b73ffffffffffffffffffffffffffffffffffffffff167f8c5be1e5ebec7d5bd14f71427d1e84f3dd0314c0f7b2291e5b200ac8c7c3b92560405160405180910390a45050565b6000611e7a82611d42565b611eb9576040517f08c379a0000000000000000000000000000000000000000000000000000000008152600401611eb090614002565b60405180910390fd5b6000611ec483610b2f565b90508073ffffffffffffffffffffffffffffffffffffffff168473ffffffffffffffffffffffffffffffffffffffff161480611f3357508373ffffffffffffffffffffffffffffffffffffffff16611f1b846105c6565b73ffffffffffffffffffffffffffffffffffffffff16145b80611f445750611f438185611600565b5b91505092915050565b8273ffffffffffffffffffffffffffffffffffffffff16611f6d82610b2f565b73ffffffffffffffffffffffffffffffffffffffff1614611fc3576040517f08c379a0000000000000000000000000000000000000000000000000000000008152600401611fba906140e2565b60405180910390fd5b600073ffffffffffffffffffffffffffffffffffffffff168273ffffffffffffffffffffffffffffffffffffffff161415612033576040517f08c379a000000000000000000000000000000000000000000000000000000000815260040161202a90613fc2565b60405180910390fd5b61203e838383612b96565b612049600082611db6565b6001600360008573ffffffffffffffffffffffffffffffffffffffff1673ffffffffffffffffffffffffffffffffffffffff168152602001908152602001600020600082825461209991906144be565b925050819055506001600360008473ffffffffffffffffffffffffffffffffffffffff1673ffffffffffffffffffffffffffffffffffffffff16815260200190815260200160002060008282546120f091906143dd565b92505081905550816002600083815260200190815260200160002060006101000a81548173ffffffffffffffffffffffffffffffffffffffff021916908373ffffffffffffffffffffffffffffffffffffffff160217905550808273ffffffffffffffffffffffffffffffffffffffff168473ffffffffffffffffffffffffffffffffffffffff167fddf252ad1be2c89b69c2b068fc378daa952ba7f163c4a11628f55a4df523b3ef60405160405180910390a4505050565b60007f000000000000000000000000000000000000000000000000000000000000000073ffffffffffffffffffffffffffffffffffffffff16634000aea07f00000000000000000000000000000000000000000000000000000000000000008486600060405160200161221d929190613e03565b6040516020818303038152906040526040518463ffffffff1660e01b815260040161224a93929190613d88565b602060405180830381600087803b15801561226457600080fd5b505af1158015612278573d6000803e3d6000fd5b505050506040513d601f19601f8201168201806040525081019061229c919061339c565b5060006122bf846000306006600089815260200190815260200160002054612b9b565b9050600160066000868152602001908152602001600020546122e191906143dd565b60066000868152602001908152602001600020819055506123028482612bd7565b91505092915050565b60006002600b8361231c9190614672565b61232691906143dd565b905060006002600160068561233b9190614672565b61234591906143dd565b61234f9190614464565b90508082857fe4e64378a044aaf36359df3ad8a90e47edea685a91f4c18172c0984485c52d1060405160405180910390a46000600e6000600f6000601260008a815260200190815260200160002060009054906101000a900473ffffffffffffffffffffffffffffffffffffffff1673ffffffffffffffffffffffffffffffffffffffff1673ffffffffffffffffffffffffffffffffffffffff16815260200190815260200160002054815260200190815260200160002090508183111561249957600960040154600960030154106124685760096004015481600401600082825461243b91906143dd565b925050819055506009600401546009600301600082825461245c91906144be565b92505081905550612494565b60096003015481600401600082825461248191906143dd565b9250508190555060006009600301819055505b612521565b818310156125205780600501548160040154106124f4578060050154600960030160008282546124c991906143dd565b9250508190555080600501548160040160008282546124e891906144be565b9250508190555061251f565b80600401546009600301600082825461250d91906143dd565b92505081905550600081600401819055505b5b5b7f970910e4e82b3c547ce862e449b58aba7024d864432698afbbd971a384702d388383836004015460096003015460405161255f94939291906142a0565b60405180910390a15050505050565b8173ffffffffffffffffffffffffffffffffffffffff168373ffffffffffffffffffffffffffffffffffffffff1614156125dd576040517f08c379a00000000000000000000000000000000000000000000000000000000081526004016125d490613fe2565b60405180910390fd5b80600560008573ffffffffffffffffffffffffffffffffffffffff1673ffffffffffffffffffffffffffffffffffffffff16815260200190815260200160002060008473ffffffffffffffffffffffffffffffffffffffff1673ffffffffffffffffffffffffffffffffffffffff16815260200190815260200160002060006101000a81548160ff0219169083151502179055508173ffffffffffffffffffffffffffffffffffffffff168373ffffffffffffffffffffffffffffffffffffffff167f17307eab39ab6107e8899845ad3d59bd9653f200f220920489ca2b5937696c31836040516126ce9190613de8565b60405180910390a3505050565b6126e6848484611f4d565b6126f284848484612c0a565b612731576040517f08c379a000000000000000000000000000000000000000000000000000000000815260040161272890613f62565b60405180910390fd5b50505050565b6060600082141561277f576040518060400160405280600181526020017f300000000000000000000000000000000000000000000000000000000000000081525090506128df565b600082905060005b600082146127b157808061279a90614615565b915050600a826127aa9190614433565b9150612787565b60008167ffffffffffffffff8111156127f3577f4e487b7100000000000000000000000000000000000000000000000000000000600052604160045260246000fd5b6040519080825280601f01601f1916602001820160405280156128255781602001600182028036833780820191505090505b5090505b600085146128d85760018261283e91906144be565b9150600a8561284d9190614672565b603061285991906143dd565b60f81b818381518110612895577f4e487b7100000000000000000000000000000000000000000000000000000000600052603260045260246000fd5b60200101907effffffffffffffffffffffffffffffffffffffffffffffffffffffffffffff1916908160001a905350600a856128d19190614433565b9450612829565b8093505050505b919050565b6060600082519050600081141561290d5760405180602001604052806000815250915050612a9d565b6000600360028361291e91906143dd565b6129289190614433565b60046129349190614464565b9050600060208261294591906143dd565b67ffffffffffffffff811115612984577f4e487b7100000000000000000000000000000000000000000000000000000000600052604160045260246000fd5b6040519080825280601f01601f1916602001820160405280156129b65781602001600182028036833780820191505090505b5090506000604051806060016040528060408152602001614e4b604091399050600181016020830160005b86811015612a5a5760038101905062ffffff818a015116603f8160121c168401518060081b905060ff603f83600c1c1686015116810190508060081b905060ff603f8360061c1686015116810190508060081b905060ff603f831686015116810190508060e01b905080845260048401935050506129e1565b506003860660018114612a745760028114612a8457612a8f565b613d3d60f01b6002830352612a8f565b603d60f81b60018303525b508484525050819450505050505b919050565b600081600001549050919050565b612aca828260405180602001604052806000815250612da1565b5050565b612b68838383604051602401612ae693929190613f24565b6040516020818303038152906040527f969cdd03000000000000000000000000000000000000000000000000000000007bffffffffffffffffffffffffffffffffffffffffffffffffffffffff19166020820180517bffffffffffffffffffffffffffffffffffffffffffffffffffffffff8381831617835250505050612b6d565b505050565b60008151905060006a636f6e736f6c652e6c6f679050602083016000808483855afa5050505050565b505050565b600084848484604051602001612bb49493929190613e2c565b6040516020818303038152906040528051906020012060001c9050949350505050565b60008282604051602001612bec929190613c2e565b60405160208183030381529060405280519060200120905092915050565b6000612c2b8473ffffffffffffffffffffffffffffffffffffffff16612dfc565b15612d94578373ffffffffffffffffffffffffffffffffffffffff1663150b7a02612c54611dae565b8786866040518563ffffffff1660e01b8152600401612c769493929190613d3c565b602060405180830381600087803b158015612c9057600080fd5b505af1925050508015612cc157506040513d601f19601f82011682018060405250810190612cbe919061342a565b60015b612d44573d8060008114612cf1576040519150601f19603f3d011682016040523d82523d6000602084013e612cf6565b606091505b50600081511415612d3c576040517f08c379a0000000000000000000000000000000000000000000000000000000008152600401612d3390613f62565b60405180910390fd5b805181602001fd5b63150b7a0260e01b7bffffffffffffffffffffffffffffffffffffffffffffffffffffffff1916817bffffffffffffffffffffffffffffffffffffffffffffffffffffffff191614915050612d99565b600190505b949350505050565b612dab8383612e0f565b612db86000848484612c0a565b612df7576040517f08c379a0000000000000000000000000000000000000000000000000000000008152600401612dee90613f62565b60405180910390fd5b505050565b600080823b905060008111915050919050565b600073ffffffffffffffffffffffffffffffffffffffff168273ffffffffffffffffffffffffffffffffffffffff161415612e7f576040517f08c379a0000000000000000000000000000000000000000000000000000000008152600401612e7690614082565b60405180910390fd5b612e8881611d42565b15612ec8576040517f08c379a0000000000000000000000000000000000000000000000000000000008152600401612ebf90613f82565b60405180910390fd5b612ed460008383612b96565b6001600360008473ffffffffffffffffffffffffffffffffffffffff1673ffffffffffffffffffffffffffffffffffffffff1681526020019081526020016000206000828254612f2491906143dd565b92505081905550816002600083815260200190815260200160002060006101000a81548173ffffffffffffffffffffffffffffffffffffffff021916908373ffffffffffffffffffffffffffffffffffffffff160217905550808273ffffffffffffffffffffffffffffffffffffffff16600073ffffffffffffffffffffffffffffffffffffffff167fddf252ad1be2c89b69c2b068fc378daa952ba7f163c4a11628f55a4df523b3ef60405160405180910390a45050565b6040518060c001604052806000815260200160608152602001606081526020016000815260200160008152602001600081525090565b6040518060a0016040528060608152602001606081526020016000815260200160008152602001600081525090565b82805461304e906145b2565b90600052602060002090601f01602090048101928261307057600085556130b7565b82601f1061308957805160ff19168380011785556130b7565b828001600101855582156130b7579182015b828111156130b657825182559160200191906001019061309b565b5b5090506130c491906130c8565b5090565b5b808211156130e15760008160009055506001016130c9565b5090565b60006130f86130f38461430a565b6142e5565b90508281526020810184848401111561311057600080fd5b61311b848285614570565b509392505050565b60008135905061313281614dae565b92915050565b60008135905061314781614dc5565b92915050565b60008151905061315c81614dc5565b92915050565b60008135905061317181614ddc565b92915050565b60008135905061318681614df3565b92915050565b60008151905061319b81614df3565b92915050565b600082601f8301126131b257600080fd5b81356131c28482602086016130e5565b91505092915050565b6000813590506131da81614e0a565b92915050565b6000815190506131ef81614e0a565b92915050565b60006020828403121561320757600080fd5b600061321584828501613123565b91505092915050565b6000806040838503121561323157600080fd5b600061323f85828601613123565b925050602061325085828601613123565b9150509250929050565b60008060006060848603121561326f57600080fd5b600061327d86828701613123565b935050602061328e86828701613123565b925050604061329f868287016131cb565b9150509250925092565b600080600080608085870312156132bf57600080fd5b60006132cd87828801613123565b94505060206132de87828801613123565b93505060406132ef878288016131cb565b925050606085013567ffffffffffffffff81111561330c57600080fd5b613318878288016131a1565b91505092959194509250565b6000806040838503121561333757600080fd5b600061334585828601613123565b925050602061335685828601613138565b9150509250929050565b6000806040838503121561337357600080fd5b600061338185828601613123565b9250506020613392858286016131cb565b9150509250929050565b6000602082840312156133ae57600080fd5b60006133bc8482850161314d565b91505092915050565b600080604083850312156133d857600080fd5b60006133e685828601613162565b92505060206133f7858286016131cb565b9150509250929050565b60006020828403121561341357600080fd5b600061342184828501613177565b91505092915050565b60006020828403121561343c57600080fd5b600061344a8482850161318c565b91505092915050565b60006020828403121561346557600080fd5b6000613473848285016131cb565b91505092915050565b60006020828403121561348e57600080fd5b600061349c848285016131e0565b91505092915050565b60006134b18383613a5c565b905092915050565b6134c2816144f2565b82525050565b60006134d382614360565b6134dd818561438e565b9350836020820285016134ef8561433b565b8060005b8581101561352b578484038952815161350c85826134a5565b945061351783614381565b925060208a019950506001810190506134f3565b50829750879550505050505092915050565b61354681614504565b82525050565b61355581614510565b82525050565b61356c61356782614510565b61465e565b82525050565b600061357d8261436b565b613587818561439f565b935061359781856020860161457f565b6135a08161475f565b840191505092915050565b60006135b682614376565b6135c081856143b0565b93506135d081856020860161457f565b6135d98161475f565b840191505092915050565b60006135ef82614376565b6135f981856143c1565b935061360981856020860161457f565b6136128161475f565b840191505092915050565b600061362882614376565b61363281856143d2565b935061364281856020860161457f565b80840191505092915050565b6000815461365b816145b2565b61366581866143c1565b945060018216600081146136805760018114613692576136c5565b60ff19831686526020860193506136c5565b61369b8561434b565b60005b838110156136bd5781548189015260018201915060208101905061369e565b808801955050505b50505092915050565b60006136db604e836143d2565b91506136e682614770565b604e82019050919050565b60006136fe600b836143d2565b9150613709826147e5565b600b82019050919050565b60006137216032836143c1565b915061372c8261480e565b604082019050919050565b6000613744601c836143c1565b915061374f8261485d565b602082019050919050565b60006137676035836143d2565b915061377282614886565b603582019050919050565b600061378a6013836143c1565b9150613795826148d5565b602082019050919050565b60006137ad600e836143d2565b91506137b8826148fe565b600e82019050919050565b60006137d06024836143c1565b91506137db82614927565b604082019050919050565b60006137f36019836143c1565b91506137fe82614976565b602082019050919050565b6000613816602a836143d2565b91506138218261499f565b602a82019050919050565b6000613839602c836143c1565b9150613844826149ee565b604082019050919050565b600061385c6038836143c1565b915061386782614a3d565b604082019050919050565b600061387f602a836143c1565b915061388a82614a8c565b604082019050919050565b60006138a26029836143c1565b91506138ad82614adb565b604082019050919050565b60006138c56004836143d2565b91506138d082614b2a565b600482019050919050565b60006138e86020836143c1565b91506138f382614b53565b602082019050919050565b600061390b601d836143c1565b915061391682614b7c565b602082019050919050565b600061392e602c836143c1565b915061393982614ba5565b604082019050919050565b60006139516029836143c1565b915061395c82614bf4565b604082019050919050565b6000613974600a836143d2565b915061397f82614c43565b600a82019050919050565b6000613997601f836143c1565b91506139a282614c6c565b602082019050919050565b60006139ba6021836143c1565b91506139c582614c95565b604082019050919050565b60006139dd601a836143c1565b91506139e882614ce4565b602082019050919050565b6000613a00601d836143d2565b9150613a0b82614d0d565b601d82019050919050565b6000613a236031836143c1565b9150613a2e82614d36565b604082019050919050565b6000613a466015836143c1565b9150613a5182614d85565b602082019050919050565b600060c083016000830151613a746000860182613bf9565b5060208301518482036020860152613a8c82826135ab565b91505060408301518482036040860152613aa682826135ab565b9150506060830151613abb6060860182613bf9565b506080830151613ace6080860182613bf9565b5060a0830151613ae160a0860182613bf9565b508091505092915050565b600060c083016000830151613b046000860182613bf9565b5060208301518482036020860152613b1c82826135ab565b91505060408301518482036040860152613b3682826135ab565b9150506060830151613b4b6060860182613bf9565b506080830151613b5e6080860182613bf9565b5060a0830151613b7160a0860182613bf9565b508091505092915050565b600060a0830160008301518482036000860152613b9982826135ab565b91505060208301518482036020860152613bb382826135ab565b9150506040830151613bc86040860182613bf9565b506060830151613bdb6060860182613bf9565b506080830151613bee6080860182613bf9565b508091505092915050565b613c0281614566565b82525050565b613c1181614566565b82525050565b613c28613c2382614566565b614668565b82525050565b6000613c3a828561355b565b602082019150613c4a8284613c17565b6020820191508190509392505050565b6000613c6582613967565b9150613c71828961361d565b9150613c7c826136f1565b9150613c88828861361d565b9150613c93826136ce565b9150613c9f828761361d565b9150613caa8261375a565b9150613cb6828661361d565b9150613cc1826137a0565b9150613ccd828561361d565b9150613cd882613809565b9150613ce4828461361d565b9150613cef826138b8565b9150819050979650505050505050565b6000613d0a826139f3565b9150613d16828461361d565b915081905092915050565b6000602082019050613d3660008301846134b9565b92915050565b6000608082019050613d5160008301876134b9565b613d5e60208301866134b9565b613d6b6040830185613c08565b8181036060830152613d7d8184613572565b905095945050505050565b6000606082019050613d9d60008301866134b9565b613daa6020830185613c08565b8181036040830152613dbc8184613572565b9050949350505050565b60006020820190508181036000830152613de081846134c8565b905092915050565b6000602082019050613dfd600083018461353d565b92915050565b6000604082019050613e18600083018561354c565b613e256020830184613c08565b9392505050565b6000608082019050613e41600083018761354c565b613e4e6020830186613c08565b613e5b60408301856134b9565b613e686060830184613c08565b95945050505050565b60006020820190508181036000830152613e8b81846135e4565b905092915050565b600060a0820190508181036000830152613ead81886135e4565b90508181036020830152613ec181876135e4565b9050613ed06040830186613c08565b613edd6060830185613c08565b613eea6080830184613c08565b9695505050505050565b60006040820190508181036000830152613f0e81856135e4565b9050613f1d6020830184613c08565b9392505050565b60006060820190508181036000830152613f3e81866135e4565b9050613f4d6020830185613c08565b613f5a6040830184613c08565b949350505050565b60006020820190508181036000830152613f7b81613714565b9050919050565b60006020820190508181036000830152613f9b81613737565b9050919050565b60006020820190508181036000830152613fbb8161377d565b9050919050565b60006020820190508181036000830152613fdb816137c3565b9050919050565b60006020820190508181036000830152613ffb816137e6565b9050919050565b6000602082019050818103600083015261401b8161382c565b9050919050565b6000602082019050818103600083015261403b8161384f565b9050919050565b6000602082019050818103600083015261405b81613872565b9050919050565b6000602082019050818103600083015261407b81613895565b9050919050565b6000602082019050818103600083015261409b816138db565b9050919050565b600060208201905081810360008301526140bb816138fe565b9050919050565b600060208201905081810360008301526140db81613921565b9050919050565b600060208201905081810360008301526140fb81613944565b9050919050565b6000602082019050818103600083015261411b8161398a565b9050919050565b6000602082019050818103600083015261413b816139ad565b9050919050565b6000602082019050818103600083015261415b816139d0565b9050919050565b6000602082019050818103600083015261417b81613a16565b9050919050565b6000602082019050818103600083015261419b81613a39565b9050919050565b600060208201905081810360008301526141bc8184613aec565b905092915050565b600060208201905081810360008301526141de8184613b7c565b905092915050565b60006020820190506141fb6000830184613c08565b92915050565b600060c0820190506142166000830189613c08565b818103602083015261422881886135e4565b9050818103604083015261423c81876135e4565b905061424b6060830186613c08565b6142586080830185613c08565b61426560a0830184613c08565b979650505050505050565b60006040820190506142856000830185613c08565b8181036020830152614297818461364e565b90509392505050565b60006080820190506142b56000830187613c08565b6142c26020830186613c08565b6142cf6040830185613c08565b6142dc6060830184613c08565b95945050505050565b60006142ef614300565b90506142fb82826145e4565b919050565b6000604051905090565b600067ffffffffffffffff82111561432557614324614730565b5b61432e8261475f565b9050602081019050919050565b6000819050602082019050919050565b60008190508160005260206000209050919050565b600081519050919050565b600081519050919050565b600081519050919050565b6000602082019050919050565b600082825260208201905092915050565b600082825260208201905092915050565b600082825260208201905092915050565b600082825260208201905092915050565b600081905092915050565b60006143e882614566565b91506143f383614566565b9250827fffffffffffffffffffffffffffffffffffffffffffffffffffffffffffffffff03821115614428576144276146a3565b5b828201905092915050565b600061443e82614566565b915061444983614566565b925082614459576144586146d2565b5b828204905092915050565b600061446f82614566565b915061447a83614566565b9250817fffffffffffffffffffffffffffffffffffffffffffffffffffffffffffffffff04831182151516156144b3576144b26146a3565b5b828202905092915050565b60006144c982614566565b91506144d483614566565b9250828210156144e7576144e66146a3565b5b828203905092915050565b60006144fd82614546565b9050919050565b60008115159050919050565b6000819050919050565b60007fffffffff0000000000000000000000000000000000000000000000000000000082169050919050565b600073ffffffffffffffffffffffffffffffffffffffff82169050919050565b6000819050919050565b82818337600083830152505050565b60005b8381101561459d578082015181840152602081019050614582565b838111156145ac576000848401525b50505050565b600060028204905060018216806145ca57607f821691505b602082108114156145de576145dd614701565b5b50919050565b6145ed8261475f565b810181811067ffffffffffffffff8211171561460c5761460b614730565b5b80604052505050565b600061462082614566565b91507fffffffffffffffffffffffffffffffffffffffffffffffffffffffffffffffff821415614653576146526146a3565b5b600182019050919050565b6000819050919050565b6000819050919050565b600061467d82614566565b915061468883614566565b925082614698576146976146d2565b5b828206905092915050565b7f4e487b7100000000000000000000000000000000000000000000000000000000600052601160045260246000fd5b7f4e487b7100000000000000000000000000000000000000000000000000000000600052601260045260246000fd5b7f4e487b7100000000000000000000000000000000000000000000000000000000600052602260045260246000fd5b7f4e487b7100000000000000000000000000000000000000000000000000000000600052604160045260246000fd5b6000601f19601f8301169050919050565b7f222c20226465736372697074696f6e223a20224e46542074686174206973207560008201527f73656420746f20706c61792074686520646963652067616d652e222c2022696d60208201527f616765223a2022697066733a2f2f000000000000000000000000000000000000604082015250565b7f202d2d204e465420233a20000000000000000000000000000000000000000000600082015250565b7f4552433732313a207472616e7366657220746f206e6f6e20455243373231526560008201527f63656976657220696d706c656d656e7465720000000000000000000000000000602082015250565b7f4552433732313a20746f6b656e20616c7265616479206d696e74656400000000600082015250565b7f222c202261747472696275746573223a205b207b202274726169745f7479706560008201527f223a202246756e6473222c202276616c7565223a200000000000000000000000602082015250565b7f706c6179657220686173206e6f2066756e647300000000000000000000000000600082015250565b7f2c20226d61785f76616c7565223a000000000000000000000000000000000000600082015250565b7f4552433732313a207472616e7366657220746f20746865207a65726f2061646460008201527f7265737300000000000000000000000000000000000000000000000000000000602082015250565b7f4552433732313a20617070726f766520746f2063616c6c657200000000000000600082015250565b7f7d2c207b202274726169745f74797065223a202257616765722053697a65222c60008201527f202276616c7565223a2000000000000000000000000000000000000000000000602082015250565b7f4552433732313a206f70657261746f7220717565727920666f72206e6f6e657860008201527f697374656e7420746f6b656e0000000000000000000000000000000000000000602082015250565b7f4552433732313a20617070726f76652063616c6c6572206973206e6f74206f7760008201527f6e6572206e6f7220617070726f76656420666f7220616c6c0000000000000000602082015250565b7f4552433732313a2062616c616e636520717565727920666f7220746865207a6560008201527f726f206164647265737300000000000000000000000000000000000000000000602082015250565b7f4552433732313a206f776e657220717565727920666f72206e6f6e657869737460008201527f656e7420746f6b656e0000000000000000000000000000000000000000000000602082015250565b7f7d205d7d00000000000000000000000000000000000000000000000000000000600082015250565b7f4552433732313a206d696e7420746f20746865207a65726f2061646472657373600082015250565b7f4e6f204e465420666f756e6420666f7220746869732061646472657373000000600082015250565b7f4552433732313a20617070726f76656420717565727920666f72206e6f6e657860008201527f697374656e7420746f6b656e0000000000000000000000000000000000000000602082015250565b7f4552433732313a207472616e73666572206f6620746f6b656e2074686174206960008201527f73206e6f74206f776e0000000000000000000000000000000000000000000000602082015250565b7f7b226e616d65223a202200000000000000000000000000000000000000000000600082015250565b7f4f6e6c7920565246436f6f7264696e61746f722063616e2066756c66696c6c00600082015250565b7f4552433732313a20617070726f76616c20746f2063757272656e74206f776e6560008201527f7200000000000000000000000000000000000000000000000000000000000000602082015250565b7f4e6f7420656e6f756768204c494e4b20746f2070617920666565000000000000600082015250565b7f646174613a6170706c69636174696f6e2f6a736f6e3b6261736536342c000000600082015250565b7f4552433732313a207472616e736665722063616c6c6572206973206e6f74206f60008201527f776e6572206e6f7220617070726f766564000000000000000000000000000000602082015250565b7f6f70706f6e656e7420686173206e6f2066756e64730000000000000000000000600082015250565b614db7816144f2565b8114614dc257600080fd5b50565b614dce81614504565b8114614dd957600080fd5b50565b614de581614510565b8114614df057600080fd5b50565b614dfc8161451a565b8114614e0757600080fd5b50565b614e1381614566565b8114614e1e57600080fd5b5056fe4d696e746564206368617261637465722023257320776974682074726169747320696e6465782025734142434445464748494a4b4c4d4e4f505152535455565758595a6162636465666768696a6b6c6d6e6f707172737475767778797a303132333435363738392b2fa2646970667358221220afe2716e58757d5c6167453a32eaa94df6bb5abe765e8164deb0ff49590d9d4e64736f6c63430008040033696e697469616c697a65642025732064656661756c74206368617261637465727320616e64206f70706f6e656e74",
  "linkReferences": {},
  "deployedLinkReferences": {}
}